:10001E0000007FFC40204030482046404140408058
:10002E00414042204430481850107FFC0000000030
:10003E00080008007F7C094409441144157C6200C5
:10004E0001007FFC038005400930310EC104010020
:10005E00000000182442424242424242241800004C
:10006E00000000107010101010101010107C000006
:10007E000000003C4242420404081020427E000070
:10008E000000003C424204180402024244380000C0
:10009E00000000040C14242444447E04041E0000BA
:1000AE000000007E40404058640202424438000086
:1000BE000000001C244040586442424224180000B4
:1000CE000000007E444408081010101010100000AC
:1000DE000000003C4242422418244242423C0000AE
:1000EE000000001824424242261A02022438000060
:1000FE0000000000000000000000000000000000F2
:10010E000000001010182828243C444242E700004A
:10011E00000000F8444444784442424244F800004F
:10012E000000003E424280808080804244380000C1
:10013E00000000F8444242424242424244F800006B
:10014E00000000FC424848784848404242FC00000B
:10015E00000000FC424848784848404040E000001B
:10016E000000003C44448080808E8444443800006B
:10017E00000000E7424242427E42424242E7000015
:10018E000000007C1010101010101010107C0000D9
:10019E000000003E0808080808080808080888F04B
:1001AE00000000EE444850705048484444EE0000B1
:1001BE00000000E0404040404040404042FE000011
:1001CE00000000EE6C6C6C6C5454545454D6000009
:1001DE00000000C7626252524A4A4A4646E2000096
:1001EE00000000384482828282828282443800007B
:1001FE00000000FC424242427C40404040E0000091
:10020E0000000038448282828282B2CA4C380600D4
:10021E00000000FC4242427C4848444442E3000055
:10022E000000003E4242402018040242427C000080
:10023E00000000FE92101010101010101038000068
:10024E00000000E74242424242424242423C00002B
:10025E00000000E742424424242828181010000011
:10026E00000000D692929292AAAA6C4444440000D6
:10027E00000000E7422424181818242442E7000046
:10028E00000000EE44442828101010101038000012
:10029E000000007E840408081020204242FC00006A
:1003C100011301101C000102030405060708090AB4
:1003D1000B0C0D0E0F6080000000000000000000FB
:1003E100000000000000000000000000000000000C
:1003F10000000000000000000000000000000000FC
:1004010000000000000000000000000000000000EB
:1004110000000000000000000000000000000000DB
:1004210000000000000000000000000000000000CB
:1004310000000000000000000000000000000000BB
:1004410000000000000000000000000000000000AB
:0C0451000000000000000000000110008E
:03068600DFFE2272
:10062D00AD07AC06ED1DAE0470011C4E600C7FF5E0
:0B063D001206867FF512068680EA2276
:100003007E08EFC4131313540113B392A5C2A7D2EE
:07001300A7EF25E0FFDEEB83
:01001A0022C3
:10067600438910758DFFE4F58BD2AFD2ABD28E22B3
:0602AE008B2D8A2E892F22
:1002B400E53164017030FFAB2DAA2EA92F8F827512
:1002C40083001205F4FE75F020EDA42FF582E435C9
:1002D400F0F583E5822400F582E5833400F583EEAE
:1002E400F00FBF20D222E53264017034FFAB2DAA97
:1002F4002EA92F8F827583001205F4FE75F002EF8C
:10030400A4F58285F08375F020ED120621E58224A0
:1003140000F582E5833400F583EEF00FBF10CE22A2
:10032400E53264037034FFAB2DAA2EA92F8F82759A
:1003340083001205F4FE75F002EFA4F58285F083C4
:1003440075F020ED120621E5822401F582E583345F
:1003540000F583EEF00FBF10CE22E4FFAB2DAA2EE2
:10036400A92F8F827583001205F4C4540FFE75F013
:1003740002EFA4F58285F08375F020ED120621E5E5
:10038400822400F582E5833400F583EEF08F8275D4
:1003940083001205F4C454F0FE75F002EFA4F58254
:1003A40085F08375F020ED120621E5822401F582A3
:0C03B400E5833400F583EEF00FBF10A0CD
:0103C000221A
:10057C00E51364027023E52C75F010A424FEF974C5
:10058C000035F0FA7BFF753102753202E4FD120280
:10059C00AE7BFF7A00791E8044E52C75F00A8475D9
:1005AC00F010A4245EF9740035F0FA7BFF7531026B
:1005BC00753201E4FD1202AEE52C75F00A84E5F00B
:1005CC0075F010A4245EF9740035F0FA7BFF7531D8
:1005DC00027532031202AE7BFF7A00793E7531014F
:0805EC007532010D1202AE226E
:10064800E580540FF52CE580C4131313540104F509
:0B06580013E52C75F01A8485F02C22AD
:1006630012064875960FC2B6120676120648120590
:030673007C80F890
:03001B0002045E7E
:0D045E00C0E0C0F0C083C082C0D075D008DF
:10046B00758DFE758B0075110075F020E511A425B7
:10047B0012F582E435F0F583E5822400F582E583FD
:10048B003400F583E0FF12000375F020E511A4257D
:10049B0012F582E435F0F583E5822401F582E583DC
:1004AB003400F583E0FF1200030511E511C394043A
:1004BB0040B7C2A6D2A6741C2510F8E6FFE5A054DF
:1004CB00F04FF5A0051005120512E510B4100375D9
:0A04DB001000E512B42003751200B2
:0B04E500D0D0D082D083D0F0D0E03225
:030000000204F007
:0C04F000787FE4F6D8FD758132020537F4
:1005F400BB010CE58229F582E5833AF583E02250BC
:1006040006E92582F8E622BBFE06E92582F8E22205
:0D061400E58229F582E5833AF583E493221F
:0C062100A42582F582E5F03583F58322E4
:1004FC00020663E493A3F8E493A34003F68001F2AD
:10050C0008DFF48029E493A3F85407240CC8C33300
:10051C00C4540F4420C8834004F456800146F6DFCF
:10052C00E4800B01020408102040809003C1E47E9B
:10053C00019360BCA3FF543F30E509541FFEE493C4
:10054C00A360010ECF54C025E060A840B8E493A38B
:10055C00FAE493A3F8E493A3C8C582C8CAC583CAB6
:10056C00F0A3C8C582C8CAC583CADFE9DEE780BE6E
:01045D00009E
:00000001FF
