:100A7C00B0A2B0A300CEBCC4CFB9E2B5E7BFC6BC30
:020A8C00BC00AC
:1005830060200000000000000000000000000000E8
:100593000000000000000000000000000000000058
:1005A30000000000602000200101010101010101A0
:1005B3000101010101010101000000000000000030
:1005C3000000000000000000602001200000000087
:1005D300FCFCFFFFFFFFFCFC00000000000000002C
:1005E300FFFFFFFFFFFFFFFF00000000602000C0D0
:1005F30000000000FC040707070704FC00000000DC
:1006030000000000FFFFFFFFFFFFFFFF00000000EF
:100613006020010000000000FC040707070704FC3A
:100623000000000000000000FF808080808080FFC9
:1006330000000000602000E000000000FC24478769
:10064300874724FC0000000000000000FF84828133
:10065300818284FF000000000321000000012400C8
:030663000125006E
:060A6400D2A07F647E00B9
:100A6A00E4FDFCC3ED9FEC9E50070DBD00010C8018
:010A7A00F289
:010A7B002258
:0A0A3500A2019203E50E2440F552E1
:100A3F00120A66C2A5200309C2A0120A6AD2A180B7
:100A4F0005120A64C2A1120A6AC2A4C2A3D2A58562
:050A5F005280C2A52237
:0F0A0100A2019203AB0AAA0BA90C1203D2F55261
:100A1000120A66C2A5200309C2A0120A6AD2A180E6
:100A200005120A64C2A1120A6AD2A4C2A3D2A58581
:050A30005280C2A52266
:0208D500A90771
:1008D700C2037552C0120A3FD2037552C0120A3FB3
:1008E700E4FBC203EB24B8F552120A3FC203755268
:1008F70040120A3FD203EB24B8F552120A3FD20343
:10090700755240120A3FE4FAC2038952120A10D202
:0E091700038952120A100ABA40EE0BBB08C444
:0109250022AF
:10092600C2A27F887E13120A6AD2A2C20375523F00
:10093600120A3FC2037552C0120A3FD20375523FD4
:10094600120A3FD2037552C0120A3FE4FF1208D5BD
:10095600C2037552B8120A3FC203755240120A3FCB
:10096600D2037552B8120A3FD203755240020A3FAB
:060667008B528A538954F6
:10066D00E4F555F5567557207D101200038F5B8EFE
:10067D005A8D598C58AB52AA53A9541209768F56DC
:10068D00C2937F03120A9CAF5BAE5AAD59AC58783A
:10069D001012048BE4120A9CAF5BAE5AAD59AC58E4
:1006AD00780812048BE4120A9CAF5BE4120A9CE5F5
:1006BD0056B40218E4F555E555C39557503A120A4C
:1006CD008E74262555F8A607055580EBE556640171
:1006DD007026F555E557C313FFE555C39F50191205
:1006ED000A8EE55525E02426F8A607E55525E024D4
:0A06FD0027F8E4F6055580DCD293DF
:0107070022CF
:040794008F4D8D4EAA
:100798001206677B007A007926E54EC3940450065A
:1007A800C202E54E8007D202E54E24FCFFC454F095
:1007B800F550E4F551A2029203E54D25E024B82551
:1007C80051F552120A3F120A66A2029203E550122C
:1007D8000A3B120A66E4F54FA2029203120A0B7F43
:1007E8000A7E00120A6A740129F9E43AFA054FE50B
:0F07F8004FC3941040E20551E551C3940240B63F
:0108070022CE
:0A0874008F468D478B488A49894A58
:10087E00E4F54BF54CAB48AA49A94A1203D260469F
:10088E00E54BC3940A503F1209768F4CAB48AA49E8
:10089E00A94AAD46AF47120794054B7401254AF598
:1008AE004AE43549F549E54CB4020B7401254AF585
:1008BE004AE43549F5490546E546D3940740B6E482
:0608CE00F546054780AF6E
:0108D4002201
:0A0AA700752101752201752320223C
:0A0AB1007521017522007523C02293
:0A0ABB007521017522017523002248
:0A0AC5007521017522007523E0225F
:020808008D461B
:10080A00AB21AA22A923EFC394045005C202EF80A8
:10081A0006D202EF24FCFFC454F0F548E4F549A2DD
:10082A00029203E54625E024B82549F552120A3F0B
:10083A00120A66A2029203E548120A3B120A66E409
:10084A00F547A2029203120A0B7F0A7E00120A6A75
:10085A00740129F9E43AFA0547E547C3941040E2DE
:09086A000549E549C3940240B6BA
:010873002262
:04049E008F088D092D
:1004A200E5247004E5256069750A01750B00750C79
:1004B20000E524C394045006C201E5248007D2015A
:1004C200E52424FCFFC454F0F50EE4F50FA20192DA
:1004D20003E52525E024B8250FF552120A3F120A3A
:1004E20066120A35120A66E4F50D120A017F0A7EC7
:1004F20000120A6A7401250CF50CE4350BF50B05A4
:100502000DE50DC3941040E2050FE50FC3940240C0
:10051200BC850824850925750A01750B00750C2018
:10052200E508C394045006C201E5088007D201E53C
:100532000824FCFFC454F0F50EE4F50FA201920367
:10054200E50925E024B8250FF552120A3F120A6682
:10055200120A35120A66E4F50D120A017F0A7E00BC
:10056200120A6A7401250CF50CE4350BF50B050D26
:10057200E50DC3941040E2050FE50FC3940240BCA1
:010582002256
:1009BD0078407C017D017BFF7A0A797C7E007F0582
:1009CD001203AC78457C017D017BFF7A0A79817E2B
:1009DD00007F0D1203AC120ACF1209267B017A019A
:1009ED007940E4FDFF120874120AA77D037F0112FE
:0409FD00080880FE68
:060976008B5C8A5D895EC6
:10097C00055EE55E7002055D14F91203D2FFC394A7
:10098C002050037F0022EFC3948050037F0122ABE1
:10099C005C055EE55EAA5D7002055D14F91203D27A
:1009AC00BF8105C394395003BF82037F04227F02A9
:0109BC002218
:080003008D5F8B5C8A5D895E54
:10000B001203D2FFC3948040030200CBEFC39420B2
:10001B0050057420120418AB5CAA5DA95E1203D2C2
:10002B0024E0FFE434FFFEE48F638E62F561F5603C
:10003B00E55FB4080AAD61AC60E47B08020249E5F8
:10004B005FB40C0EAF63AE62AD61AC60E47B0C02CF
:10005B000249E55FB4101BE47F10FEFDFCAB63AA05
:10006B0062A961A86012043CEF2480F563EE34D7DB
:10007B00801DE55FB41820E47F30FEFDFCAB63AA66
:10008B0062A961A86012043CE42FF563EE34FFF51E
:10009B0062ED341D0202C5E55F642060030202D3EA
:1000AB007F40FEFDFCAB63AA62A961A86012043C11
:1000BB00EF2450F563EE345AF562ED341E0202C59F
:1000CB00AB5CAA5DA95E1203D2F56490000112032A
:1000DB00EBF565E564C394A1400EE564D394AB5096
:1000EB0007E565C394A1501EE564C394A8500302B1
:1000FB0001F3E564D394A940030201F3E565C394CE
:10010B00A140030201F3E564C394A1402DE564D340
:10011B0094AB5026E565C394A1401FE564245FFFB3
:10012B00E434FFFE7C007D5E12042AE565245FFD4E
:10013B00EC34FFCD2FFFED3E8020E565D3947F405F
:10014B00021565AF647E007C007D6012042AEF25EA
:10015B0065FFEC3ECF240ECF34C4FEE48F638E627A
:10016B00F561F560E55FB40C11E47F18FEFDFCABA7
:10017B0063AA62A961A86002043CE55FB4101EE4A7
:10018B007F20FEFDFCAB63AA62A961A86012043C50
:10019B00EF24C0FFEE34F4FEED34058043E55FB48D
:1001AB00181EE47F48FEFDFCAB63AA62A961A86040
:1001BB0012043CEF2490FFEE3481FEED34068020D8
:1001CB00E55FB42020E47F80FEFDFCAB63AA62A94F
:1001DB0061A86012043CE42FFFEE34DFFEED340E19
:1001EB00FDE43CFC220202CDE564C394B04035E54E
:1001FB0064D394F7502EE565C394A14027E564249E
:10020B0050FFE434FFFE7C007D5E12042AE565247A
:10021B005FFDEC34FFCD2FFFED3EFEE48F638E626E
:10022B00F561F560E55FB40C25E563244EFFE562EF
:10023B003403FEE43561FDE43560FCE47B18FAF928
:10024B00F812043C8F638E628D618C60807AE55F5F
:10025B00B41020E47F20FEFDFCAB63AA62A961A869
:10026B006012043CEF2480F563EE3447F562ED3405
:10027B00068047E55FB41820E47F48FEFDFCAB63C6
:10028B00AA62A961A86012043CEF2480F563EE34E6
:10029B006FF562ED34078022E55FB42025E47F80A3
:1002AB00FEFDFCAB63AA62A961A86012043CE42FBB
:1002BB00F563EE3486F562ED3410F561E43CF560E0
:1002CB008006E4FFFEFDFC22AF63AE62AD61AC6065
:0102DB002200
:070ACF0075CED075CDC022E9
:0B0A9C008FCFE5CD30E7FB75CDC02209
:0D0A8E00E4F5CFE5CD30E7FBAFCF75CDC06F
:010A9B002238
:03000000020708EC
:0C070800787FE4F6D8FD75816502074F8C
:1002DC00E709F608DFFA8046E709F208DFFA803E04
:1002EC0088828C83E709F0A3DFFA8032E309F608F1
:1002FC00DFFA8078E309F208DFFA807088828C8359
:10030C00E309F0A3DFFA806489828A83E0A3F6080C
:10031C00DFFA805889828A83E0A3F208DFFA804CE6
:10032C0080D280FA80C680D4806980F280338010BD
:10033C0080A680EA809A80A880DA80E280CA803326
:10034C0089828A83ECFAE493A3C8C582C8CCC5839E
:10035C00CCF0A3C8C582C8CCC583CCDFE9DEE7806E
:10036C000D89828A83E493A3F608DFF9ECFAA9F0ED
:10037C00EDFB2289828A83ECFAE0A3C8C582C8CC43
:10038C00C583CCF0A3C8C582C8CCC583CCDFEADE5C
:10039C00E880DB89828A83E493A3F208DFF980CCBE
:1003AC0088F0EF60010E4E60C388F0ED2402B404B7
:1003BC000050B9F582EB2402B4040050AF2323455E
:0603CC00822390032C7354
:1003D200BB010689828A83E0225002E722BBFE0229
:0903E200E32289828A83E493225C
:1003EB00BB010CE58229F582E5833AF583E02250C7
:1003FB0006E92582F8E622BBFE06E92582F8E22211
:0D040B00E58229F582E5833AF583E493222A
:10041800BB010689828A83F0225002F722BBFE01C3
:02042800F322BD
:10042A00EF8DF0A4A8F0CF8CF0A428CE8DF0A42EE6
:02043A00FE22A0
:10043C00E88FF0A4CC8BF0A42CFCE98EF0A42CFC5F
:10044C008AF0EDA42CFCEA8EF0A4CDA8F08BF0A4DD
:10045C002DCC3825F0FDE98FF0A42CCD35F0FCEB3C
:10046C008EF0A4FEA9F0EB8FF0A4CFC5F02ECD3901
:0F047C00FEE43CFCEAA42DCE35F0FDE43CFC226E
:10048B00E8600FECC313FCED13FDEE13FEEF13FF4F
:03049B00D8F12273
:100714000209BDE493A3F8E493A34003F68001F235
:1007240008DFF48029E493A3F85407240CC8C333E6
:10073400C4540F4420C8834004F456800146F6DFB5
:10074400E4800B0102040810204080900583E47EBD
:10075400019360BCA3FF543F30E509541FFEE493AA
:10076400A360010ECF54C025E060A840B8E493A371
:10077400FAE493A3F8E493A3C8C582C8CAC583CA9C
:10078400F0A3C8C582C8CAC583CADFE9DEE780BE54
:010666000093
:00000001FF
