:0B243F00900388EBF0A3EAF0A3E9F0A3
:10244A00900388E0FBA3E475F001120A39A9F0FAB7
:10245A00120942FFC3942050037F0022EFC39480E5
:10246A0050037F0122900388E0FBA3E475F0011278
:10247A000A39A9F0FA120942FEEFB48106EEC394B2
:0C248A00395004EFB482037F04227F026B
:012496002223
:1004E90090038BEDF0900388EBF0A3EAF0A3E9F019
:1004F900120942FFC3948040030205EBEFC3942025
:100509005010900388E0FBA3E0FAA3E0F9742012ED
:100519000988900388E0FBA3E0FAA3E0F9120942F5
:1005290024E0FFE434FFFEE4FCFD90038C120AB1E1
:1005390090038BE0B40812A3E0FCA3E0FDA3E0FE66
:10054900A3E0FFE47B080207A290038BE0B40C123E
:10055900A3E0FCA3E0FDA3E0FEA3E0FFE47B0C0223
:1005690007A290038BE0B41023E47F10FEFDFCA3E7
:10057900E0F8A3E0F9A3E0FAA3E0FB120A4FEF24A5
:10058900CCFFEE347FFEED341A0207D290038BE0E4
:10059900B41822E47F30FEFDFCA3E0F8A3E0F9A340
:1005A900E0FAA3E0FB120A4FE42FFFEE34FFFEED61
:1005B900341D0207D290038BE06420600302083DDA
:1005C9007F40FEFDFCA3E0F8A3E0F9A3E0FAA3E075
:1005D900FB120A4FEF2450FFEE345AFEED341E028F
:1005E90007D2900388E0FBA3E0FAA3E0F9120942DD
:1005F900FF900390F090000112095B900391F0EFD6
:10060900C394A14010900390E0D394AB5007A3E0AA
:10061900C394A15020900390E0FFC394A850030213
:100629000741EFD394A94003020741A3E0C394A172
:100639004003020741900390E0FFC394A1402EEFCD
:10064900D394AB5028A3E0FBC394A140209003901E
:10065900E0245FFFE434FFFE7C007D5E1209BCEB01
:10066900245FFDEC34FFCD2FFFED3E8026900391F2
:10067900E0D3947F4003E014F0900390E0FF7E0004
:100689007C007D601209BCA3E02FFFEC3ECF240E55
:10069900CF34C4FEE4FD90038C120AB190038BE0C1
:1006A900B40C15E47F18FEFDFCA3E0F8A3E0F9A360
:1006B900E0FAA3E0FB020A4F90038BE0B41022E4B6
:1006C9007F20FEFDFCA3E0F8A3E0F9A3E0FAA3E094
:1006D900FB120A4FEF24C0FFEE34F4FEED3405801F
:1006E9004F90038BE0B41822E47F48FEFDFCA3E0A1
:1006F900F8A3E0F9A3E0FAA3E0FB120A4FEF24C044
:10070900FFEE34E5FEED340D802690038BE0B42036
:1007190024E47F80FEFDFCA3E0F8A3E0F9A3E0FA5E
:10072900A3E0FB120A4FE42FFFEE34DFFEED340E97
:10073900FDE43CFC22020837900390E0FFC394B02B
:100749004035EFD394F7502FA3E0FBC394A1402782
:10075900900390E02450FFE434FFFE7C007D5E129C
:1007690009BCEB245FFDEC34FFCD2FFFED3EFEE429
:10077900FD90038C120AB190038BE0B40C24A3E022
:10078900FCA3E0FDA3E0FEA3E02496FFEE3402FE05
:10079900E43DFDE43CFCE47B18FAF9F8120A4F0247
:1007A900082F90038BE0B41026E47F20FEFDFCA304
:1007B900E0F8A3E0F9A3E0FAA3E0FB120A4FEF2463
:1007C90080FFEE3447FEED3406FDE43CFC80579093
:1007D900038BE0B41826E47F48FEFDFCA3E0F8A3F0
:1007E900E0F9A3E0FAA3E0FB120A4FEF24F0FFEED1
:1007F900349FFEED340EFDE43CFC802A90038BE02F
:10080900B4202BE47F80FEFDFCA3E0F8A3E0F9A36C
:10081900E0FAA3E0FB120A4FE42FFFEE342AFEEDC3
:100829003410FDE43CFC90038C120AB18006E4FF0D
:10083900FEFDFC2290038CE0FCA3E0FDA3E0FEA3F7
:02084900E0FFCE
:01084B00228A
:0D2A2700E4F5C7F5C5F5C675C380F5C422FA
:10296F0075C78375C5018FC4EEF5C375C65A75C695
:07297F00A500AFC2122A27D8
:01298600222E
:1029560075C78375C5028FC4EEF5C3AF058FC27503
:09296600C65A75C6A500022A2715
:10000E0075C78375C5038FC4EEF5C375C65A75C61D
:05001E00A500022A27E5
:100AE3006020000000000000000000000000000083
:100AF30000000000000000000000000000000000F3
:100B0300000000006020002001010101010101013A
:100B130001010101010101010000000000000000CA
:100B230000000000000000006020024F00000000F1
:100B3300FCFCFFFFFFFFFCFC0000000000000000C6
:100B4300FFFFFFFFFFFFFFFF00000000602001CF5A
:100B530000000000FC040707070704FC0000000076
:100B630000000000FFFFFFFFFFFFFFFF000000008A
:100B73006020022F00000000FC040707070704FCA5
:100B83000000000000000000FF808080808080FF64
:100B930000000000602001EF00000000FC244787F4
:100BA300874724FC0000000000000000FF848281CE
:100BB300818284FF000000006020020F808080801B
:100BC300808080808080808090A0C08000000000B2
:100BD3000000000000000000040201004300400088
:0A0BE30000004101AB004101AC002D
:1028F500FFE025E024B8FDEE2DFD12274F7F647E15
:0129050000D1
:10290600E4FDFCC3ED9FEC9E50070DBD00010C805D
:01291600F2CE
:01291700229D
:092746007F0112274F7D407F0145
:10274F00AB05AA077FC87E00122906C2A5EAB4010D
:10275F0009D2A0122906C2A1800BC2A07FC87E0099
:10276F00122906D2A1122906C2A4C2A3D2A5AF0371
:05277F008F80C2A522BD
:1025E400900364E090035EFFE0FBA3E0FAA3E0F94C
:0425F400120942FD89
:1025F800AB05AA077FC87E00122906C2A5EAB40166
:1026080009D2A0122906C2A1800BC2A07FC87E00F1
:10261800122906D2A1122906D2A4C2A3D2A5AF03B9
:052628008F80C2A52215
:05254400900361EFF0BF
:102549007DC07F0112274F7DC07F0212274FE4F91A
:10255900E924B8FD122746E924B8FD7F0212274F66
:102569007D407F0212274FE4900362F0900361E0FF
:10257900FD7F011225F8E0FD7F021225F8A3E00492
:0C258900F0E0C3944040E509E9B408C448
:012595002223
:10262D00C2A27FE87E03122906D2A21229067D3F9F
:10263D007F0112274F7DC07F0112274F7FE87E0358
:10264D001229067D3F7F0212274F7DC07F02122780
:10265D004FE4FF1225447DB81227467DB87F021244
:09266D00274F7D407F0202274F38
:0B149400900371EBF0A3EAF0A3E9F075
:10149F00E4A3F0A3F0A37420F07D101204E99003ED
:1014AF0077120AB1900371E0FBA3E0FAA3E0F912FF
:1014BF00243F900375EFF0C2937F03122A3F9003EE
:1014CF0077E0FCA3E0FDA3E0FEA3E0FF7810120A93
:1014DF009EE4122A3F900377E0FCA3E0FDA3E0FE19
:1014EF00A3E0FF7808120A9EE4122A3F900377E0E8
:1014FF00FCA3E0FDA3E0FEA3E0FFE4122A3F90036C
:10150F0075E0B4022CE4900374F0900376E0FF9042
:10151F000374E0C39F5060122A19900374E024AF44
:10152F00F582E43401F583EFF0900374E004F0806A
:10153F00D9900375E06401703E900374F0900376C8
:10154F00E0C313FF900374E0C39F502B122A19902E
:10155F000374E0FE25E024AFF582E43401F583EF58
:10156F00F0EE25E024B0F582E43401F583E4F09049
:09157F000374E004F080C6D2936D
:011588002240
:081D3100900368EFF0A3EDF050
:101D390012149490036A7401F0A37401F0A374AFB0
:101D4900F0900368E0FFC394049003705006740197
:101D5900F0EF80097402F0900368E024FCC454F0A9
:101D690090036EF0E490036FF090036FE0FEC3946C
:101D790002504AA3E09003691228F5900370E0FF2E
:101D890090036EE024401228FEE490036DF0900366
:101D990070E090036A1225EB7F0A7E0012290690F3
:101DA900036BE475F001120A2390036DE004F0E07F
:0D1DB900C3941040D990036FE004F080AC9B
:011DC60022FA
:10211F00900361EFF0A3EDF0A3EBF0A3EAF0A3E9D6
:01212F00F0BF
:10213000E4A3F0A3F0900363E0FBA3E0FAA3E0F9CB
:10214000120942605A900366E0C3940A5051122467
:102150003F900367EFF0900361E0FFA3E0FDA3E091
:10216000FBA3E0FAA3E0F9121D31900366E004F04E
:10217000900364E475F001120A23900367E0B4024F
:102180000A900364E475F001120A23900361E004ED
:0F219000F0E0D39407409EE4F0A3E004F08096C3
:01219F00221D
:0B126A0090037BEBF0A3EAF0A3E9F097
:10127500E4900381F0A3F0A37448F07D181204E90B
:10128500900384120AB190037BE0FBA3E0FAA3E08C
:10129500F912243F900382EFF0C2937F03122A3F95
:1012A500900384E0FCA3E0FDA3E0FEA3E0FF78103B
:1012B500120A9EE4122A3F900384E0FCA3E0FDA3FA
:1012C500E0FEA3E0FF7808120A9EE4122A3F90038D
:1012D50084E0FCA3E0FDA3E0FEA3E0FFE4122A3FC7
:1012E500900382E0B40236E4900381F0900383E03A
:1012F500FF900381E0C39F4003021380122A1990D7
:10130500037EE0FBA3E0FAA3E0F9A3E0F582758391
:1013150000EF12099A900381E004F080CF900382D8
:10132500E064017056900381F0900383E0C313FFDE
:10133500900381E0C39F5043122A1990037EE0FB7E
:10134500A3E0FAA3E0F9A3E0FE75F002A4F5828517
:10135500F083EF12099A90037EE0FBA3E0FAA3E085
:10136500F975F002EEA42401F582E435F0F583E485
:0D13750012099A900381E004F080AED2933B
:011382002248
:0819E300900392EFF0A3EDF078
:1019EB00E94A6020C002C001900397E0F9A3E0FA36
:1019FB00A3E090037EC9F0A3EAF0A3E9F0D001D0F5
:101A0B000212126A90039A7401F0A37400F0A3748B
:101A1B0043F0900392E0FFC394029003A05006742E
:101A2B0001F0EF80097402F0900392E024FE75F050
:101A3B0018A490039EF0E490039FF090039FE0FEA8
:101A4B00C394035051A3E0FF900393E075F003A4FC
:101A5B001228F99003A0E0FF90039EE02440122887
:101A6B00FEE490039DF09003A0E0FF90039A1225F3
:101A7B00EC7F0A7E0012290690039BE475F001129D
:101A8B000A2390039DE004F0E0C3941840D8900320
:061A9B009FE004F080A5AD
:011AA1002222
:101EEF009003AEEFF0A3EDF0A3EBF0A3EAF0A3E9BC
:011EFF00F0F2
:101F0000E4A3F0A3F09003B0E0FBA3E0FAA3E0F9B0
:101F1000120942606A9003B3E0C3940A506112242C
:101F20003F9003B4EFF09003AEE0FFA3E0FD900319
:101F3000977401F0A37400F0A37443F09003B0E031
:101F4000FBA3E0FAA3E0F91219E39003B3E004F075
:101F50009003B1E475F001120A239003B4E0B402D7
:101F60000A9003B1E475F001120A239003AEE00475
:0F1F7000F0E0D39404408EE4F0A3E004F0808608
:011F7F00223F
:0819220090036CEFF0A3EDF05F
:10192A00E94A6020C002C001900371E0F9A3E0FA1D
:10193A00A3E090037EC9F0A3EAF0A3E9F0D001D0B6
:10194A000212126A900371E0F9A3E0FAA3E0A3C9B4
:10195A00F0A3EAF0A3E9F090036CE0FFC39440908F
:10196A00037A500A7401F0900378EFF0800A740247
:10197A00F0EF24C0900378F0E4900379F0900379B3
:10198A00E0FEC394035051A3E0FF90036DE075F0AD
:10199A0003A41228F990037AE0FF900378E0244028
:1019AA001228FEE4900377F090037AE0FF90037424
:1019BA001225EC7F0A7E00122906900375E475F061
:1019CA0001120A23900377E004F0E0C3941840D888
:0819DA00900379E004F080A500
:0119E20022E2
:0E1383009003A1EFF0A3EBF0A3EAF0A3E9F0D2
:10139100E4A3F0A3F0A3EBF0A3EAF0A3E9F0900338
:1013A100A7E0FBA3E0FAA3E0F912094260271224A7
:1013B1003F9003A6EFF09003A5E004F09003A8E4AA
:1013C10075F001120A23BF02D59003A8E475F0015C
:1013D100120A2380C99003A5E024FE600F1460184F
:1013E100240270249003AA7427F0802D9003AA741C
:1013F1001DF0A3744AF080219003AA7426F0A3740F
:1014010040F0A37456F08011E49003AAF0A3742273
:10141100F0A37445F0A37467F0E49003A5F0900382
:10142100A2E0FBA3E0FAA3E0F91209426064900391
:10143100A5E0C39404505B12243F9003A6EFF09003
:1014410003A5E024AAF582E43403F583E0FF9003C9
:10145100A1E0FD9003717401F0A37400F0A3744343
:10146100F09003A2E0FBA3E0FAA3E0F912192290A5
:1014710003A5E004F09003A3E475F001120A2390A0
:1014810003A6E0B402989003A3E475F001120A23C5
:02149100808C4D
:011493002236
:1010080090036FECF0A3EDF090036CEBF0A3EAF023
:03101800A3E9F059
:10101B00E4900371F0A3F0A37448F07D181204E977
:10102B00900374120AB190036CE0FBA3E0FAA3E007
:10103B00F912243F900372EFF0C2937F03122A3F01
:10104B00900374E0FCA3E0FDA3E0FEA3E0FF7810A7
:10105B00120A9EE4122A3F900374E0FCA3E0FDA366
:10106B00E0FEA3E0FF7808120A9EE4122A3F9003E9
:10107B0074E0FCA3E0FDA3E0FEA3E0FFE4122A3F33
:10108B00900372E06402703D900371F0900373E083
:10109B00FF900371E0C39F4003021136122A19908F
:1010AB000371E0FD900370E02DFD90036FE03400C1
:1010BB00FC748B2DF58274003CF583EFF09003717B
:1010CB00E004F080C7900372E06401705E900371DE
:1010DB00F0900373E0C313FF900371E0C39F504B79
:1010EB00122A1990036FE0FCA3E0FDA3E0FE75F05C
:1010FB0002A42DF582E5F03CF583E582248BF58285
:10110B00E5833400F583EFF075F002EEA42DF58244
:10111B00E5F03CF583E582248CF582E5833400F51C
:0D112B0083E4F0900371E004F080A6D293FD
:011138002294
:100E7600EF24FE7003020F1A147003020F4E2402B1
:100E860060030210077B487AD89000D3E4F0A3DA17
:100E9600FC7A007B487C007D18AF03AE021209CEB7
:100EA600D3ED940BEC9400401874372BF582740044
:100EB6003AF583E0FF748B2BF58274003AF583EFE5
:100EC600F00BBB00010AEB64904A70C97A007B9074
:100ED6007C007D18AF03AE021209CEC3ED940BEC75
:100EE6009400501874072BF58274003AF583E0FFDE
:100EF600748B2BF58274003AF583EFF00BBB00017F
:100F06000AEB64D84A70C9E4FB7A4890008BE4F097
:100F1600A3DAFC227A017B1F74FB2BF58274FF3A5D
:100F2600F583E0FF748B2BF58274003AF583EFF0BE
:100F3600EB1B70011AEB64D74A70DD7B487A909000
:100F460000D3E4F0A3DAFC227A007BD874432BF5B5
:100F56008274003AF583E0FF748B2BF58274003AB5
:100F6600F583EFF00BBB00010ABA01E0BB20DD7A86
:100F7600007BD87C007D18AF03AE021209CEC3ED0C
:100F8600940BEC9400501A744F2BF58274003AF5CA
:100F960083E0FF748B2BF58274003AF583EFF080C3
:100FA6000C748B2BF58274003AF583E4F0EB1B701E
:100FB600011AEB648F4A70BB7A007B8F7C007D1828
:100FC600AF03AE021209CED3ED940BEC9400401A97
:100FD600747F2BF58274003AF583E0FF748B2BF552
:100FE6008274003AF583EFF0800C748B2BF58274D3
:100FF600003AF583E4F0EB1B70011AEB64474A7084
:01100600BB2E
:0110070022C6
:0E184A00900361EFF0A3EBF0A3EAF0A3E9F046
:10185800E4900366F0A3F0A3EBF0A3EAF0A3E9F0A9
:10186800A37448F0300967C209900362E0FBA3E063
:10187800FAA3E0F9120942604D900366E0C39404AC
:10188800504412243F900367EFF0900366E075F030
:1018980048A4FDACF0900362E0FBA3E0FAA3E0F9F2
:1018A800121008900366E004F0900363E475F001F9
:1018B800120A23900367E0B402AF900363E475F063
:1018C80001120A2380A3900366E0FF120E76E490CB
:1018D8000365F0900365E0FFC39404503C90036BEC
:1018E800E08FF0A4248BF9740035F0FA900371743A
:1018F80001F0A3EAF0A3E9F0900365E075F018A4FD
:101908002410FF900361E0FD7B007A007900121932
:0919180022900365E004F080BA9E
:0119210022A3
:0B158900900375EBF0A3EAF0A3E9F07B
:10159400E4A3F0A3F0A37420F07D101204E99003F7
:1015A4007B120AB1900375E0FBA3E0FAA3E0F91201
:1015B400243F900379EFF0C2937F03122A3F9003F4
:1015C4007BE0FCA3E0FDA3E0FEA3E0FF7810120A99
:1015D4009EE4122A3F90037BE0FCA3E0FDA3E0FE1F
:1015E400A3E0FF7808120A9EE4122A3F90037BE0EE
:1015F400FCA3E0FDA3E0FEA3E0FFE4122A3F900376
:1016040079E0B4022CE4900378F090037AE0FF9040
:101614000378E0C39F505C122A19900378E024AF4A
:10162400F582E43401F583EFF0900378E004F08070
:10163400D9900379E06401703A900378F090037ACA
:10164400E0C313FF900378E0C39F5027122A199038
:101654000378E0FE24AFF582E43401F583EFF074FF
:10166400BF2EF582E43401F583E4F0900378E004BE
:05167400F080CAD293D2
:01167900224E
:081C980090036CEFF0A3EDF0E6
:101CA00012158990036E7401F0A37401F0A374AF50
:101CB000F090036DE0FFC394089003745006740124
:101CC000F0EF80097402F090036DE024F8333333B1
:101CD00054F8900372F0E4900373F0900373E0FE05
:101CE000C39402504BA3E090036C1228F590037448
:101CF000E0FF900372E024401228FEE4900371F0AC
:101D0000900374E0FF90036E1225EC7F0A7E0012B0
:101D1000290690036FE475F001120A23900371E025
:101D200004F0E0C3940840D8900373E004F080AB63
:011D30002290
:10209A00900365EFF0A3EDF0A3EBF0A3EAF0A3E958
:0120AA00F045
:1020AB00E4A3F0A3F0900367E0FBA3E0FAA3E0F94D
:1020BB00120942605E90036AE0C3940A50551224E1
:1020CB003F90036BEFF0900366E0FF900365E0FD3C
:1020DB00900367E0FBA3E0FAA3E0F9121C989003CE
:1020EB006AE004F0900368E475F001120A23900390
:1020FB006BE0B4020A900368E475F001120A2390B6
:10210B000365E004F0E0D3940F409AE4F0A3E004FD
:03211B00F08092BF
:01211E00229E
:051F800090035DEDF08F
:101F8500E4FBE014F00BA3EBF0A37402F0A3740FD1
:101F9500F0EFC3940490036450067401F0EF8006DB
:101FA5007402F0EF24FCC454F0900362F0E4900353
:101FB50063F0900363E0FEC39402504CA3E0FF90EE
:101FC500035D1228F6900364E0FF900362E024406D
:101FD5001228FEE4900361F0900364E0FF90035E35
:101FE5001225EC7F0A7E0012290690035FE475F046
:101FF50001120A23900361E004F0E0C3941040D875
:08200500900363E004F080AADF
:01200D0022B0
:0F29C0009000407401F0A37402F0A3744FF02252
:0F29CF009000407401F0A37401F0A374CFF022C4
:0F29DE009000407401F0A37402F0A3742FF02254
:0F29ED009000407401F0A37401F0A374EFF02286
:0F29FC009000407401F0A37400F0A37400F02267
:051DC70090035CEDF04B
:101DCC00E014F0900040E0F9A3E0FAA3E090035D8A
:101DDC00C9F0A3EAF0A3E9F0EFC3940490036350B5
:101DEC00067401F0EF80067402F0EF24FCC454F08A
:101DFC00900361F0E4900362F0900362E0FEC39400
:101E0C0002504CA3E0FF90035C1228F6900363E0B1
:101E1C00FF900361E024401228FEE4900360F090F0
:101E2C000363E0FF90035D1225EC7F0A7E0012290C
:101E3C000690035EE475F001120A23900360E0043F
:0F1E4C00F0E0C3941040D8900362E004F080AA45
:011E5B002264
:082A5E00E49001ABF0A3F022AB
:0811390090035CEFF0A3EDF060
:10114100E014F09001ABE0FF7007A3E0700302111F
:10115100D590035E7401F0A37400F0A37400F0EF66
:10116100C3940490036450097401F09001ABE080D2
:10117100097402F09001ABE024FCC454F0900362C6
:10118100F0E4900363F0900363E0FEC394025044E3
:10119100A3E0FF9001AC1228F6900364E0FF9003F6
:1011A10062E024401228FEE4900361F01225E47FFE
:1011B1000A7E0012290690035FE475F001120A23EA
:1011C100900361E004F0E0C3941040E0900363E019
:1011D10004F080B290035CE0FF9001ABF090035DFE
:1011E100E09001ACF090035E7401F0A37400F0A3F1
:1011F1007420F0EFC3940490036450097401F090DB
:10120100035CE080097402F090035CE024FCC454A8
:10121100F0900362F0E4900363F0900363E0FEC397
:1012210094025044A3E0FF90035D1228F6900364FA
:10123100E0FF900362E024401228FEE4900361F095
:101241001225E47F0A7E0012290690035FE475F0FF
:1012510001120A23900361E004F0E0C3941040E01E
:08126100900363E004F080B289
:011269002262
:082A6600ED04FDD20E0211394E
:05000600E4FF022544A7
:101E5C00D0D5C3FBA3BA00B2BFC3C5A3BA00B9A403
:101E6C00D6D6A3BA00B5D8D6B7C9E8D6C300C1C177
:101E7C00B6C8C9E8D6C300B3E4C2FAE3D0D6B500FD
:101E8C00B5F7CAD4C9E8D6C300BCECB2E2D7B4CC1F
:101E9C00AC00BFF3B5C6C8A1D7DF00BFF3B5C6B35E
:101EAC00E4B5E700BFF3B5C6B3E4C2FA00B7A2C904
:101EBC00FAB9CAD5CF00B5F7CAD400C9E8D6C30061
:101ECC00C9E8D6C3CDEAB1CF210000000000000064
:101EDC000000003031323334353637383941424323
:031EEC0044454624
:100BED00490274FF1E5CFF1E63FF1E6A4C02B3FFB9
:100BFD001E71FF1E7AFF1E83FF1E8C5B0305000016
:100C0D0000000000000000000000000000000000D7
:100C1D000000000000000000004F02F4FF1E95FFD1
:100C2D001E9EFF1EA7FF1EB0FF1EB94102C200414E
:100C3D000272004102B2004102C00041032A00418C
:100C4D0003240041027F0A4103290041029800421A
:100C5D0002900000420332000042035A0000C18995
:100C6D00C101C10DC107C103C106C105C108C10B39
:100C7D00C10AC1024602920000000000004102C1FB
:100C8D000041032C0041027000410334004102B1C8
:100C9D000044029900000000440356000000004487
:100CAD00032E0000000041032B004102F30042031C
:080CBD000300004203260000C1
:032A7C00DFFE2258
:10298700AE07AF061EEF600C7FF5122A7C7FF512AB
:052997002A7C80EE2205
:04259600AB05AA07E0
:10259A0090032AE0FF7E007C037DE81209CEAF0596
:1025AA00EFF0E0FE75F06484243090035CF0EE7581
:1025BA00F06484E5F075F00A842430A3F0EF75F036
:1025CA000A84E5F02430A3F0E4A3F0AF02AE03AD31
:0A25DA00067B017A03795C02209A67
:10229700E490035DF0A3F0A3F0A3F020066812001A
:1022A70006300B4AE490035CF090035CE0FD75F0A8
:1022B70003A42474F582E43402F583E0FBA3E0FA77
:1022C700A3E0F9E4FF12211F90035CE075F009A475
:1022D7002405F9740335F0FA7B01E0FD7F03122131
:1022E7001F90035CE004F0E0C3940340BC227B0131
:1022F7007A037905E4FF12184A7B017A03790E7D88
:0623070002E4FF12211F99
:01230D0022AD
:1029180020061B900325E0B40106300E031222970F
:0F292800300B04E4FD80027D027F0D1225962204
:041BF40024D02FF0DA
:101BF800E4FFFE12000E90032AE0FDE4FFFE122926
:101C0800569002BFE0FD7F027E00122956900329FC
:101C1800E0B401069003257401F0900325E0FD7FF0
:101C2800047E0012295690027FE0FD7F067E001296
:101C38002956E490035CF0E490035DF090035DE0C6
:101C4800FDC39408503D90035CE0FC75F008A424A3
:101C580008FFE435F0FEED7A002FFFEA3EFEEC7552
:101C6800F009A42405F582E43403F583E5822DF513
:101C780082E43583F583E0FD12295690035DE00484
:0F1C8800F080B990035CE004F0E0C3940340A83F
:011C9700222A
:1021A000E4FF300D77C20D90032904F0D209E4FE5C
:1021B000E4FDAC070F74C32CF582E43402F583E030
:1021C000C454F0FCEE75F009A42405F582E4340350
:1021D000F583E5822DF582E43583F583ECF0AC07D9
:1021E0000F74C32CF582E43402F583E0540FFCEE47
:1021F00075F009A42405F582E43403F583E5822D06
:10220000F582E43583F583E02CF00DEDB408A30EE0
:0C221000EEB4039C121BF8D20E12291829
:01221C00229F
:0A2A4A00D2B78F99C2993099FD228E
:030023000217645D
:10176400C0E0C083C082C0D075D000C007209803F9
:1017740002182FC298E5995480602D2480600302DA
:10178400183FAF99EF2480601624C0600302183F0D
:1017940030060302183F9002B27403F002183F901F
:1017A40002B27404F002183F9002B2E014604C24B8
:1017B400FD601E04600302183F90032AE0B5990FF0
:1017C400B2949002B27401F09002C0E4F0806C8094
:1017D4002190032AE0B5991AB2949002B27402F0EF
:1017E400C2929002C2E04450FF122A4AD292D2948A
:1017F40080499002B2E4F0D2948040E59954F064B8
:101804006070389002C0E0FF04F074C32FF582E4E6
:101814003402F583E599F09002C0E06430701CD284
:10182400949002B2F0D20DB2B4801030990DC299E6
:101834009002B2E0B40202E4F0C2B7D007D0D0D034
:0618440082D083D0E032E7
:04237E00AB07AA06F9
:0F238200200E0C7F059002927420F0A3DFFC2246
:102391007C007D3CAF03AE021209CE90035DEDF0EF
:1023A100AE02AF037C007D3C1209CEA3EFF0E0FD4D
:1023B10075F00A842430900292F0ED75F00A84E5FC
:1023C100F02430A3F0A3742DF090035DE0FD75F0CF
:1023D1000A842430900295F0ED75F00A84E5F0242A
:0323E10030A3F036
:0123E40022D6
:1027F600E490035CF020062E9002C2E0FF640260C3
:1028060004EFB4030C90035AE0FEA3E0FFD20E805F
:1028160005C20EE4FFFE12237E7B017A0279927DC9
:06282600037F0B12209A53
:01282C002289
:0E2A0B00E4900332F0A3F090035AF0A3F022FF
:1026BF00C2B7438901758C4C758AD0D2A9D28C755B
:1026CF009850438920758DFD758BFDD28E12262D66
:1026DF00759D03E4F5BD75BC8075B810D2ACD2887A
:1026EF00D2A8D2AF122A757F1490029D74FFF0A367
:0626FF00DFFCC201D2A7BE
:0127050022B1
:10282D0090032AE0FD75F064842430900299F0ED58
:10283D0075F06484E5F075F00A842430A3F09003FC
:10284D002AE075F00A84E5F0243090029BF0E4A3B1
:02285D00F02267
:10285F009002BFE0FD75F064842430900356F0EDD4
:10286F0075F06484E5F075F00A842430A3F09002CB
:10287F00BFE075F00A84E5F02430900358F0E4A32C
:02288F00F02235
:1028910090027FE0FD75F06484243090032EF0ED0A
:1028A10075F06484E5F075F00A842430A3F0900299
:1028B1007FE075F00A84E5F02430900330F0E4A362
:0228C100F02203
:1029B000D208438901758CFFE4F58AD2A9D28C2212
:0B2A3400C208758C4C758AD0D28C2231
:072A6E00300803122A342294
:0923E500E4F09002B1E0FFC20E29
:1023EE0090035CEFF0120006300B0C7BFF7A1E7927
:1023FE00C2E4FDFF12211F7BFF7A1E79C7E4FD7F29
:10240E000312211F90035CE075F003A424B3F58240
:10241E00E43402F583E0FBA3E0FAA3E0F97D017F4B
:10242E000212211F300E097B1A7D027F01121F80BE
:01243E00227B
:0A2A54009002B1E0FFD20E0223EE63
:101B4F00EF14603A146061147003021BE924036000
:101B5F0003021BF39002C17401F090032C1223E5D2
:101B6F0012282D7B017A0279997D027F0312211FA2
:101B7F007B1A7D037F02121F8090032C80539002EB
:101B8F00C17404F09002701223E512285F7B017A72
:101B9F000379567D027F0312211F7B1A7D037F027B
:101BAF00121F8090027080299002C17407F0E49098
:101BBF0003341223E61228917B017A03792E7D02DA
:101BCF007F0312211F7B1A7D037F02121F80900358
:101BDF0034E02403FF7D03022A66E49002C1F0B2D1
:051BEF000B122A542234
:1027840020B5367F0A12298720B52E30B5FD2006E4
:1027940016D206122A5ED2081229B0E49002C1F0C1
:1027A4009002B1F0022A54E49002C1F0122A6EC2DF
:0A27B40006120006D20E12291822A8
:10167A00785C7C037D017BFF7A1E79D67E007F052C
:10168A0012091C78617C037D017BFF7A1E79DB7E5F
:10169A00007F0412091C30060302176330077BC25D
:1016AA0007900290E0FAA3E0FB7C037DE8FFAE021C
:1016BA001209CEEF243090035CF07C037DE8AF037F
:1016CA00AE021209CE7E007F64CFCDCFCECCCE1231
:1016DA0009CEEF2430A3F0900290A3E07C007D6451
:1016EA00FFAE021209CE7E007F0ACFCDCFCECCCE7E
:1016FA001209CEEF243090035EF07C007D0AAF031E
:10170A00AE021209CEED2430A3F0E4A3F07B017AF5
:10171A0003795C7D027F0C12209A30033CC203904D
:10172A000272E0FD75F064842430900361F0ED7577
:10173A00F06484ADF0ED75F00A842430A3F0ED7501
:10174A00F00A84E5F02430A3F0E4A3F07B017A03E5
:09175A0079617D017F0D12209AD6
:011763002263
:1024EE002006529002C2E01460121460141460169A
:1024FE00146018240470171229FC80121229DE8031
:10250E000D1229CF80081229C080031229ED7D04F7
:10251E00E4FF121DC79002C2E075F003A424F4F587
:10252E0082E43402F583E0FBA3E0FAA3E0F97D0335
:06253E007F0112211F22A3
:101AA200E4FFFE12296F90032AEFF0BFFF02E4F079
:101AB2007F027E0012296F9002BFEFF0BFFF02E4A7
:101AC200F07F047E0012296F900325EFF0D394017A
:101AD2004002E4F07F067E0012296F90027FEFF051
:101AE200C394504003740AF0E490035CF0E4900362
:101AF2005DF090035DE0FDC39408504490035CE008
:101B020075F008A42408FFE435F0FE7C00EF2DFFF9
:101B1200EC3EFE12296F90035DE0FE90035CE075DF
:101B2200F009A42405F582E43403F583E5822EF559
:101B320082E43583F583EFF090035DE004F080B238
:0C1B420090035CE004F0E0C3940340A1B9
:011B4E002274
:1027BE00C20EEF4488F5BC200E08E5BCA2E4920ED2
:1027CE0080F5EDAFBDB40A14EF75F004A4FFE5BEBD
:1027DE0054037C002FFBEC35F0FA80047A00AB0733
:0727EE0075BC00AF03AE0251
:0127F50022C1
:102497007D0AE4FF1227BE900290EEF0A3EFF090C2
:1024A7000298E0FD04F0ED75F00A84E5F025E024DC
:1024B7009DF582E43402F583EEF0A3EFF0D2077FB7
:1024C700641229877D087F011227BE900272EFF000
:1024D700D2039002BFE0FEEFC39E5004C2A7800262
:0724E700D2A77F64022987E0
:100CC600E490035CF0FFF9A3F0A3F0A3F0A3F0FB1C
:100CD600FAFEEE25E0249DF582E43402F583E0FC7D
:100CE600A3E0FDBCFF07BDFF04E4020E71ED4C70EE
:100CF6000890035CE004F08031D3ED9464EC6480EA
:100D06009480400590035E800ED3ED940FEC6480D2
:100D16009480400890035DE004F08001090F900381
:100D260060E02DF090035FE03CF00EEE640A70A2E6
:100D3600EF7004FEFF800FEFFD7C0090035FE0FE86
:100D4600A3E0FF1209CEAA06AB0790035CE0D3949A
:100D560007500C90027FE0FFEB9FEA940050199039
:100D660002F3E0C394FA5003E004F0E4900303F0C6
:100D7600A3F0900326F0A3F090035DE0D394045013
:100D86000C90027FE0FFEB9FEA9400403FE4900264
:100D9600F3F0C3900304E094FA900303E0648094B4
:100DA60080500CA3E004F07006900303E004F0C347
:100DB600900327E094FA900326E064809480500C18
:100DC600A3E004F07006900326E004F090035EE0D2
:100DD600D394075009C3EB9464EA94004028E49046
:100DE60002F3F0900303F0A3F0C3900327E094FA14
:100DF600900326E064809480500CA3E004F0700613
:100E0600900326E004F09002F3E0D394034011909F
:100E160002C2E090032BF09002C27401F0022A0B8A
:100E2600D3900304E09414900303E064809480401C
:100E360016E4900326F0A3F09002C2E090032BF094
:100E46009002C27403F022D3900327E09403900328
:100E560026E064809480400F9002C2E090032BF05D
:0F0E66009002C27402F02290032BE09002C2F0BF
:010E7500225A
:05267600900322E0FFCB
:10267B00EF120ABD26AD0826A40C26A11626A71814
:10268B0026B01C26B64226BC4A26B95226B35A2679
:10269B00AA5E000026BE7F00227F01227F02227FDE
:1026AB0003227F04227F05227F06227F07227F08D9
:0426BB00227F09224F
:10293700300216C202D206122A5E1229B0E49002B1
:0F294700C1F09002B1F0122A54E490032DF02257
:0300030002230EC7
:0D230E00C0E0C083C082C0D075D000C00701
:10231B0020061290032DE004F0E0C3943C4049E406
:10232B00F0D202804330003990027EE0FFC3943F2D
:10233B00500BEFC39421400590026FE4F090026FB5
:10234B00E02435F582E43403F583EFF090027EE46C
:10235B00F090026FE004F0E0B4210DD204E4F080C1
:08236B000790027EE4F0D200AD
:0B237300D007D0D0D082D083D0E03261
:100026002008030204E8900322E0120ABD02030737
:10003600043D08035F09043D0C011215043D160436
:100046003D18043D1C00B840043D42006D4402F6D4
:100056004502F64602F647043D4A043D52043D5A1F
:10006600043D5E000004E89002C1E070089002B111
:10007600E0240380489002C1E0FF64016004EFB40D
:10008600020590032C80269002C1E0FF6404600400
:10009600EFB4050590027080149002C1E0FF64077A
:1000A6006008EF640860030204E8900334E0240269
:1000B600804F9002C1E0700B9002B1E0045403FF40
:1000C6000202159002C1E0FF64016004EFB402076A
:1000D60090032CE004802A9002C1E0FF64046004CF
:1000E600EFB40507900270E00480169002C1E0FFAD
:1000F60064076008EF640860030204E8900334E0D4
:100106000475F00384AFF0EFF00204E09002C1E062
:1001160070109002B1E0240275F00384AFF0EF0294
:1001260002159002C1E0FF64016005EF6402703AB7
:1001360090032CE0FF2499F582E43402F583E02451
:10014600D975F00A84E5F02430FE74992FF582E41F
:100156003402F583EEF07B017A0279997D027F0302
:1001660012211F90032CE00204E09002C1E0FF641C
:10017600046005EF6405703A900270E0FF2456F5BE
:1001860082E43403F583E024D975F00A84E5F0248B
:1001960030FE74562FF582E43403F583EEF07B01CE
:1001A6007A0379567D027F0312211F900270E002C6
:1001B60004E09002C1E0FF64076008EF6408600392
:1001C6000204E8900334E0FF242EF582E43403F5BC
:1001D60083E024D975F00A84E5F02430FE742E2FCE
:1001E600F582E43403F583EEF07B017A03792E7D04
:1001F600027F0312211F900334E00204E09002C143
:10020600E070129002B1E00475F00384AFF0EFF0F5
:10021600D20E0223EE9002C1E0FF64016005EF6496
:1002260002703A90032CE0FF2499F582E43402F53B
:1002360083E024D175F00A84E5F02430FE74992F0A
:10024600F582E43402F583EEF07B017A0279997D3A
:10025600027F0312211F90032CE00204E09002C1EA
:10026600E0FF64046005EF6405703A900270E0FFF9
:100276002456F582E43403F583E024D175F00A842C
:10028600E5F02430FE74562FF582E43403F583EE50
:10029600F07B017A0379567D027F0312211F9002BB
:1002A60070E00204E09002C1E0FF64076008EF64BA
:1002B6000860030204E8900334E0FF242EF582E48C
:1002C6003403F583E024D175F00A84E5F02430FE8A
:1002D600742E2FF582E43403F583EEF07B017A0366
:1002E600792E7D027F0312211F900334E00204E081
:1002F6009002C1E0FFB402047401F022EFB40102DF
:1003060080349002C1E0B4030280549002C1E0FF41
:10031600B405047404F022EFB4040280199002C1FB
:10032600E0B4060280399002C1E0FFB40804740705
:10033600F022EFB40708E49002C1F0022A549002BA
:10034600C1E0B409028018E49002C1F0122A6EC21C
:1003560006120006D20E0229189002C1E07008901B
:1003660002B1E0FF021B4F9002C1E0FF640160058D
:10037600EF6402703590029AE024D075F00AA4FF6B
:10038600900299E024D075F064A42FFF90029BE0C0
:1003960090032A121BF47BFF7A1E79CC7D037F0221
:1003A60012211F9002C17403F0229002C1E0FF6483
:1003B600046005EF64057035900357E024D075F0AE
:1003C6000AA4FF900356E024D075F064A42FFF9092
:1003D6000358E09002BF121BF47BFF7A1E79CC7D96
:1003E600037F0212211F9002C17406F0229002C1FF
:1003F600E0FF64076008EF640860030204E8900306
:100406002FE024D075F00AA4FF90032EE024D075C7
:10041600F064A42FFF900330E024D02F90027FF0E9
:10042600121BF87BFF7A1E79CC7D037F0212211FF7
:100436009002C17409F0229002C1E0FF64016005D8
:10044600EF64027029122676EF2430FF90032CE029
:100456002499F582E43402F583EFF07B017A027980
:10046600997D027F0312211F90032CE0806C90027D
:10047600C1E0FF64046005EF64057029122676EF7B
:100486002430FF900270E02456F582E43403F583AD
:10049600EFF07B017A0379567D027F0312211F90CC
:1004A6000270E080359002C1E0FF64076005EF64EA
:1004B60008702F122676EF2430FF900334E0242EA6
:1004C600F582E43403F583EFF07B017A03792E7D20
:1004D600027F0312211F900334E02403FF7D0312E1
:0304E6002A662261
:102706007E01E4FD7C0174352EF582E43403F58305
:10271600E0D394074004EF4480FFECC394085004D0
:10272600EFC313FF0E0CECB409DC74202DF582E424
:0F2736003403F583EFF0E4FF0DEDB404C7D20CCC
:012745002271
:10299C00300810300405122706C204300C05120052
:0429AC0026C20C2211
:03000B0002221DB1
:10221D00C0E0C083C082C0D075D00830080E758C68
:10222D00FF758A0090027EE004F08055758C4C7528
:10223D008AD09002C2E0FF64026004EFB4034290C2
:10224D000333E004F07006900332E004F0C3900312
:10225D0033E094B0900332E094044025E4F0A3F011
:10226D0090035BE004F0700690035AE004F0C39015
:10227D00035BE094A090035AE094054004E4F0A3BE
:0A228D00F0D0D0D082D083D0E03230
:1028C300121AA21226BFD20E12291890027D740189
:1028D300F0900273F01224971221A0300B0312160A
:1028E3007A120CC61224EE1227F612293712299CEB
:0228F30080D98A
:072A750075CED075CDC02223
:0B2A3F008FCFE5CD30E7FB75CDC02246
:0D2A1900E4F5CFE5CD30E7FBAFCF75CDC0C4
:012A2600228D
:0300000002200ECD
:0C200E00787FE4F6D8FD75812102205592
:10084C00E709F608DFFA8046E709F208DFFA803E8E
:10085C0088828C83E709F0A3DFFA8032E309F6087B
:10086C00DFFA8078E309F208DFFA807088828C83E3
:10087C00E309F0A3DFFA806489828A83E0A3F60897
:10088C00DFFA805889828A83E0A3F208DFFA804C71
:10089C0080D280FA80C680D4806980F28033801048
:1008AC0080A680EA809A80A880DA80E280CA8033B1
:1008BC0089828A83ECFAE493A3C8C582C8CCC58329
:1008CC00CCF0A3C8C582C8CCC583CCDFE9DEE780F9
:1008DC000D89828A83E493A3F608DFF9ECFAA9F078
:1008EC00EDFB2289828A83ECFAE0A3C8C582C8CCCE
:1008FC00C583CCF0A3C8C582C8CCC583CCDFEADEE7
:10090C00E880DB89828A83E493A3F208DFF980CC48
:10091C0088F0EF60010E4E60C388F0ED2402B40441
:10092C000050B9F582EB2402B4040050AF232345E8
:06093C00822390089C7369
:10094200BB010689828A83E0225002E722BBFE02B3
:09095200E32289828A83E49322E6
:10095B00BB010CE58229F582E5833AF583E0225051
:10096B0006E92582F8E622BBFE06E92582F8E2229B
:0D097B00E58229F582E5833AF583E49322B5
:10098800BB010689828A83F0225002F722BBFE014E
:02099800F32248
:10099A00F8BB010DE58229F582E5833AF583E8F093
:1009AA00225006E92582C8F622BBFE05E92582C83F
:0209BA00F22227
:1009BC00EF8DF0A4A8F0CF8CF0A428CE8DF0A42E4F
:0209CC00FE2209
:1009CE00BC000BBE0029EF8DF084FFADF022E4CC0D
:1009DE00F875F008EF2FFFEE33FEEC33FCEE9DECD6
:1009EE00984005FCEE9DFE0FD5F0E9E4CEFD22ED1C
:1009FE00F8F5F0EE8420D21CFEADF075F008EF2F66
:100A0E00FFED33FD4007985006D5F0F222C398FD56
:050A1E000FD5F0EA22F3
:100A2300C5F0F8A3E028F0C5F0F8E582158270025E
:060A33001583E038F022FB
:100A3900A3F8E0C5F025F0F0E58215827002158370
:060A4900E0C838F0E822CD
:100A4F00E88FF0A4CC8BF0A42CFCE98EF0A42CFC46
:100A5F008AF0EDA42CFCEA8EF0A4CDA8F08BF0A4C4
:100A6F002DCC3825F0FDE98FF0A42CCD35F0FCEB23
:100A7F008EF0A4FEA9F0EB8FF0A4CFC5F02ECD39E8
:0F0A8F00FEE43CFCEAA42DCE35F0FDE43CFC2255
:100A9E00E8600FECC313FCED13FDEE13FEEF13FF36
:030AAE00D8F1225A
:0C0AB100ECF0A3EDF0A3EEF0A3EFF022B8
:100ABD00D083D082F8E4937012740193700DA3A3C8
:100ACD0093F8740193F5828883E4737402936860DC
:060ADD00EFA3A3A380DFDC
:10201A000228C3E493A3F8E493A34003F68001F2F1
:10202A0008DFF48029E493A3F85407240CC8C333C7
:10203A00C4540F4420C8834004F456800146F6DF96
:10204A00E4800B0102040810204080900AE3E47E39
:10205A00019360BCA3FF543F30E509541FFEE4938B
:10206A00A360010ECF54C025E060A840B8E493A352
:10207A00FAE493A3F8E493A3C8C582C8CAC583CA7D
:10208A00F0A3C8C582C8CAC583CADFE9DEE780BE35
:010CC500002E
:00000001FF
