:060DCB008B568A5789587F
:100DD1000558E5587002055714F9120A7AFFC394B1
:100DE1002050037F0022EFC3948050037F0122AB88
:100DF100560558E558AA577002055714F9120A7A90
:100E0100BF8105C394395003BF82037F04227F024F
:010E110022BE
:080326008D598B568A57895846
:10032E00120A7AFFC3948040030203EEEFC39420B7
:10033E0050057420120AC0AB56AA57A958120A7A51
:10034E0024E0FFE434FFFEE48F5D8E5CF55BF55A2E
:10035E00E559B4080AAD5BAC5AE47B0802056CE5BE
:10036E0059B40C0EAF5DAE5CAD5BAC5AE47B0C02C7
:10037E00056CE559B4101BE47F10FEFDFCAB5DAAC5
:10038E005CA95BA85A120AE4EF2480F55DEE34D71F
:10039E00801DE559B41820E47F30FEFDFCAB5DAA4C
:1003AE005CA95BA85A120AE4E42FF55DEE34FFF562
:1003BE005CED341D0205E8E559642060030205F684
:1003CE007F40FEFDFCAB5DAA5CA95BA85A120AE455
:1003DE00EF2450F55DEE345AF55CED341E0205E85F
:1003EE00AB56AA57A958120A7AF55E900001120A66
:1003FE0093F55FE55EC394A1400EE55ED394AB50DA
:10040E0007E55FC394A1501EE55EC394A850030296
:10041E000516E55ED394A94003020516E55FC39465
:10042E00A14003020516E55EC394A1402DE55ED3FF
:10043E0094AB5026E55FC394A1401FE55E245FFF99
:10044E00E434FFFE7C007D5E120AD2E55F245FFD80
:10045E00EC34FFCD2FFFED3E8020E55FD3947F403F
:10046E0002155FAF5E7E007C007D60120AD2EF2522
:10047E005FFFEC3ECF240ECF34C4FEE48F5D8E5C66
:10048E00F55BF55AE559B40C11E47F18FEFDFCAB93
:10049E005DAA5CA95BA85A020AE4E559B4101EE4F1
:1004AE007F20FEFDFCAB5DAA5CA95BA85A120AE494
:1004BE00EF24D0FFEE34C9FEED34028043E559B48B
:1004CE00181EE47F48FEFDFCAB5DAA5CA95BA85A32
:1004DE00120AE4EF2490FFEE3481FEED3406802004
:1004EE00E559B42020E47F80FEFDFCAB5DAA5CA93B
:1004FE005BA85A120AE4E42FFFEE34DFFEED340E51
:10050E00FDE43CFC220205F0E55EC394B04035E507
:10051E005ED394F7502EE55FC394A14027E55E2489
:10052E0050FFE434FFFE7C007D5E120AD2E55F24AC
:10053E005FFDEC34FFCD2FFFED3EFEE48F5D8E5C54
:10054E00F55BF55AE559B40C25E55D244EFFE55CE7
:10055E003403FEE4355BFDE4355AFCE47B18FAF90E
:10056E00F8120AE48F5D8E5C8D5B8C5A807AE559A9
:10057E00B41020E47F20FEFDFCAB5DAA5CA95BA855
:10058E005A120AE4EF2490F55DEE3433F55CED3447
:10059E00038047E559B41820E47F48FEFDFCAB5DAF
:1005AE00AA5CA95BA85A120AE4EF2480F55DEE342A
:1005BE006FF55CED34078022E559B42025E47F8089
:1005CE00FEFDFCAB5DAA5CA95BA85A120AE4E42FFF
:1005DE00F55DEE3486F55CED3410F55BE43CF55AD2
:1005EE008006E4FFFEFDFC22AF5DAE5CAD5BAC5A57
:0105FE0022DA
:0D0EDA00E4F5C7F5C5F5C675C380F5C42263
:100E6D0075C78375C5018FC48EC375C65A75C6A562
:060E7D0000AFC2120EDA04
:010E8300224C
:100E840075C78375C5028FC48EC38DC275C65A7566
:060E9400C6A500020EDA03
:100E9A0075C78375C5038FC48EC375C65A75C6A533
:040EAA0000020EDA5A
:10000E00B2E2CAD4B5C6C1E300B2E2CAD4B5C6D212
:10001E00BB00B2E2CAD4B5C6B6FE00B2E2CAD4B5CF
:10002E00C6C8FE00B2E2CAD4B5C6CBC400B2E2CA9C
:10003E00D4B5C6CEE500B2E2CAD4B5C6C1F900B297
:10004E00E2CAD4B5C6C6DF00B2E2CAD4B5C6B0CBDA
:10005E0000B2E2CAD4B5C6BEC500FF000EFF00173F
:10006E00FF0020FF0029FF0032FF003BFF0044FF8E
:10007E00004DFF0056FF005F00007FFC4020403027
:10008E00482046404140408041404220443048187C
:10009E0050107FFC00000000080008007F7C09441F
:1000AE0009441144157C620001007FFC0380054069
:1000BE000930310EC10401000000001824424242F2
:1000CE00424242422418000000000010701010102E
:1000DE0010101010107C00000000003C4242420440
:1000EE0004081020427E00000000003C424204182A
:1000FE000402024244380000000000040C142424C0
:10010E0044447E04041E00000000007E404040581F
:10011E0064020242443800000000001C2440405893
:10012E0064424242241800000000007E4444080845
:10013E0010101010101000000000003C424242242B
:10014E0018244242423C0000000000182442424261
:10015E00261A020224380000000000000000007E73
:10016E000000000000000000000000000000000081
:10017E0000000000000000000000001010182828E9
:10018E00243C444242E70000000000F84444447816
:10019E004442424244F800000000003E4242808049
:1001AE008080804244380000000000F84442424201
:1001BE004242424244F80000000000FC42484878A7
:1001CE004848404242FC0000000000FC424848788B
:1001DE004848404040E000000000003C444480801D
:1001EE00808E844444380000000000E742424242C0
:1001FE007E42424242E700000000007C10101010C8
:10020E0010101010107C00000000003E08080808B6
:10021E0008080808080888F0000000EE44485070EE
:10022E005048484444EE0000000000E0404040408A
:10023E004040404042FE0000000000EE6C6C6C6CD2
:10024E005454545454D60000000000C762625252F7
:10025E004A4A4A4646E20000000000384482828242
:10026E008282828244380000000000FC42424242F8
:10027E007C40404040E00000000000384482828212
:10028E008282B2CA4C380600000000FC4242427C18
:10029E004848444442E300000000003E42424020F1
:1002AE0018040242427C0000000000FE9210101062
:1002BE001010101010380000000000E742424242B9
:1002CE0042424242423C0000000000E742424424C7
:1002DE002428281810100000000000D69292929246
:1002EE00AAAA6C4444440000000000E742242418EB
:1002FE001818242442E70000000000EE4444282889
:10030E0010101010103800000000007E8404080841
:08031E001020204242FC000007
:1005FF00C181C10010330001020304050607080979
:10060F000A0B0C0D0E0F04450000000001320A61A9
:10061F00400080000000000000000000000000000B
:10062F0000000000000000000000000000000000BB
:10063F0000000000000000000000000000000000AB
:10064F00000000000000000000000000000000009B
:10065F00000000000000000000000000000000008B
:10066F00000000000000000000000000000000007B
:10067F00000000000000000000000000000000006B
:10068F00000000000000000000000000000000005B
:10069F00000000000000000000000000000000004B
:1006AF00000000000000000000000000000000003B
:1006BF00000000000000000000000000000000002B
:1006CF00000000000000000000000000000000001B
:1006DF00000000000000000000000000000000000B
:1006EF0000000000000000000000000000000000FB
:1006FF0000000000000000000000000000000000EB
:10070F0000000000000000000000000000000000DA
:10071F0000000000000000000000000000000000CA
:10072F0000000000000000000000000000000000BA
:10073F0000000000000000000000000000000000AA
:10074F00000000000000000000000000000000009A
:10075F000000000131006080000000000000000078
:10076F00000000000000000000000000000000007A
:10077F00000000000000000000000000000000006A
:10078F00000000000000000000000000000000005A
:10079F00000000000000000000000000000000004A
:1007AF00000000000000000000000000000000003A
:1007BF00000000000000000000000000000000002A
:1007CF00000000000000000000000000000000001A
:1007DF0000000000000000000000013000012500B3
:1007EF00012400C103C182C1840144FF022600001D
:0307FF00012100D5
:100E55007E08EFC4131313540113B392A5C2A7D28E
:070E6500A7EF25E0FFDEEB23
:010E6C002263
:100EAE00438901758CFC758A66D2AFD2A9D28C2289
:1009520075F010A424C6F9740035F0FA7BFF754DCA
:0509620002754E010DBD
:060967008B498A4A894B0E
:10096D00E54D64017030FFAB49AA4AA94B8F8275E2
:10097D008300120A93FE75F020EDA42FF582E43565
:10098D00F0F583E5822400F582E5833400F583EEEE
:10099D00F00FBF20D222E54E64017034FFAB49AA9F
:1009AD004AA94B8F82758300120A93FE75F002EFF0
:1009BD00A4F58285F08375F020ED120B46E58224B7
:1009CD0000F582E5833400F583EEF00FBF10CE22E3
:1009DD00E54E64037034FFAB49AA4AA94B8F82756B
:1009ED008300120A93FE75F002EFA4F58285F08361
:1009FD0075F020ED120B46E5822401F582E5833476
:100A0D0000F583EEF00FBF10CE22E4FFAB49AA4AEA
:100A1D00A94B8F82758300120A93C4540FFE75F093
:100A2D0002EFA4F58285F08375F020ED120B46E5FB
:100A3D00822400F582E5833400F583EEF08F827514
:100A4D008300120A93C454F0FE75F002EFA4F582F0
:100A5D0085F08375F020ED120B46E5822401F582B9
:0C0A6D00E5833400F583EEF00FBF10A00D
:010A7900225A
:100C2600200103020CD2E53075F00A8475F010A499
:100C360024C6F9740035F0FA7BFF754D02754E0136
:100C4600E4FD120967E53075F00A84E5F075F010E9
:100C5600A424C6F9740035F0FA7BFF754D02754E73
:100C6600031209677BFF7A017966120960E525752B
:100C7600F00A8475F010A424C6F9740035F0FA7BE6
:100C8600FF754D02754E03120967E52575F00A8456
:100C9600E5F01209527BFF7A017966754D02754EB1
:100CA60003120967E52475F00A84120952E52475D2
:100CB600F00A84E5F075F010A424C6F9740035F046
:100CC600FA7BFF754D02754E03020967E53175F033
:100CD6000AA42480F9740035F0FA7B011208032275
:100E1200E580C41313135401139201A2013002019D
:100E2200B35006D204A2019202300106E580139269
:100E32000322E4F524F525F530E580541FF531C38E
:100E420095324003E4F531E54465316005D204850D
:030E520031442206
:060803008B498A4A894B73
:10080900754C20E4F54DF54EF54F200403020951CE
:10081900C204E4FF7E80900000E4F0A3DEFC7F8048
:10082900E54EC394044003020951AB49AA4AA94BB6
:10083900854D82758300120A9370030209517E0067
:10084900E9254DF9EE3AFA7D101203268F538E529F
:100859008D518C50AB497E00E54B254DF9EE354A5B
:10086900FA120DCB8F4FE54F254DF54DC2937F03FE
:10087900120EE7AF53AE52AD51AC507810120B3394
:10088900E4120EE7AF53AE52AD51AC507808120BDB
:1008990033E4120EE7AF53E4120EE7E54F6402703A
:1008A90038F554F555C3E555954CE5549400400386
:1008B90002094A300003020951120ECCE54C854E5B
:1008C900F0A425552400F582E43400F583EFF00502
:1008D90055E5557002055480CCE54F64017062F509
:1008E90054F555E54CC313FFC3E5559FE5549400F2
:1008F900504F200053120ECCE54C854EF0A4FEADAE
:100909005575F002EDA42EF582E435F0F583E58204
:100919002400F582E5833400F583EFF075F002EDEC
:10092900A42EF582E435F0F583E5822401F582E50C
:10093900833400F583E4F00555E5557002055480CC
:08094900A2D293054E02082919
:010951002283
:100D720075960FC2B6E4FFEFC395325046E4FEEF1C
:100D820075F003A42468F582E43400F583E493FB50
:100D9200740193FA740293F98E82758300120A9396
:100DA200FD75F00AEFA42480F582E5F03400F583A6
:100DB200E5822EF582E43583F583EDF00EBE09BFA0
:090DC2000F80B4120EAE02000312
:0E0EBE00120E12120D72120E12120C2680F875
:03000B00020B5293
:0D0B5200C0E0C0F0C083C082C0D075D008E4
:100B5F00758CFC758A6630013F200308752400757B
:100B6F00250080310527E52770020526B4E80DE53D
:100B7F0026B403080524752600752700E524B43C28
:100B8F00050525752400E525B43C050530752500C0
:100B9F00E530B4630375300075220075F020E5224F
:100BAF00A42523F582E435F0F583E5822400F58250
:100BBF00E5833400F583E0FF120E5575F020E52232
:100BCF00A42523F582E435F0F583E5822401F5822F
:100BDF00E5833400F583E0FF120E550522E522C3AD
:100BEF00940440B7C2A6D2A674332521F8E6FFE5D8
:100BFF00A054F04FF5A0052105230523E521B410DE
:0C0C0F0003752100E523B42003752300C9
:0B0C1B00D0D0D082D083D0F0D0E032E7
:0700030075CED075CDC022BF
:0B0EE7008FCFE5CD30E7FB75CDC022BA
:0D0ECC00E4F5CFE5CD30E7FBAFCF75CDC02D
:010ED90022F6
:03000000020CE609
:0C0CE600787FE4F6D8FD75815F020D2DCB
:100A7A00BB010689828A83E0225002E722BBFE027A
:090A8A00E32289828A83E49322AD
:100A9300BB010CE58229F582E5833AF583E0225018
:100AA30006E92582F8E622BBFE06E92582F8E22262
:0D0AB300E58229F582E5833AF583E493227C
:100AC000BB010689828A83F0225002F722BBFE0115
:020AD000F3220F
:100AD200EF8DF0A4A8F0CF8CF0A428CE8DF0A42E38
:020AE200FE22F2
:100AE400E88FF0A4CC8BF0A42CFCE98EF0A42CFCB1
:100AF4008AF0EDA42CFCEA8EF0A4CDA8F08BF0A42F
:100B04002DCC3825F0FDE98FF0A42CCD35F0FCEB8D
:100B14008EF0A4FEA9F0EB8FF0A4CFC5F02ECD3952
:0F0B2400FEE43CFCEAA42DCE35F0FDE43CFC22BF
:100B3300E8600FECC313FCED13FDEE13FEEF13FFA0
:030B4300D8F122C4
:0C0B4600A42582F582E5F03583F58322BA
:100CF200020EBEE493A3F8E493A34003F68001F24C
:100D020008DFF48029E493A3F85407240CC8C33302
:100D1200C4540F4420C8834004F456800146F6DFD1
:100D2200E4800B01020408102040809005FFE47E5D
:100D3200019360BCA3FF543F30E509541FFEE493C6
:100D4200A360010ECF54C025E060A840B8E493A38D
:100D5200FAE493A3F8E493A3C8C582C8CAC583CAB8
:100D6200F0A3C8C582C8CAC583CADFE9DEE780BE70
:0108020000F5
:00000001FF
