:060A69008B708A71897296
:100A6F000572E5727002057114F9120676FFC394D0
:100A7F002050037F0022EFC3948050037F0122ABED
:100A8F00700572E572AA717002057114F91206767B
:100A9F00BF8105C394395003BF82037F04227F02B5
:010AAF002224
:080026008D738B708A718972E1
:10002E00120676FFC3948040030200EEEFC39420C5
:10003E00500574201206BCAB70AA71A97212067616
:10004E0024E0FFE434FFFEE48F778E76F575F574C9
:10005E00E573B4080AAD75AC74E47B0802026CE576
:10006E0073B40C0EAF77AE76AD75AC74E47B0C0248
:10007E00026CE573B4101BE47F10FEFDFCAB77AA97
:10008E0076A975A8741206E0EF2480F577EE34D7C2
:10009E00801DE573B41820E47F30FEFDFCAB77AA1B
:1000AE0076A975A8741206E0E42FF577EE34FFF505
:1000BE0076ED341D0202E8E573642060030202F659
:1000CE007F40FEFDFCAB77AA76A975A8741206E0F8
:1000DE00EF2450F577EE345AF576ED341E0202E831
:1000EE00AB70AA71A972120676F57890000112060D
:1000FE008FF579E578C394A1400EE578D394AB5093
:10010E0007E579C394A1501EE578C394A850030265
:10011E000216E578D394A94003020216E579C3943A
:10012E00A14003020216E578C394A1402DE578D3D1
:10013E0094AB5026E579C394A1401FE578245FFF68
:10014E00E434FFFE7C007D5E1206CEE579245FFD71
:10015E00EC34FFCD2FFFED3E8020E579D3947F4028
:10016E00021579AF787E007C007D601206CEEF25F9
:10017E0079FFEC3ECF240ECF34C4FEE48F778E761B
:10018E00F575F574E573B40C11E47F18FEFDFCAB48
:10019E0077AA76A975A8740206E0E573B4101EE47A
:1001AE007F20FEFDFCAB77AA76A975A8741206E037
:1001BE00EF24D0FFEE34C9FEED34028043E573B474
:1001CE00181EE47F48FEFDFCAB77AA76A975A874CD
:1001DE001206E0EF2490FFEE3481FEED340680200F
:1001EE00E573B42020E47F80FEFDFCAB77AA76A9F0
:1001FE0075A8741206E0E42FFFEE34DFFEED340E28
:10020E00FDE43CFC220202F0E578C394B04035E5F3
:10021E0078D394F7502EE579C394A14027E578243E
:10022E0050FFE434FFFE7C007D5E1206CEE579249D
:10023E005FFDEC34FFCD2FFFED3EFEE48F778E7623
:10024E00F575F574E573B40C25E577244EFFE57668
:10025E003403FEE43575FDE43574FCE47B18FAF9DD
:10026E00F81206E08F778E768D758C74807AE57332
:10027E00B41020E47F20FEFDFCAB77AA76A975A80A
:10028E00741206E0EF2490F577EE3433F576ED3404
:10029E00038047E573B41820E47F48FEFDFCAB777E
:1002AE00AA76A975A8741206E0EF2480F577EE34CD
:1002BE006FF576ED34078022E573B42025E47F8058
:1002CE00FEFDFCAB77AA76A975A8741206E0E42FA2
:1002DE00F577EE3486F576ED3410F575E43CF5746D
:1002EE008006E4FFFEFDFC22AF77AE76AD75AC74F2
:0102FE0022DD
:0D0B9F00E4F5C7F5C5F5C675C380F5C422A1
:100B560075C78375C5018FC48EC375C65A75C6A57C
:060B660000AFC2120B9F5C
:010B6C002266
:100B6D0075C78375C5028FC48EC38DC275C65A7580
:060B7D00C6A500020B9F5B
:10000E0075C78375C5038FC48EC375C65A75C6A5CD
:04001E0000020B9F32
:10046C00024A000060CC03250000000000000000E0
:10047C000000000000000000000000000000000070
:10048C000000000000000000000000000000000060
:10049C000000000000000000000000000000000050
:1004AC000000000000000000000000000000000040
:1004BC000000000000000000000000000000000030
:1004CC000000000000000000000000000000000020
:1004DC000000000000000000000000000000000010
:1004EC000000000000000000000000000000000000
:1004FC0000000000000000000000000000000000F0
:10050C0000000000000000000000000000000000DF
:10051C0000000000000000000000000000000000CF
:10052C0000000000000000000000000000000000BF
:10053C0000000000C103C106C102016002014900B4
:10054C00012420C188C181104C000102030405065E
:10055C000708090A0B0C0D0E0F012500202126BBE4
:10056C00B6D3ADC4FACAB9D3C3BFF3B5C6B3E4B5F9
:10057C00E7BCDCD6C7C4DCB9DCC0EDCFB5CDB3006D
:100B3E007E08EFC4131313540113B392A5C2A7D2A8
:070B4E00A7EF25E0FFDEEB3D
:010B5500227D
:03000B00020A0DD9
:100A0D00C0E0C083C082C0D075D008758CFC758ADB
:100A1D006620063A0523E52370020522C394E8E516
:100A2D002264809483400E752200752300055FE5D6
:100A3D005F7002055E900003E0FFC3E55F9F748069
:100A4D00F8655E984008755E00755F00D20620055A
:0C0A5D0002D205D0D0D082D083D0E0328D
:10091A0030017C200279300576E4F55D75F020E53A
:10092A005DA4255CF582E435F0F583E58224CCF5F7
:10093A0082E5833400F583E0FF120B3E75F020E573
:10094A005DA4255CF582E435F0F583E58224CDF5D6
:10095A0082E5833400F583E0FF120B3E055DE55D19
:10096A00C3941040B7C2A6D2A6744C2525F8E6FF58
:10097A00E5A054F04FF5A00525055C055CE525B416
:10098A001003E4F525E55CB42003E4F55CC2052216
:0A0BC400AF99BFF003D38001C322F4
:0300230002058D46
:10058D00C0E0C0F0C083C082C0D075D000C006C02E
:10059D0007209803020662C298120BC450099003FB
:1005AD00247405F0020667900324E0FFB40513E5FB
:1005BD0099B401067406F0020667900324E4F00274
:1005CD000667EFB40613E599900324B40306740788
:1005DD00F0020667E4F0020667EFB4071EE5999096
:1005ED000324B405127404F0754A00754B00900095
:1005FD0002E4F0D2028063E4F0805FEF6404705A8D
:10060D00B2B5054BE54BAE4A7002054A142404F50C
:10061D008274003EF583E599F0E54B6402454A701E
:10062D000F900004E0C45400FFA3E02F900002F0EF
:10063D00900002E075F020A42402FFE435F0FEEFF7
:10064D0025E0FFEE33FEC3E54B9FE54A9E400BD2FE
:10065D00B5D2038005309902C299D007D006D0D00B
:09066D00D082D083D0F0D0E0323D
:100AF000C2B6C2B7438901758CFF758AD2D2A9D21A
:100B00008C759850438920758DFD758BFDD28E753F
:100B1000B810D2ACD2AAD28AD2AF120003C200223D
:10099A00E4FFFE12000E900001E0FD7F107E0012BF
:1009AA000B6D900003E0FD7F067E00120B6DE4F5EF
:1009BA0061900001E0FFE561C39F5046E4F562E5FE
:1009CA006175F020A42400FFE5F03401FE7C00EFFD
:1009DA002562FFEC3EFEE56175F022A42425F5822E
:1009EA00E43403F583E5822562F582E43583F583F1
:1009FA00E0FD120B6D0562E562C3942040C10561FA
:020A0A0080AFBB
:010A0C0022C7
:100742007F02900002E0900001F00F74042402F591
:1007520082E43400F583E0540FC454F0FE0F7404B5
:100762002403F582E43400F583E0540F2EFEE4FD09
:10077200900001E0FCEDC39C5063E4FCAB070F74F6
:10078200042BF582E43400F583E0540FC454F0FBEB
:10079200ED75F022A42425F582E43403F583E58285
:1007A2002CF582E43583F583EBF0AB070F74042B51
:1007B200F582E43400F583E0540FFBED75F022A4DA
:1007C2002425F582E43403F583E5822CF582E435B1
:1007D20083F583E02BF00CBC20A20D8093C2029023
:0E07E2000003EEF012099AD206D209020BAC07
:1007F0007F107E00120B56900001EFF0BFFF2874AF
:1008000001F0900003740AF0E4F56274262562F8A2
:10081000E6FF74252562F582E43403F583EFF005E5
:1008200062E562B420E5227F067E00120B5690003E
:1008300003EFF0BFFF03740AF0E4F561900001E0FC
:10084000FFE561C39F5046E4F562E56175F020A4C1
:100850002400FFE5F03401FE7C00EF2562FFEC3E52
:10086000FE120B56E56175F022A42425F582E434CE
:1008700003F583E5822562F582E43583F583EFF0A5
:0D0880000562E562C3942040C1056180AFB0
:01088D002248
:0602FF008B618A62896335
:10030500E4F564F565F566F567F568F5697E037FDF
:10031500589000CCE4F0A3DFFCDEFA7E027F58C3E0
:10032500E5679410E5669400400302046BAB61AA8F
:1003350062A96385658285648312068F7003020452
:100345006BE92565F9EA3564FA7D101200268F6D93
:100355008E6C8D6B8C6AAB61E5632565F9E562355D
:1003650064FA120A697568008F69E5692565F5659E
:10037500E5683564F564C2937F03120BB9AF6DAEC2
:100385006CAD6BAC6A781012072FE4120BB9AF6D28
:10039500AE6CAD6BAC6A780812072FE4120BB9AFDF
:1003A5006DE4120BB9E569640245687046F56EF5B2
:1003B5006FC3E56F9524E56E9400400302045B303E
:1003C500020302046B120B91AB07AF247E00AC66EF
:1003D500AD671206CEE56F2FFFE56E3EFE74CC2F9E
:1003E500F58274003EF583EBF0056FE56F70C2058D
:1003F5006E80BEE56964014568705BF56EF56FE575
:1004050024C313FFC3E56F9FE56E94005048200297
:1004150055120B91AB07AF247E00AC66AD67120693
:10042500CEAC06AD07E56F25E0FFE56E33FEED2F9B
:10043500FFEC3EFE74CC2FF58274003EF583EBF0A5
:1004450074CD2FF58274003EF583E4F0056FE56FFA
:1004550070AD056E80A9D2930567E5676003020359
:06046500240566020324D9
:01046B00226E
:100AB00020073C200239C201900001E0FFD39400DE
:100AC000402B300A07E4900000F0800C900000E01A
:100AD00004F08FF084E5F0F0900000E075F022A4BF
:100AE0002425F9740335F0FA7B011202FFD20122AA
:0E0B830030030AC203E4900324F0120742225A
:0D0BAC00300609C206A209920A120AB02200
:100B2000E4F59575960F1207F0120AF0D20A120A30
:0E0B3000B012091A120B83C209120BAC80F32B
:0700030075CED075CDC022BF
:0B0BB9008FCFE5CD30E7FB75CDC022EB
:0D0B9100E4F5CFE5CD30E7FBAFCF75CDC06B
:010B9E002234
:0300000002088E65
:0C088E00787FE4F6D8FD7581790208D56A
:10067600BB010689828A83E0225002E722BBFE0282
:09068600E32289828A83E49322B5
:10068F00BB010CE58229F582E5833AF583E0225020
:10069F0006E92582F8E622BBFE06E92582F8E2226A
:0D06AF00E58229F582E5833AF583E4932284
:1006BC00BB010689828A83F0225002F722BBFE011D
:0206CC00F32217
:1006CE00EF8DF0A4A8F0CF8CF0A428CE8DF0A42E40
:0206DE00FE22FA
:1006E000E88FF0A4CC8BF0A42CFCE98EF0A42CFCB9
:1006F0008AF0EDA42CFCEA8EF0A4CDA8F08BF0A437
:100700002DCC3825F0FDE98FF0A42CCD35F0FCEB95
:100710008EF0A4FEA9F0EB8FF0A4CFC5F02ECD395A
:0F072000FEE43CFCEAA42DCE35F0FDE43CFC22C7
:10072F00E8600FECC313FCED13FDEE13FEEF13FFA8
:03073F00D8F122CC
:10089A00020B20E493A3F8E493A34003F68001F249
:1008AA0008DFF48029E493A3F85407240CC8C3335F
:1008BA00C4540F4420C8834004F456800146F6DF2E
:1008CA00E4800B010204081020408090046CE47E4E
:1008DA00019360BCA3FF543F30E509541FFEE49323
:1008EA00A360010ECF54C025E060A840B8E493A3EA
:1008FA00FAE493A3F8E493A3C8C582C8CAC583CA15
:10090A00F0A3C8C582C8CAC583CADFE9DEE780BECC
:01058C00006E
:00000001FF
