:100B9A00D0D5C3FBA3BA00B2BFC3C5A3BA00B9A4D8
:100BAA00D6D6A3BA00B5D8D6B7C9E8D6C300C1C14C
:100BBA00B6C8C9E8D6C300BAECCDE2C9E8D6C300C4
:100BCA00BAECCDE200C9E8D6C300C9E8D6C3CDEA7B
:100BDA00B1CF2100C4A3C4E2C1BFA3BA0000000080
:100BEA0000000000003031323334353637383941AD
:050BFA004243444546A2
:10068300490000FF0B9AFF0BA1FF0BA8490009FFCC
:100693000BAFFF0BB8FF0BC15B0042000000000073
:1006A3000000000000000000000000000000000047
:1006B300000000000000013900014600012500018F
:1006C3004200014400014E00014B00C101C10BC1B6
:1006D30007C102C105C104C109C108C106602000E8
:1006E300BD03C003C00FF00FF00FF00FF00FF00FBA
:1006F300F00FF00FF00FF00FF00FF00FF00FF00FFF
:10070300F06020005D03C003C00FF008100810085C
:10071300100810081008100FF00FF00FF00FF00F73
:10072300F00FF00FF06020009D03C003C00FF0082E
:1007330010081008100810081008100810081008F6
:10074300100810081008100FF06020007D03C0038C
:10075300C00FF00810081008100C300A5009900957
:10076300900A500C300810081008100FF0014500D3
:10077300014F00012300014100073A00000000007F
:0B0783000000077100000000000000F3
:0511C2001210B27F32A3
:0311C700DFFE2226
:10000E00AE07AF061EEF600C7FF51211C77FF5121B
:05001E0011C780EE2275
:10117B00C2A0D2A1D2A27580FFE58020E7FBC2A25C
:01118B002241
:0710AB007F301210B27F40FC
:1010B20012117BC2A0C2A1D2A28F807F051211C7DA
:0710C200C2A27F050211C765
:0510C9003EF583E0FF8D
:1010CE0012117BD2A0C2A1D2A28F807F051211C7AE
:0710DE00C2A27F050211C749
:100E69001210ABE4FDFCED25E0FFEC33FE74BD2F61
:100E7900F58274001210C9ED25E0FFEC33FE74BE53
:100E89002FF58274001210C90DBD00010CED64101C
:030E99004C70D3C7
:010E9C002233
:100E9D001210ABE4FDFCED25E0FFEC33FE745D2F8D
:100EAD00F58274001210C9ED25E0FFEC33FE745E7F
:100EBD002FF58274001210C90DBD00010CED6410E8
:030ECD004C70D393
:010ED00022FF
:100ED1001210ABE4FDFCED25E0FFEC33FE749D2F19
:100EE100F58274001210C9ED25E0FFEC33FE749E0B
:100EF1002FF58274001210C90DBD00010CED6410B4
:030F01004C70D35E
:010F040022CA
:100F05001210ABE4FDFCED25E0FFEC33FE747D2F04
:100F1500F58274001210C9ED25E0FFEC33FE747EF6
:100F25002FF58274001210C90DBD00010CED64107F
:030F35004C70D32A
:010F38002296
:100FD200AE07ED24FE600F14601114601324037039
:100FE20016EE2480800DEE24908008EE2488800383
:100FF200EE2498FF1210B2E4FF1210CEE4FF0210AA
:01100200CE1F
:100C5F00E54F25E0243BF8E624D975F00A84E5F04A
:0D0C6F002430F67A00793A7B007D037F0384
:100C7C00AE07ED24FE600F14601114601324037092
:100C8C0016EE2480800DEE24908008EE24888003DC
:100C9C00EE2498FF1210B21205EFFFD3940040110E
:100CAC001210CE740129F9E43AFA7F321211C7807E
:020CBC00E6222E
:100F3900AE07AC03ED24FE600F1460111460132496
:100F4900037016EE2480800DEE24908008EE24882C
:100F59008003EE2498FF1210B2AF041210CE7F3234
:030F69000211C7AB
:10106100AE07ED24FE600F146011146013240370A9
:1010710016EE2480800DEE24908008EE24888003F3
:08108100EE2498FF1210B222C8
:0A11A5007F011210B27F0F02000E4E
:040D6300AB05AA072B
:100D6700AF4E7E007C037DE81206088D4EE54E757A
:100D7700F064842430F50DE54E75F06484E5F07574
:100D8700F00A842430F50EE54E75F00A84E5F02468
:100D970030F50FE4F510AF02AD03FB7A00790D02D1
:020DA7000C7CC2
:100CBE00E4F509F50AF50BF50C20054F1211A5E424
:100CCE00F508E50875F003A42400F582E43400F578
:100CDE0083E0FBA3E0FAA3E0F9E50804FDE4FF12CC
:100CEE000C7CE50875F009A42442F9740035F0FA7D
:100CFE007B01E50804FD7F03120C7C0508E508C3A3
:0B0D0E00940340BE7D017F06120D63C0
:010D190022B7
:0D103400E4F5451211CAC2051211A5D20C37
:10104100E54C601B200518200C0330060630080310
:10105100120CBE200C033006062008031211A52233
:1009B200E53D24D075F00AA4FFE53B24D075F06430
:0A09C200A42FFFE53F24D02FF54ECF
:1009CC00E4FFFE121167AD4EE4FFFE121114AD43AD
:1009DC007F027E00121114754C01AD4C7F047E0019
:1009EC00121114E4F508E4F509E50875F008A424DF
:1009FC0008FFE435F0FE7C00EF2509FFEC3EFEE538
:100A0C000875F009A42442F582E43400F583E582EC
:100A1C002509F582E43583F583E0FD1211140509EF
:100A2C00E509C3940840C20508E508C3940340B621
:010A3C002297
:100ABF00E4FF300B6DC20BFEE4FDAC070F74122C7C
:100ACF00F582E43400F583E0C454F0FCEE75F009D0
:100ADF00A42442F582E43400F583E5822DF582E407
:100AEF003583F583ECF0AC070F74122CF582E434E8
:100AFF0000F583E0540FFCEE75F009A42442F58253
:100B0F00E43400F583E5822DF582E43583F583E047
:100B1F002CF00DBD08A40EBE039ED20C1210411274
:020B2F0009CCEF
:010B310022A1
:0A11AF00D2B78F99C2993099FD2242
:10112A00EFC3943250037F0122EFC394C850037F68
:05113A0002227F0322E8
:0300230002086E62
:10086E00C0E0C083C082C0D075D000C007209803FE
:10087E0002090CC298E5995480602224806003021C
:10088E00091BAF99EF2480600F24C0600302091B7F
:10089E0020057A75420380757542048070E5421416
:1008AE00603D24FD6014047064E599B54E0AB29360
:1008BE007542017544008055801EE599B54E19B2FA
:1008CE0093754202C292AF3912112AEF4450FF12B1
:1008DE0011AFD292D2938035754200D293802EAF53
:1008EE0044054474122FF582E43400F583E599F043
:1008FE00E544B43018D293754200D20B800F309974
:10090E000CC299E542B40203754200C2B7D007D0BB
:08091E00D0D082D083D0E0327A
:100BFF00C2B7759850438920758DFD758BFDD28EC8
:100C0F00759D03E4F5BD75BC8075B810D2ACD2AF3D
:100C1F007F2812000ED2A37F0112000EC2A47F0103
:100C2F0012000ED2A47F0A12000E7F301211C27F63
:100C3F00301210B27F141211C77F0C1211C27F0134
:100C4F001210B27F0F12000E7F061211C2C20122C4
:100F6C00753A20E54E75F064842430F53B753C20D1
:100F7C00E54E75F06484E5F075F00A842430F53D97
:100F8C00753E20E54E75F00A84E5F02430F53FE41B
:030F9C00F54022FB
:100F9F00757120E54375F064842430F57275732004
:100FAF00E54375F06484E5F075F00A842430F57438
:100FBF00757520E54375F00A84E5F02430F576E485
:030FCF00F5772291
:10113F00D209D288D2A8438901758CFFE4F58AD2EF
:04114F00A9D28C2273
:0911B900C209C2A8C28CC2A9221D
:0711CA003009031211B922E4
:100D1A00AC071211A530090D7BFF7A0B79CA7D0148
:100D2A00E4FF120C7C7BFF7A0B79CF7D017F0312E3
:100D3A000C7CEC75F003A42409F582E43400F583F5
:100D4A00E0FBA3E0FAA3E0F90D7F02120C7C300C61
:090D5A00077B1A7F01120F3922F8
:0711D100D20CAF41020D1A20
:100B3200EF14602514604D2402705C754501E4F5E4
:100B42004FD20CAF41120D1A120F6C120C727B1A9B
:100B52007F02120F39E54F8020754504E4F523C268
:100B62000CAF41120D1A120F9F7A007971120C7696
:100B72007B1A7F02120F39E5232403FF1210617FD3
:100B82000F0210B2E4F545B20930090512113F8097
:080B9200031211B91211D12266
:1002A80020B5227F0A12000E20B51A30B5FD2005B0
:1002B80011D205D20912113FE4F545F5411211D1C9
:1002C80080031210342094637F0A12000E20945B7E
:1002D8003094FD200507D205E4F545803AE545B49C
:1002E80002057545018044E545B4010DE4F5457FF7
:1002F8000C1210B2E4F541801EE545B403028021DA
:10030800E545B405057545048021E545B4040DE4CB
:10031800F5457F0C1210B21211D1800FE545B406D5
:1003280007AF41120B3280031210343095030203D9
:10033800BC7F0A12000E20957B3095FDE5457008BC
:10034800AF41120B320203BCE545B4010575450205
:100358008062E5456402701A1209B27F0C1210B26D
:100368007BFF7A0B79D47D047F02120C7C754503E0
:100378008042E545B404057545058038E5456405C2
:100388007032E57424D075F00AA4FFE57224D075A4
:10039800F064A42FFFE57624D02FF5431209CC7F13
:1003A8000C1210B27BFF7A0B79D47D047F02120CF9
:1003B8007C7545063096030204587F0A12000E30F9
:1003C80096030204583096FD200503020458E545BB
:1003D8007015E541240275F0038485F041D20CAF15
:1003E80041120D1A020458E545B4010FE54F2402E5
:1003F80075F0038485F04FE54F801FE54564027072
:1004080007120C5FE54F803DE545B40414E523244D
:100418000275F0038485F023E5232403FF7D038020
:1004280027E54564057029E52325E02472F8E624CC
:10043800D975F00A84E5F02430F67B007A007971EA
:10044800120C78E5232403FF1210617F0F1210B2FB
:100458003097030204F87F0A12000E309703020453
:10046800F83097FD2005030204F8E5457011E541D1
:100478000475F0038485F041D20CAF41020D1AE5F2
:1004880045B4010EE54F0475F0038485F04FE54F40
:100498008028E54564027011E54F25E0243BF8E625
:1004A80024D1120C69E54F803CE545B40413E523DB
:1004B8000475F0038485F023E5232403FF7D03807E
:1004C80027E54564057029E52325E02472F8E6242C
:1004D800D175F00A84E5F02430F67B007A00797152
:1004E800120C78E5232403FF1210617F0F1210B25B
:0104F80022E1
:10078F0078087C007D007BFF7A0B79E77E007F0481
:10079F001205C9780C7C007D007BFF7A0B79EB7E0C
:1007AF00007F041205C930050302086D20080302FB
:1007BF00086D30076FC207E53975F064842430F592
:1007CF0008E53975F06484AFF0EF75F00A842430D2
:1007DF00F509EF75F00A84E5F02430F50AE4F50B1E
:1007EF007BFF7A0B79DE7D04FF120C7C7B007A0095
:1007FF0079087F05120C7CAF3912112AEF24FE60A5
:10080F000F14601114601324037012120ED1800D97
:10081F00120E9D8008120E698003120F057D047F52
:10082F0007120FD2300237C202E52575F064842417
:10083F0030F50CE52575F06484AFF0EF75F00A84A0
:10084F002430F50DEF75F00A84E5F02430F50EE451
:0E085F00F50FFB7A00790C7D037F06120C7CEE
:01086D002268
:100A3D00E4FFFE1210FD8F4EE54EB4FF03E4F54EBC
:100A4D007F027E001210FD8F43E543B4FF03754313
:100A5D00647F047E001210FD8F4CE54CD394014051
:100A6D0003E4F54CE4F508E4F509E50875F008A490
:100A7D002408FFE435F0FE7C00EF2509FFEC3EFE77
:100A8D001210FDE50875F009A42442F582E4340046
:100A9D00F583E5822509F582E43583F583EFF005CD
:100AAD0009E509C3940840C20508E508C39403404D
:010ABD00B682
:010ABE002215
:1010E500C20DEF4488F5BC200D08E5BCA2E4920DC5
:0710F50080F5AFBD75BC00E2
:0110FC0022D1
:100E2E00A208920CE4FF1210E58F39D2077F6412EC
:100E3E00000E7F011210E58F25D202E525D39543D2
:100E4E004004D2088002C208A208300C01B350043C
:0B0E5E00D2068002C2067F6402000E74
:100DA900EF12065D0DDB080DD20C0DCF160DD5180F
:100DB9000DDE1C0DE4420DEA4A0DE7520DE15A0D14
:100DC900D85E00000DEC7F00227F01227F02227F86
:100DD90003227F04227F05227F06227F07227F08C4
:040DE900227F09223A
:03000300020DEDFE
:090DED00C0E0C0D075D000C000C8
:100DF600300029E528C3943F500AE528C3942140D2
:100E06000375220074502522F8A6287528000522AD
:100E1600E522B4210CD2037522008005752800D284
:010E260000CB
:070E2700D000D0D0D0E03272
:100026002009030202A7E54912065D012E07024BCD
:100036000801DB09024B0C00DA15024B16024B18BD
:10004600024B1C009740024B42006B44019745014E
:100056009746019747024B4A024B52024B5A024BB4
:100066005E000002A7E5457002806DE5456401600B
:1000760005E545B40206E54F2402802AE5456404F9
:100086006009E545640560030202A7E523240280B2
:1000960032E5457003020132E54564016005E54538
:1000A600B4020EE54F0475F0038485F04FE54F80EA
:1000B6001BE54564046009E545640560030202A783
:1000C600E5230475F0038485F023E5232403FF7DEF
:1000D6000302029FE5457006E54124028051E5458D
:1000E60064016006E5456402700B120C5FE54F245F
:1000F60003FF02029FE54564046009E54564056067
:10010600030202A7E52325E02472F8E624D975F058
:100116000A84E5F02430F67B007A007971120C78B7
:10012600E5232403FF02029FE5457011E5410475AE
:10013600F0038485F041D20CAF41020D1AE5456407
:10014600016006E54564027015E54F25E0243BF89D
:10015600E624D1120C69E54F2403FF02029FE54510
:1001660064046009E545640560030202A7E52325EA
:10017600E02472F8E624D175F00A84E5F02430F61E
:100186007B007A007971120C78E5232403FF0202C2
:100196009FE545B4020475450122E545B401028098
:1001A60015E545B403028031E545B40504754504FB
:1001B60022E545B4040BE4F5457F0C1210B202119A
:1001C600D1E545B406028011E4F5451211CAC2050F
:1001D600D20C021041E5457005AF41020B32E545F0
:1001E60064016006E545640270191209B27F0C12BB
:1001F60010B27BFF7A0B79D47D047F02120C7C75DA
:10020600450322E54564046009E54564056003028B
:1002160002A7E57424D075F00AA4FFE57224D07510
:10022600F064A42FFFE57624D02FF5431209CC7F86
:100236000C1210B27BFF7A0B79D47D047F02120C6C
:100246007C75450622E54564016006E54564027055
:100256001CAF49120DA9EF2430FFE54F25E0243BE2
:10026600F8A607120C72E54F2403FF802CE54564BF
:10027600046006E54564057028AF49120DA9EF2410
:1002860030FFE52325E02472F8A6077B007A007983
:1002960071120C78E5232403FF1210617F0F1210F0
:0202A600B22282
:101003007E01E4FD7C0174502EF8E6D3940740037F
:10101300430780ECC394085004EFC313FF0E0CBCCA
:1010230009E474472DF8A607E4FF0DBD04D6D20AE0
:01103300229A
:10115300300910300305121003C203300A051200D0
:0411630026C20A2274
:03000B0002119946
:0C119900300908758CFF758A00052832AB
:10108900120A3D120BFF752701752601120E2E1249
:101099000ABFC20C12104112078F1202A812115373
:0210A90080E4E1
:0D118C00E4F5C7F5C5F5C675C380F5C422AE
:1010FD0075C78375C5018FC48EC375C65A75C6A5D0
:06110D0000AFC212118CBC
:0111130022B9
:1011140075C78375C5028FC48EC38DC275C65A75D3
:06112400C6A50002118CBB
:1011670075C78375C5038FC48EC375C65A75C6A563
:041177000002118CD5
:03000000020926CC
:0C092600787FE4F6D8FD75817702096D3A
:1004F900E709F608DFFA8046E709F208DFFA803EE5
:1005090088828C83E709F0A3DFFA8032E309F608D1
:10051900DFFA8078E309F208DFFA807088828C8339
:10052900E309F0A3DFFA806489828A83E0A3F608ED
:10053900DFFA805889828A83E0A3F208DFFA804CC7
:1005490080D280FA80C680D4806980F2803380109E
:1005590080A680EA809A80A880DA80E280CA803307
:1005690089828A83ECFAE493A3C8C582C8CCC5837F
:10057900CCF0A3C8C582C8CCC583CCDFE9DEE7804F
:100589000D89828A83E493A3F608DFF9ECFAA9F0CE
:10059900EDFB2289828A83ECFAE0A3C8C582C8CC24
:1005A900C583CCF0A3C8C582C8CCC583CCDFEADE3D
:1005B900E880DB89828A83E493A3F208DFF980CC9F
:1005C90088F0EF60010E4E60C388F0ED2402B40498
:1005D9000050B9F582EB2402B4040050AF2323453F
:0605E90082239005497316
:1005EF00BB010689828A83E0225002E722BBFE020A
:0905FF00E32289828A83E493223D
:10060800BC000BBE0029EF8DF084FFADF022E4CCD6
:10061800F875F008EF2FFFEE33FEEC33FCEE9DEC9F
:10062800984005FCEE9DFE0FD5F0E9E4CEFD22EDE5
:10063800F8F5F0EE8420D21CFEADF075F008EF2F2F
:10064800FFED33FD4007985006D5F0F222C398FD20
:050658000FD5F0EA22BD
:10065D00D083D082F8E4937012740193700DA3A32C
:10066D0093F8740193F5828883E473740293686040
:06067D00EFA3A3A380DF40
:10093200021089E493A3F8E493A34003F68001F242
:1009420008DFF48029E493A3F85407240CC8C333C6
:10095200C4540F4420C8834004F456800146F6DF95
:10096200E4800B0102040810204080900683E47E9C
:10097200019360BCA3FF543F30E509541FFEE4938A
:10098200A360010ECF54C025E060A840B8E493A351
:10099200FAE493A3F8E493A3C8C582C8CAC583CA7C
:1009A200F0A3C8C582C8CAC583CADFE9DEE780BE34
:01078E00006A
:00000001FF
