:0720380075CED075CDC0226A
:0B2009008FCFE5CD30E7FB75CDC02286
:0D1FE000E4F5CFE5CD30E7FBAFCF75CDC008
:011FED0022D1
:0B1A4C0090020DEBF0A3EAF0A3E9F01C
:101A570090020DE0FBA3E475F0011208C5A9F0FAA6
:101A67001207F0FFC3942050037F0022EFC3948036
:101A770050037F012290020DE0FBA3E475F00112F1
:101A870008C5A9F0FA1207F0FEEFB48106EEC39479
:0C1A9700395004EFB482037F04227F0268
:011AA3002220
:10039700900210EDF090020DEBF0A3EAF0A3E9F064
:1003A7001207F0FFC394804003020499EFC394201F
:1003B700501090020DE0FBA3E0FAA3E0F9742012BD
:1003C700083690020DE0FBA3E0FAA3E0F91207F06C
:1003D70024E0FFE434FFFEE4FCFD90021112093D26
:1003E700900210E0B40812A3E0FCA3E0FDA3E0FE36
:1003F700A3E0FFE47B08020650900210E0B40C1261
:10040700A3E0FCA3E0FDA3E0FEA3E0FFE47B0C0276
:100417000650900210E0B41023E47F10FEFDFCA309
:10042700E0F8A3E0F9A3E0FAA3E0FB1208DBEF246E
:10043700CCFFEE347FFEED341A020680900210E006
:10044700B41822E47F30FEFDFCA3E0F8A3E0F9A393
:10045700E0FAA3E0FB1208DBE42FFFEE34FFFEED2A
:10046700341D020680900210E0642060030206EB50
:100477007F40FEFDFCA3E0F8A3E0F9A3E0FAA3E0C8
:10048700FB1208DBEF2450FFEE345AFEED341E0258
:10049700068090020DE0FBA3E0FAA3E0F91207F053
:1004A700FF900215F0900001120809900216F0EF74
:1004B700C394A14010900215E0D394AB5007A3E07A
:1004C700C394A15020900215E0FFC394A8500302E3
:1004D70005EFEFD394A940030205EFA3E0C394A16E
:1004E70040030205EF900215E0FFC394A1402EEFF1
:1004F700D394AB5028A3E0FBC394A14020900215EE
:10050700E0245FFFE434FFFE7C007D5E120848EBC9
:10051700245FFDEC34FFCD2FFFED3E8026900216C1
:10052700E0D3947F4003E014F0900215E0FF7E00D3
:100537007C007D60120848A3E02FFFEC3ECF240E1D
:10054700CF34C4FEE4FD90021112093D900210E081
:10055700B40C15E47F18FEFDFCA3E0F8A3E0F9A3B3
:10056700E0FAA3E0FB0208DB900210E0B41022E4FB
:100577007F20FEFDFCA3E0F8A3E0F9A3E0FAA3E0E7
:10058700FB1208DBEF24C0FFEE34F4FEED340580E8
:100597004F900210E0B41822E47F48FEFDFCA3E070
:1005A700F8A3E0F9A3E0FAA3E0FB1208DBEF24903D
:1005B700FFEE3481FEED34068026900210E0B42071
:1005C70024E47F80FEFDFCA3E0F8A3E0F9A3E0FAB2
:1005D700A3E0FB1208DBE42FFFEE34DFFEED340E61
:1005E700FDE43CFC220206E5900215E0FFC394B04F
:1005F7004035EFD394F7502FA3E0FBC394A14027D6
:10060700900215E02450FFE434FFFE7C007D5E126B
:100617000848EB245FFDEC34FFCD2FFFED3EFEE4F1
:10062700FD90021112093D900210E0B40C24A3E0E2
:10063700FCA3E0FDA3E0FEA3E0244EFFEE3403FE9F
:10064700E43DFDE43CFCE47B18FAF9F81208DB0210
:1006570006DD900210E0B41026E47F20FEFDFCA327
:10066700E0F8A3E0F9A3E0FAA3E0FB1208DBEF242C
:1006770080FFEE3447FEED3406FDE43CFC805790E6
:100687000210E0B41826E47F48FEFDFCA3E0F8A3BF
:10069700E0F9A3E0FAA3E0FB1208DBEF2480FFEE0A
:1006A700346FFEED3407FDE43CFC802A900210E035
:1006B700B4202BE47F80FEFDFCA3E0F8A3E0F9A3C0
:1006C700E0FAA3E0FB1208DBE42FFFEE3486FEED31
:1006D7003410FDE43CFC90021112093D8006E4FF52
:1006E700FEFDFC22900211E0FCA3E0FDA3E0FEA3C7
:0206F700E0FF22
:0106F90022DE
:0D1FFC00E4F5C7F5C5F5C675C380F5C42230
:101F190075C78375C5018FC4EEF5C375C65A75C6F5
:071F2900A500AFC2121FFC6E
:011F3000228E
:101F000075C78375C5028FC4EEF5C3AF058FC27563
:091F1000C65A75C6A500021FFCAB
:10000E0075C78375C5038FC4EEF5C375C65A75C61D
:05001E00A500021FFC1B
:10096F0060200000000000000000000000000000F8
:10097F000000000000000000000000000000000068
:10098F0000000000602000200101010101010101B0
:10099F000101010101010101000000000000000040
:1009AF000000000000000000602000E700000000D1
:1009BF00FCFCFFFFFFFFFCFC00000000000000003C
:1009CF00FFFFFFFFFFFFFFFF000000006020006739
:1009DF0000000000FC040707070704FC00000000EC
:1009EF0000000000FFFFFFFFFFFFFFFF0000000000
:1009FF00602000C700000000FC040707070704FC85
:100A0F000000000000000000FF808080808080FFD9
:100A1F00000000006020008700000000FC244787D2
:100A2F00874724FC0000000000000000FF84828143
:100A3F00818284FF00000000602000A780808080FA
:100A4F00808080808080808090A0C0800000000027
:100A5F0000000000000000000402010043004000FD
:0A0A6F000000410043004100440074
:101DC200FFE025E024B8FDEE2DFD121D537F647E59
:101DD20000121DE99001F2E09001F0FFE02440FDC5
:071DE200121D537F647E0017
:101DE900E4FDFCC3ED9FEC9E50070DBD00010C8086
:011DF900F2F7
:011DFA0022C6
:091D4A007F01121D537D407F0151
:101D5300AB05AA077FC87E00121DE9C2A5EAB4013C
:101D630009D2A0121DE9C2A1800BC2A07FC87E00C8
:101D7300121DE9D2A1121DE9C2A4C2A3D2A5AF03C9
:051D83008F80C2A522C3
:101BF1009001F2E09001ECFFE0FBA3E0FAA3E0F931
:041C01001207F0FDD9
:101C0500AB05AA077FC87E00121DE9C2A5EAB4018B
:101C150009D2A0121DE9C2A1800BC2A07FC87E0017
:101C2500121DE9D2A1121DE9D2A4C2A3D2A5AF0308
:051C35008F80C2A52212
:051B51009001EFEFF030
:101B56007DC07F01121D537DC07F02121D53E4F923
:101B6600E924B8FD121D4AE924B8FD7F02121D536F
:101B76007D407F02121D53E49001F0F09001EFE0EA
:101B8600FD7F01121C05E0FD7F02121C05A3E00487
:0C1B9600F0E0C3944040E509E9B408C445
:011BA2002220
:101C3A00C2A27FE87E03121DE9D2A2121DE97D3FEE
:101C4A007F01121D537DC07F01121D537FE87E0361
:101C5A00121DE97D3F7F02121D537DC07F02121DB6
:101C6A0053E4FF121B517DB8121D4A7DB87F021240
:091C7A001D537D407F02021D5341
:0B0DF4009001FFEBF0A3EAF0A3E9F090
:100DFF00E4A3F0A3F0A37420F07D101203979002E8
:100E0F000512093D9001FFE0FBA3E0FAA3E0F91200
:100E1F001A4C900203EFF0C2937F03122009900245
:100E2F0005E0FCA3E0FDA3E0FEA3E0FF78101209AC
:100E3F002AE4122009900205E0FCA3E0FDA3E0FEE6
:100E4F00A3E0FF780812092AE4122009900205E0B6
:100E5F00FCA3E0FDA3E0FEA3E0FFE4122009900253
:100E6F0003E0B4022CE4900202F0900204E0FF9041
:100E7F000202E0C39F5060121FE0900202E024477D
:100E8F00F582E43400F583EFF0900202E004F08085
:100E9F00D9900203E06401703E900202F0900204C8
:100EAF00E0C313FF900202E0C39F502B121FE0908C
:100EBF000202E0FE25E02447F582E43400F583EFDB
:100ECF00F0EE25E02448F582E43400F583E4F09059
:090EDF000202E004F080C6D29387
:010EE80022E7
:081249009001F6EFF0A3EDF0B7
:10125100120DF49001F87401F0A37400F0A3744727
:10126100F09001F7E0FFC394049001FE5006740171
:10127100F0EF80097402F09001F7E024FCC454F00F
:101281009001FCF0E49001FDF09001FDE0FEC394BB
:1012910002504FA3E0FF9001F6E025E024B8FDEEF7
:1012A1002D121DE19001FEE09001FC121DDDE49084
:1012B10001FBF09001FEE09001F8121BF87F0A7E1D
:1012C10000121DE99001F9E475F0011208AF9001D7
:1012D100FBE004F0E0C3941040D99001FDE004F07C
:0212E10080A7E4
:0112E30022E8
:1015CA009001EFEFF0A3EDF0A3EBF0A3EAF0A3E9AB
:0115DA00F020
:1015DB00E4A3F0A3F09001F0E014F09001F1E0FB34
:1015EB00A3E0FAA3E0F91207F0605E9001F4E0C308
:1015FB00940A5055121A4C9001F5EFF09001F0E05F
:10160B00FF9001EFE0FD9001F1E0FBA3E0FAA3E016
:10161B00F91212499001F4E004F09001F2E475F034
:10162B00011208AF9001F5E0B4020A9001F2E475E3
:10163B00F0011208AF9001EFE004F0E0D394074003
:09164B009AE4F0A3E004F080929F
:011654002273
:0B0EE900900203EBF0A3EAF0A3E9F095
:100EF400E4A3F0A3F0A37420F07D101203979002F2
:100F04000912093D900203E0FBA3E0FAA3E0F91201
:100F14001A4C900207EFF0C2937F0312200990024B
:100F240009E0FCA3E0FDA3E0FEA3E0FF78101209B2
:100F34002AE4122009900209E0FCA3E0FDA3E0FEEC
:100F4400A3E0FF780812092AE4122009900209E0BC
:100F5400FCA3E0FDA3E0FEA3E0FFE412200990025D
:100F640007E0B4022CE4900206F0900208E0FF903F
:100F74000206E0C39F505C121FE0900206E0244783
:100F8400F582E43400F583EFF0900206E004F0808B
:100F9400D9900207E06401703A900206F0900208CA
:100FA400E0C313FF900206E0C39F5027121FE09096
:100FB4000206E0FE2447F582E43400F583EFF07482
:100FC400572EF582E43400F583E4F0900206E00441
:050FD400F080CAD29379
:010FD90022F5
:0811AA009001FAEFF0A3EDF053
:1011B200120EE99001FC7401F0A37400F0A37447CD
:1011C200F09001FBE0FFC394089002025006740104
:1011D200F0EF80097402F09001FBE024F83333331E
:1011E20054F8900200F0E4900201F0900201E0FE57
:1011F200C394025051A3E0FF9001FAE025E024B825
:10120200FDEE2D121DE1900202E0FF900200121D80
:10121200DEE49001FFF0900202E0FF9001FC121B5D
:10122200F97F0A7E00121DE99001FDE475F00112BA
:1012320008AF9001FFE004F0E0C3940840D89002A8
:0612420001E004F080A5AC
:011248002283
:101655009001F3EFF0A3EDF0A3EBF0A3EAF0A3E91B
:01166500F094
:10166600E4A3F0A3F09001F4E014F09001F5E0FBA0
:10167600A3E0FAA3E0F91207F0605E9001F8E0C378
:10168600940A5055121A4C9001F9EFF09001F4E0CB
:10169600FF9001F3E0FD9001F5E0FBA3E0FAA3E083
:1016A600F91211AA9001F8E004F09001F6E475F041
:1016B600011208AF9001F9E0B4020A9001F6E47550
:1016C600F0011208AF9001F3E004F0E0D3940F406C
:0916D6009AE4F0A3E004F0809214
:0116DF0022E8
:0514AB009001EBEDF0E3
:1014B000E4FBE014F00BA3EBF0A37400F0A374A71B
:1014C000F0EFC394049001F250067401F0EF80062F
:1014D0007402F0EF24FCC454F09001F0F0E49001A9
:1014E000F1F09001F1E0FEC394025051A3E0FF90AF
:1014F00001EBE025E024B8FDEE2D121DE19001F294
:10150000E0FF9001F0121DDEE49001EFF09001F297
:10151000E0FF9001EC121BF97F0A7E00121DE9909A
:1015200001EDE475F0011208AF9001EFE004F0E086
:0D153000C3941040D89001F1E004F080A5B4
:01153D00228B
:0F1F86009000407401F0A37400F0A374E7F02200
:0F1F95009000407401F0A37400F0A37467F02271
:0F1FA4009000407401F0A37400F0A374C7F02202
:0F1FB3009000407401F0A37400F0A37487F02233
:0F1FC2009000407401F0A37400F0A37400F022AB
:0512E4009001EAEDF0AD
:1012E900E014F0900040E0F9A3E0FAA3E09001EBEC
:1012F900C9F0A3EAF0A3E9F0EFC394049001F15017
:10130900067401F0EF80067402F0EF24FCC454F077
:101319009001EFF0E49001F0F09001F0E0FEC39449
:10132900025051A3E0FF9001EAE025E024B8FDEE68
:101339002D121DE19001F1E0FF9001EF121DDEE495
:101349009001EEF09001F1E0FF9001EB121BF97FA3
:101359000A7E00121DE99001ECE475F0011208AF54
:101369009001EEE004F0E0C3941040D89001F0E061
:0413790004F080A557
:01137D00224D
:08202800E4900043F0A3F02254
:080CE4009001EAEFF0A3EDF02E
:100CEC00E014F0900043E0FF7004A3E06074900106
:100CFC00EC7401F0A37400F0A37400F0EFC394043F
:100D0C009001F250097401F0900043E080097402E4
:100D1C00F0900043E024FCC454F09001F0F0E49017
:100D2C0001F1F09001F1E0FEC394025035A3E09084
:100D3C000044121DC2E49001EFF0121BF17F0A7EF9
:100D4C0000121DE99001EDE475F0011208AF90015D
:100D5C00EFE004F0E0C3941040E09001F1E004F007
:100D6C0080C19001EAE0FF900043F09001EBE0902D
:100D7C000044F09001EC7401F0A37400F0A3742013
:100D8C00F0EFC394049001F250097401F09001EA61
:100D9C00E080097402F09001EAE024FCC454F09065
:100DAC0001F0F0E49001F1F09001F1E0FEC3940247
:100DBC005035A3E09001EB121DC2E49001EFF0124C
:100DCC001BF17F0A7E00121DE99001EDE475F00124
:100DDC001208AF9001EFE004F0E0C3941040E090F3
:070DEC0001F1E004F080C1F9
:010DF30022DD
:08203000ED04FDD20C020CE4EA
:05000600E4FF021B51A4
:1016E000D0D5C3FBA3BA00B2BFC3C5A3BA00B9A487
:1016F000D6D6A3BA00B5D8D6B7C9E8D6C300C1C1FB
:10170000B6C8C9E8D6C300B5F7CAD4C9E8D6C3007D
:10171000BCECB2E2D7B4CCAC00BFF3B5C6C8A1D71D
:10172000DF00BFF3B5C6B3E4B5E700BFF3B5C6B39A
:10173000E4C2FA00B7A2C9FAB9CAD5CF00B5F7CA50
:10174000D400C9E8D6C300C9E8D6C3CDEAB1CF21D9
:10175000000000000000000000003031323334355A
:0A176000363738394142434445460C
:100A790049010CFF16E0FF16E7FF16EE49014AFF90
:100A890016F5FF16FEFF17075B019900000000002D
:100A9900000000000000000000000000000000004D
:100AA9000000000000004F0188FF1710FF1719FF11
:100AB9001722FF172BFF17344101560041010A0085
:100AC90041014900410154004101BE004101B80002
:100AD9004101BD0041012F0042012700004201C12F
:100AE90000004201E80000C101C10BC106C102C1F9
:100AF90005C104C107C189C10846012900000000D8
:100B09000000410155004101C000410108004101B7
:100B19004800440130000000004401E400000000E6
:100B29004101BF004101870042019700004201BA1B
:020B39000000BA
:03204600DFFE2298
:101F4900AE07AF061EEF600C7FF51220467FF51233
:051F5900204680EE228D
:041BA300AB05AA07DD
:101BA7009001BEE0FF7E007C037DE812085AAF0576
:101BB700EFF0E0FE75F0648424309001EAF0EE75F2
:101BC700F06484E5F075F00A842430A3F0EF75F033
:101BD7000A84E5F02430A3F0E4A3F0AF02AE03AD2E
:0A1BE700067B017A0179EA02165527
:10193700E49001EBF0A3F0A3F0A3F0200550120010
:1019470006E49001EAF09001EAE0FF75F003A424B1
:101957000CF582E43401F583E0FBA3E0FAA3E0F998
:10196700EF04FDE4FF1215CA9001EAE075F009A43F
:101977002499F9740135F0FA7B01E004FD7F031225
:0E19870015CA9001EAE004F0E0C3940340B8F2
:01199500222F
:101F31002005149001B9E0B40106300C03121937E1
:081F41007D017F0D121BA3229C
:10141700E4FFFE12000E9001BEE0FDE4FFFE121F86
:1014270000900153E0FD7F027E00121F009001BD76
:10143700E0B401069001B97401F09001B9E0FD7FB5
:10144700047E00121F00E49001EAF0E49001EBF043
:101457009001EBE0FDC39408503D9001EAE0FC7574
:10146700F008A42408FFE435F0FEED7A002FFFEA28
:101477003EFEEC75F009A42499F582E43401F58366
:10148700E5822DF582E43583F583E0FD121F009098
:1014970001EBE004F080B99001EAE004F0E0C394C6
:0314A7000340A857
:0114AA00221F
:10176A00E4FF300B75C20B9001BD04F0E4FEE4FD0A
:10177A00AC070F74572CF582E43401F583E0C454A6
:10178A00F0FCEE75F009A42499F582E43401F5839E
:10179A00E5822DF582E43583F583ECF0AC070F740E
:1017AA00572CF582E43401F583E0540FFCEE75F012
:1017BA0009A42499F582E43401F583E5822DF582A2
:1017CA00E43583F583E02CF00DEDB408A30EEEB4F6
:0A17DA00039CD20C121F31121417E9
:0117E40022E2
:0A201400D2B78F99C2993099FD22CE
:030023000210C404
:1010C400C0E0C083C082C0D075D000C007209803A0
:1010D40002118FC298E5995480602D248060030228
:1010E400119FAF99EF2480601624C0600302119F02
:1010F40030050302119F9001497403F002119F907F
:1011040001497404F002119F900149E014604C24D9
:10111400FD601E04600302119F9001BEE0B5990FAB
:10112400B2949001497401F0900154E4F0806C8011
:10113400219001BEE0B5991AB2949001497402F06D
:10114400C292900156E04450FF122014D292D294DD
:101154008049900149E4F0D2948040E59954F064C8
:10116400607038900154E0FF04F074572FF582E466
:101174003401F583E599F0900154E06430701CD299
:1011840094900149F0D20BB2B4801030990DC299F9
:10119400900149E0B40202E4F0C2B7D007D0D0D045
:0611A40082D083D0E0328E
:0418D000AB07AA06B2
:0F18D400200C0C7F059001297420F0A3DFFC226B
:1018E3007C007D3CAF03AE0212085A9001EBEDF091
:1018F300AE02AF037C007D3C12085AA3EFF0E0FD7B
:1019030075F00A842430900129F0ED75F00A84E51E
:10191300F02430A3F0A3742DF09001EBE0FD75F0FB
:101923000A84243090012CF0ED75F00A84E5F0244C
:0319330030A3F0EE
:01193600228E
:101E3300E49001EAF020052E900156E0FF64026071
:101E430004EFB4030C9001E8E0FEA3E0FFD20C80A2
:101E530005C20CE4FFFE1218D07B017A0179297DBB
:061E6300047F0B1216556E
:011E69002256
:0E1FEE00E49001C1F0A3F09001E8F0A3F0220E
:101CC700C2B7438901758C4C758AD0D2A9D28C755D
:101CD7009850438920758DFD758BFDD28E121C3A65
:101CE700759D03E4F5BD75BC8075B810D2ACD2AF55
:101CF7001220387F1490013474FFF0A3DFFCC20177
:021D0700D2A761
:011D090022B7
:101E6A009001BEE0FD75F064842430900130F0EDFD
:101E7A0075F06484E5F075F00A842430A3F09001CB
:101E8A00BEE075F00A84E5F02430900132F0E4A354
:021E9A00F02234
:101E9C00900153E0FD75F0648424309001E4F0ED82
:101EAC0075F06484E5F075F00A842430A3F0900199
:101EBC0053E075F00A84E5F024309001E6F0E4A3D9
:021ECC00F02202
:101F5E00D207D288D2A8438901758CFFE4F58AD2C4
:041F6E00A9D28C2246
:0F1FD100C207C2A8C28C758C4C758AD0D28C22E4
:07203F00300703121FD1223C
:09199600E4F0900148E0FFC20CEE
:10199F009001EAEFF012000630090D7BFF7A1779FC
:1019AF003D7D01E4FF1215CA7BFF7A1779427D0155
:1019BF007F031215CA9001EAE075F003A4244AF5DB
:1019CF0082E43401F583E0FBA3E0FAA3E0F97D02A2
:1019DF007F021215CA300C097B1A7D027F01121487
:0219EF00AB2229
:0A201E00900148E0FFD20C02199F68
:10185F00EF14603114605F240270659001557401BC
:10186F00F09001C0121996121E6A7B017A0179302D
:10187F007D037F031215CA7B1A7D037F021214ABFF
:10188F009001C080289001557404F090010812193E
:10189F0096121E9C7B017A0179E47D037F0312155A
:1018AF00CA7B1A7D037F021214AB900108E0240358
:1018BF00FF7D03022030E4900155F0B20912201E83
:0118CF0022F6
:101D880020B5367F0A121F4920B52E30B5FD200533
:101D980016D205122028D207121F5EE4900155F0D2
:101DA800900148F002201EE4900155F012203FC235
:0A1DB80005120006D20C121F3122A2
:100FDA0078EA7C017D017BFF7A1779517E007F05D3
:100FEA001207CA78EF7C017D017BFF7A1779567E5A
:100FFA00007F041207CA3005030210C330067BC201
:10100A0006900127E0FAA3E0FB7C037DE8FFAE022D
:10101A0012085AEF24309001EAF07C037DE8AF030E
:10102A00AE0212085A7E007F64CFCDCFCECCCE124C
:10103A00085AEF2430A3F0900127A3E07C007D64D6
:10104A00FFAE0212085A7E007F0ACFCDCFCECCCE99
:10105A0012085AEF24309001ECF07C007D0AAF03AD
:10106A00AE0212085AED2430A3F0E4A3F07B017A11
:10107A000179EA7D037F0C12165530023CC20290B8
:10108A00010AE0FD75F0648424309001EFF0ED75FB
:10109A00F06484ADF0ED75F00A842430A3F0ED75A8
:1010AA00F00A84E5F02430A3F0E4A3F07B017A018E
:0910BA0079EF7D027F0D1216553D
:0110C300220A
:101AFB00200552900156E014601214601414601605
:101B0B0014601824047017121FC28012121FA480B5
:101B1B000D121F958008121F868003121FB37D04C0
:101B2B00E4FF1212E4900156E075F003A42488F54B
:101B3B0082E43401F583E0FBA3E0FAA3E0F97D0432
:061B4B007F011215CA2201
:10137E00E4FFFE121F199001BEEFF0BFFF02E4F072
:10138E007F027E00121F19900153EFF0BFFF02E49F
:10139E00F07F047E00121F199001B9EFF0D3940173
:1013AE004002E4F0E49001EAF0E49001EBF09001E9
:1013BE00EBE0FDC3940850449001EAE075F008A4F8
:1013CE002408FFE435F0FE7C00EF2DFFEC3EFE120C
:1013DE001F199001EBE0FE9001EAE075F009A424DC
:1013EE0099F582E43401F583E5822EF582E43583A6
:1013FE00F583EFF09001EBE004F080B29001EAE0AB
:08140E0004F0E0C3940340A1C7
:0114160022B3
:101DFB00C20CEF4488F5BC200C08E5BCA2E4920CA5
:101E0B0080F5EDAFBDB40A14EF75F004A4FFE5BE89
:101E1B0054037C002FFBEC35F0FA80047A00AB07FF
:071E2B0075BC00AF03AE021D
:011E3200228D
:101AA4007D0AE4FF121DFB900127EEF0A3EFF090F6
:101AB400012FE0FD04F0ED75F00A84E5F025E02443
:101AC40034F582E43401F583EEF0A3EFF0D2067F1F
:101AD40064121F497D087F01121DFB90010AEFF07B
:101AE400D202900153E0FEEFC39E5004C2A78002CD
:071AF400D2A77F64021F4925
:100B3C00E49001EAF0FFF9A3F0A3F0A3F0A3F0FB1B
:100B4C00FAFEEE25E02434F582E43401F583E0FC72
:100B5C00A3E0FDBCFF07BDFF04E4020CDFED4C700D
:100B6C00089001EAE004F08031D3ED9464EC6480E9
:100B7C00948040059001EC800ED3ED940FEC6480D2
:100B8C00948040089001EBE004F08001090F900183
:100B9C00EEE02DF09001EDE03CF00EEE640A70A258
:100BAC00EF7004FEFF800FEFFD7C009001EDE0FE86
:100BBC00A3E0FF12085AAA06AB079001EAE0D3940F
:100BCC00075008EB9405EA94005019900187E0C394
:100BDC0094FA5003E004F0E4900197F0A3F0900134
:100BEC00BAF0A3F09001EBE0D394045008EB940519
:100BFC00EA9400403FE4900187F0C3900198E094A0
:100C0C00FA900197E064809480500CA3E004F0709B
:100C1C0006900197E004F0C39001BBE094FA9001B8
:100C2C00BAE064809480500CA3E004F0700690014C
:100C3C00BAE004F09001ECE0D394075009C3EB94B4
:100C4C0064EA94004028E4900187F0900197F0A3A7
:100C5C00F0C39001BBE094FA9001BAE064809480F8
:100C6C00500CA3E004F070069001BAE004F090017F
:100C7C0087E0D394034011900156E09001BFF090AF
:100C8C0001567401F0021FEED3900198E094149079
:100C9C000197E0648094804016E49001BAF0A3F0D0
:100CAC00900156E09001BFF09001567403F022D3EE
:100CBC009001BBE094039001BAE064809480400FF3
:100CCC00900156E09001BFF09001567402F0229012
:070CDC0001BFE0900156F09A
:010CE30022EE
:101C8300EF1209491CB5081CAC0C1CA9161CAF1893
:101C93001CB81C1CBE421CC44A1CC1521CBB5A1C8F
:101CA300B25E00001CC67F00227F01227F02227FDA
:101CB30003227F04227F05227F06227F07227F08DB
:041CC300227F092251
:030003000219F1EE
:0D19F100C0E0C083C082C0D075D000C00728
:1019FE00300039900116E0FFC3943F500BEFC394B3
:101A0E00214005900107E4F0900107E024C3F58220
:101A1E00E43401F583EFF0900116E4F0900107E055
:101A2E0004F0E0B4210DD203E4F08007900116E437
:031A3E00F0D200E3
:0B1A4100D007D0D0D082D083D0E0329C
:100026002007030203969001B6E0120949018007F2
:1000360003180802790903180C00DE1503181603C5
:10004600181803181C00A040031842006D44022B28
:1000560045022B46022B4703184A03185203185A27
:1000660003185E00000396900155E07002806F90C1
:100076000155E0FF64016004EFB402059001C08001
:1000860014900155E0FF64046008EF640560030204
:100096000396900108E024028033900155E0700336
:1000A600020186900155E0FF64016004EFB4020787
:1000B6009001C0E0048016900155E0FF64046008DA
:1000C600EF64056003020396900108E00475F003EF
:1000D60084AFF0EFF002038E900155E070099001B5
:1000E60048E0240202018B900155E0FF640160059F
:1000F600EF6402703A9001C0E0FF2430F582E434E8
:1001060001F583E024D975F00A84E5F02430FE7405
:10011600302FF582E43401F583EEF07B017A017924
:10012600307D037F031215CA9001C0E002038E9052
:100136000155E0FF64046008EF640560030203965E
:10014600900108E0FF24E4F582E43401F583E0241D
:10015600D975F00A84E5F02430FE74E42FF582E4C4
:100166003401F583EEF07B017A0179E47D037F03A8
:100176001215CA900108E002038E900155E0701234
:10018600900148E00475F00384AFF0EFF0D20C0262
:10019600199F900155E0FF64016005EF6402703A13
:1001A6009001C0E0FF2430F582E43401F583E024B9
:1001B600D175F00A84E5F02430FE74302FF582E420
:1001C6003401F583EEF07B017A0179307D037F03FC
:1001D6001215CA9001C0E002038E900155E0FF643B
:1001E600046008EF64056003020396900108E0FFCF
:1001F60024E4F582E43401F583E024D175F00A8421
:10020600E5F02430FE74E42FF582E43401F583EE44
:10021600F07B017A0179E47D037F031215CA900110
:1002260008E002038E900155E0FFB402047401F069
:1002360022EFB401028019900155E0B4030280391F
:10024600900155E0FFB405047404F022EFB40408ED
:10025600E4900155F002201E900155E0B40602809C
:1002660018E4900155F012203FC205120006D20C88
:10027600021F31900155E07008900148E0FF021816
:100286005F900155E0FF64016005EF6402703990EC
:100296000131E024D075F00AA4FF900130E024D0AB
:1002A60075F064A42FFF900132E024D02F9001BE98
:1002B600F01214177BFF7A1779477D047F02121517
:1002C600CA9001557403F022900155E0FF64046062
:1002D60008EF640560030203969001E5E024D075FB
:1002E600F00AA4FF9001E4E024D075F064A42FFF87
:1002F6009001E6E024D02F900153F01214177BFFF3
:100306007A1779477D047F021215CA900155740643
:10031600F022900155E0FF64016005EF6402702E43
:100326009001B6E0FF121C83EF2430FF9001C0E07D
:100336002430F582E43401F583EFF07B017A01790C
:10034600307D037F031215CA9001C0E0803A900108
:1003560055E0FF64046005EF640570349001B6E073
:10036600FF121C83EF2430FF900108E024E4F5829D
:10037600E43401F583EFF07B017A0179E47D037FB4
:10038600031215CA900108E02403FF7D03122030F2
:010396002244
:101D0A007E01E4FD7C0174C32EF582E43401F5837F
:101D1A00E0D394074004EF4480FFECC394085004D6
:101D2A00EFC313FF0E0CECB409DC74B42DF582E496
:0F1D3A003401F583EFF0E4FF0DEDB404C7D20AD6
:011D49002277
:101F7200300710300305121D0AC203300A05120091
:041F820026C20A2247
:03000B000217E5F4
:1017E500C0E0C083C082C0D075D00830070E758CAC
:1017F500FF758A00900116E004F08055758C4C75D4
:101805008AD0900156E0FF64026004EFB403429071
:1018150001C2E004F070069001C1E004F0C390013C
:10182500C2E094B09001C1E094044025E4F0A3F037
:101835009001E9E004F070069001E8E004F0C3903F
:1018450001E9E094A09001E8E094054004E4F0A3E8
:0A185500F0D0D0D082D083D0E03272
:101ECE0012137E121CC7D20C121F31900115740111
:101EDE00F090010BF0121AA412176A300903120FB8
:101EEE00DA120B3C121AFB121E33121D88121F72CD
:021EFE0080D989
:0300000002153EA8
:0C153E00787FE4F6D8FD75812102158548
:1006FA00E709F608DFFA8046E709F208DFFA803EE2
:10070A0088828C83E709F0A3DFFA8032E309F608CE
:10071A00DFFA8078E309F208DFFA807088828C8336
:10072A00E309F0A3DFFA806489828A83E0A3F608EA
:10073A00DFFA805889828A83E0A3F208DFFA804CC4
:10074A0080D280FA80C680D4806980F2803380109B
:10075A0080A680EA809A80A880DA80E280CA803304
:10076A0089828A83ECFAE493A3C8C582C8CCC5837C
:10077A00CCF0A3C8C582C8CCC583CCDFE9DEE7804C
:10078A000D89828A83E493A3F608DFF9ECFAA9F0CB
:10079A00EDFB2289828A83ECFAE0A3C8C582C8CC21
:1007AA00C583CCF0A3C8C582C8CCC583CCDFEADE3A
:1007BA00E880DB89828A83E493A3F208DFF980CC9C
:1007CA0088F0EF60010E4E60C388F0ED2402B40495
:1007DA000050B9F582EB2402B4040050AF2323453C
:0607EA00822390074A7310
:1007F000BB010689828A83E0225002E722BBFE0207
:09080000E32289828A83E4932239
:10080900BB010CE58229F582E5833AF583E02250A4
:1008190006E92582F8E622BBFE06E92582F8E222EE
:0D082900E58229F582E5833AF583E4932208
:10083600BB010689828A83F0225002F722BBFE01A1
:02084600F3229B
:10084800EF8DF0A4A8F0CF8CF0A428CE8DF0A42EC4
:02085800FE227E
:10085A00BC000BBE0029EF8DF084FFADF022E4CC82
:10086A00F875F008EF2FFFEE33FEEC33FCEE9DEC4B
:10087A00984005FCEE9DFE0FD5F0E9E4CEFD22ED91
:10088A00F8F5F0EE8420D21CFEADF075F008EF2FDB
:10089A00FFED33FD4007985006D5F0F222C398FDCC
:0508AA000FD5F0EA2269
:1008AF00C5F0F8A3E028F0C5F0F8E58215827002D4
:0608BF001583E038F02271
:1008C500A3F8E0C5F025F0F0E582158270021583E6
:0608D500E0C838F0E82243
:1008DB00E88FF0A4CC8BF0A42CFCE98EF0A42CFCBC
:1008EB008AF0EDA42CFCEA8EF0A4CDA8F08BF0A43A
:1008FB002DCC3825F0FDE98FF0A42CCD35F0FCEB99
:10090B008EF0A4FEA9F0EB8FF0A4CFC5F02ECD395D
:0F091B00FEE43CFCEAA42DCE35F0FDE43CFC22CA
:10092A00E8600FECC313FCED13FDEE13FEEF13FFAB
:03093A00D8F122CF
:0C093D00ECF0A3EDF0A3EEF0A3EFF0222D
:10094900D083D082F8E4937012740193700DA3A33D
:1009590093F8740193F5828883E473740293686051
:06096900EFA3A3A380DF51
:10154A00021ECEE493A3F8E493A34003F68001F2CB
:10155A0008DFF48029E493A3F85407240CC8C333A2
:10156A00C4540F4420C8834004F456800146F6DF71
:10157A00E4800B010204081020408090096FE47E89
:10158A00019360BCA3FF543F30E509541FFEE49366
:10159A00A360010ECF54C025E060A840B8E493A32D
:1015AA00FAE493A3F8E493A3C8C582C8CAC583CA58
:1015BA00F0A3C8C582C8CAC583CADFE9DEE780BE10
:010B3B0000B9
:00000001FF
