:1002E7000800090011FE1204344032505248944469
:1002F70011441080000029042892681207F00000BA
:1003070000800080FC8005FE85044A482840104094
:100317001840186024A024904118860E3804000065
:1003270040002180367C244404440444E4442444AB
:100337002544265424482040204050008FFE0000CA
:1003470008400C401BFE104037FC6444A44427FCC3
:1003570024442240218020802170221E2C0400008A
:1003670000001FFC1084108410841FFC108410846C
:1003770010841FFC1084108420842084409480887B
:100387000020FE1011FE1100110021003D00250084
:100397006500A500250025003D0026002200040079
:1003A7001000100011FE1010541054105810901027
:1003B7001010181024102210401040508020000008
:1003C700020001007FFC020007400C2010103FF8DC
:1003D700049004800480088008841084207C4000F6
:1003E7000100010001003FF8210821083FF821081A
:1003F700210821083FF821080102010200FE000040
:10040700080008007F7C094409441144157C6200F8
:1004170001007FFC038005400930310EC104010053
:1004270020003F00487C0844FF440C440A7C11002C
:100437006FF0081008100FF0081008100FF00810E0
:1004470020403040244C4270FF444246007C7E00EE
:1004570042407E4C42707E40424442464A3C440001
:1004670020803EFC51208A1001007FFE40041FE0DF
:1004770010201FE010001FF0101010101FF01010B8
:10048700000003FCFA44224423FC2244FA4423FCE0
:100497002244204023FC3840C04000400FFE0000AB
:1004A700007C3F800220042008401F8003200C109E
:1004B7003FF8108C04A00890108820844284010023
:1004C7001040102023FE20404440F888090413FE02
:1004D70020947C90009000901D12E112020E0400FF
:100707001009000102030405060708090A0B0C0D6E
:050717000E0F010800B7
:1006EF007E08EFC4131313540113B392A5C2A7D2FC
:0706FF00A7EF25E0FFDEEB91
:0107060022D0
:10071D00438901758CFFE4F58AD2AFD2A9D28C2220
:03000B00020748A1
:0C074800758CFE758A00200002D2003281
:10062C00300078E4F51A75F020E51AA42519F58246
:10063C00E435F0F583E58224E7F582E5833402F5B1
:10064C0083E493FF1206EF75F020E51AA42519F543
:10065C0082E435F0F583E58224E8F582E583340203
:10066C00F583E493FF1206EF051AE51AC3941040C4
:10067C00B5C2A6D2A674092508F8E6FFE5A054F089
:10068C004FF5A0050805190519E508B41003E4F5A4
:0C069C0008E519B42003E4F519C200229F
:0D073B0075960FC2B612071D12062C80FB2A
:0606A8008B1B8A1C891D5A
:1006AE00051DE51D7002051C14F91204E7FFC39425
:1006BE002050037F0022EFC3948050037F0122ABB2
:1006CE001B051DE51DAA1C7002051C14F91204E77A
:1006DE00BF8105C394395003BF82037F04227F027A
:0106EE0022E9
:08000E008D248B218A22892335
:100016001204E7FFC3948040030200D6EFC3942086
:100026005005742012052DAB21AA22A9231204E73C
:1000360024E0FFE434FFFEE48F288E27F526F5251D
:10004600E524B4080AAD26AC25E47B08020254E593
:1000560024B40C0EAF28AE27AD26AC25E47B0C02EB
:100066000254E524B4101BE47F10FEFDFCAB28AA65
:1000760027A926A825120551EF2480F528EE34D7A6
:10008600801DE524B41820E47F30FEFDFCAB28AAD1
:1000960027A926A825120551E42FF528EE34FFF5E9
:1000A60027ED341D0202D0E524642060030202DE3F
:1000B6007F40FEFDFCAB28AA27A926A825120551DC
:1000C600EF2450F528EE345AF527ED341E0202D0FF
:1000D600AB21AA22A9231204E7F5299000011205F3
:1000E60000F52AE529C394A1400EE529D394AB5027
:1000F60007E52AC394A1501EE529C394A85003021C
:1001060001FEE529D394A940030201FEE52AC39422
:10011600A140030201FEE529C394A1402DE529D3A0
:1001260094AB5026E52AC394A1401FE529245FFF1E
:10013600E434FFFE7C007D5E12053FE52A245FFD68
:10014600EC34FFCD2FFFED3E8020E52AD3947F408F
:1001560002152AAF297E007C007D6012053FEF253F
:100166002AFFEC3ECF240ECF34C4FEE48F288E2720
:10017600F526F525E524B40C11E47F18FEFDFCAB4D
:1001860028AA27A926A825020551E524B4101EE4AD
:100196007F20FEFDFCAB28AA27A926A8251205511B
:1001A600EF24D0FFEE34C9FEED34028043E524B4DB
:1001B600181EE47F48FEFDFCAB28AA27A926A82521
:1001C600120551EF2490FFEE3481FEED34068020B7
:1001D600E524B42020E47F80FEFDFCAB28AA27A9F5
:1001E60026A825120551E42FFFEE34DFFEED340E6E
:1001F600FDE43CFC220202D8E529C394B04035E573
:1002060029D394F7502EE52AC394A14027E5292443
:1002160050FFE434FFFE7C007D5E12053FE52A2494
:100226005FFDEC34FFCD2FFFED3EFEE48F288E27D9
:10023600F526F525E524B40C25E528244EFFE5270B
:100246003403FEE43526FDE43525FCE47B18FAF993
:10025600F81205518F288E278D268C25807AE52465
:10026600B41020E47F20FEFDFCAB28AA27A926A80F
:1002760025120551EF2490F528EE3433F527ED3499
:10028600038047E524B41820E47F48FEFDFCAB2834
:10029600AA27A926A825120551EF2480F528EE34B1
:1002A6006FF527ED34078022E524B42025E47F800E
:1002B600FEFDFCAB28AA27A926A825120551E42F86
:1002C600F528EE3486F527ED3410F526E43CF525C1
:1002D6008006E4FFFEFDFC22AF28AE27AD26AC2546
:0102E60022F5
:0700030075CED075CDC022BF
:0B0754008FCFE5CD30E7FB75CDC02254
:0D072D00E4F5CFE5CD30E7FBAFCF75CDC0D3
:01073A00229C
:030000000205A056
:0C05A000787FE4F6D8FD75812A0205E79B
:1004E700BB010689828A83E0225002E722BBFE0213
:0904F700E32289828A83E4932246
:10050000BB010CE58229F582E5833AF583E02250B0
:1005100006E92582F8E622BBFE06E92582F8E222FA
:0D052000E58229F582E5833AF583E4932214
:10052D00BB010689828A83F0225002F722BBFE01AD
:02053D00F322A7
:10053F00EF8DF0A4A8F0CF8CF0A428CE8DF0A42ED0
:02054F00FE228A
:10055100E88FF0A4CC8BF0A42CFCE98EF0A42CFC49
:100561008AF0EDA42CFCEA8EF0A4CDA8F08BF0A4C7
:100571002DCC3825F0FDE98FF0A42CCD35F0FCEB26
:100581008EF0A4FEA9F0EB8FF0A4CFC5F02ECD39EB
:0F059100FEE43CFCEAA42DCE35F0FDE43CFC2258
:1005AC0002073BE493A3F8E493A34003F68001F223
:1005BC0008DFF48029E493A3F85407240CC8C33350
:1005CC00C4540F4420C8834004F456800146F6DF1F
:1005DC00E4800B0102040810204080900707E47EA1
:1005EC00019360BCA3FF543F30E509541FFEE49314
:1005FC00A360010ECF54C025E060A840B8E493A3DB
:10060C00FAE493A3F8E493A3C8C582C8CAC583CA05
:10061C00F0A3C8C582C8CAC583CADFE9DEE780BEBD
:01071C0000DC
:00000001FF
