:0720110075CED075CDC02291
:0B1FE2008FCFE5CD30E7FB75CDC022AE
:0D1FB900E4F5CFE5CD30E7FBAFCF75CDC02F
:011FC60022F8
:0B1A250090020DEBF0A3EAF0A3E9F043
:101A300090020DE0FBA3E475F00112089EA9F0FAF4
:101A40001207C9FFC3942050037F0022EFC3948084
:101A500050037F012290020DE0FBA3E475F0011218
:101A6000089EA9F0FA1207C9FEEFB48106EEC394EE
:0C1A7000395004EFB482037F04227F028F
:011A7C002247
:10039700900210EDF090020DEBF0A3EAF0A3E9F064
:1003A7001207C9FFC394804003020499EFC3942046
:1003B700501090020DE0FBA3E0FAA3E0F9742012BD
:1003C700080F90020DE0FBA3E0FAA3E0F91207C9BA
:1003D70024E0FFE434FFFEE4FCFD9002111209164D
:1003E700900210E0B40812A3E0FCA3E0FDA3E0FE36
:1003F700A3E0FFE47B08020657900210E0B40C125A
:10040700A3E0FCA3E0FDA3E0FEA3E0FFE47B0C0276
:100417000657900210E0B41023E47F10FEFDFCA302
:10042700E0F8A3E0F9A3E0FAA3E0FB1208B4EF2495
:10043700C0FFEE34B7FEED3403020686900210E0EB
:10044700B41822E47F30FEFDFCA3E0F8A3E0F9A393
:10045700E0FAA3E0FB1208B4E42FFFEE34FFFEED51
:10046700341D020686900210E0642060030206C471
:100477007F40FEFDFCA3E0F8A3E0F9A3E0FAA3E0C8
:10048700FB1208B4EF2450FFEE345AFEED341E027F
:10049700068690020DE0FBA3E0FAA3E0F91207C974
:1004A700FF900215F09000011207E2900216F0EF9C
:1004B700C394A14010900215E0D394AB5007A3E07A
:1004C700C394A15020900215E0FFC394A8500302E3
:1004D70005D2EFD394A940030205D2A3E0C394A1A8
:1004E70040030205D2900215E0FFC394A1402EEF0E
:1004F700D394AB5028A3E0FBC394A14020900215EE
:10050700E0245FFFE434FFFE7C007D5E120821EBF0
:10051700245FFDEC34FFCD2FFFED3E8026900216C1
:10052700E0D3947F4003E014F0900215E0FF7E00D3
:100537007C007D60120821A3E02FFFEC3ECF240E44
:10054700CF34C4FEE4FD900211120916900210E0A8
:10055700B40C05E47F18800A900210E0B41015E48B
:100567007F20FEFDFCA3E0F8A3E0F9A3E0FAA3E0F7
:10057700FB0208B4900210E0B41822E47F48FEFDA5
:10058700FCA3E0F8A3E0F9A3E0FAA3E0FB1208B4A8
:10059700EF2490FFEE3481FEED34068026900210A2
:1005A700E0B42024E47F80FEFDFCA3E0F8A3E0F99B
:1005B700A3E0FAA3E0FB1208B4E42FFFEE34DFFE5A
:1005C700ED340EFDE43CFC220206BE900215E0FF6E
:1005D700C394B04035EFD394F7502FA3E0FBC394F7
:1005E700A14027900215E02450FFE434FFFE7C0071
:1005F7007D5E120821EB245FFDEC34FFCD2FFFED6C
:100607003EFEE4FD900211120916900210E0B40CB0
:100617001DA3E0FCA3E0FDA3E0FEA3E0244EFFEE54
:100627003403FEE43DFDE43CFCE47B1880229002A9
:1006370010E0B41023A3E0FCA3E0FDA3E0FEA3E0D9
:10064700244EFFEE3403FEE43DFDE43CFCE47B2056
:10065700FAF9F81208B48057900210E0B41826E4AB
:100667007F48FEFDFCA3E0F8A3E0F9A3E0FAA3E0CE
:10067700FB1208B4EF2480FFEE346FFEED3407FD64
:10068700E43CFC802A900210E0B4202BE47F80FE3B
:10069700FDFCA3E0F8A3E0F9A3E0FAA3E0FB12084E
:1006A700B4E42FFFEE3486FEED3410FDE43CFC90FD
:1006B70002111209168006E4FFFEFDFC22900211CA
:0B06C700E0FCA3E0FDA3E0FEA3E0FFC9
:0106D2002205
:0D1FD500E4F5C7F5C5F5C675C380F5C42257
:101EF20075C78375C5018FC4EEF5C375C65A75C61D
:071F0200A500AFC2121FD5BC
:011F090022B5
:101ED90075C78375C5028FC4EEF5C3AF058FC2758B
:091EE900C65A75C6A500021FD5FA
:10000E0075C78375C5038FC4EEF5C375C65A75C61D
:05001E00A500021FD542
:10094800602000000000000000000000000000001F
:10095800000000000000000000000000000000008F
:1009680000000000602000200101010101010101D7
:100978000101010101010101000000000000000067
:100988000000000000000000602000E700000000F8
:10099800FCFCFFFFFFFFFCFC000000000000000063
:1009A800FFFFFFFFFFFFFFFF000000006020006760
:1009B80000000000FC040707070704FC0000000013
:1009C80000000000FFFFFFFFFFFFFFFF0000000027
:1009D800602000C700000000FC040707070704FCAC
:1009E8000000000000000000FF808080808080FF01
:1009F800000000006020008700000000FC244787FA
:100A0800874724FC0000000000000000FF8482816A
:100A1800818284FF00000000602000A78080808021
:100A2800808080808080808090A0C080000000004E
:100A38000000000000000000040201004300400024
:0A0A4800000041004300410044009B
:101D9B00FFE025E024B8FDEE2DFD121D2C7F647EA7
:101DAB0000121DC29001F2E09001F0FFE02440FD13
:071DBB00121D2C7F647E0065
:101DC200E4FDFCC3ED9FEC9E50070DBD00010C80AD
:011DD200F21E
:011DD30022ED
:091D23007F01121D2C7D407F019F
:101D2C00AB05AA077FC87E00121DC2C2A5EAB4018A
:101D3C0009C2A0121DC2D2A1800BD2A07FC87E0006
:101D4C00121DC2C2A1121DC2C2A4C2A3D2A5AF034E
:051D5C008F80C2A522EA
:101BCA009001F2E09001ECFFE0FBA3E0FAA3E0F958
:041BDA001207C9FD28
:101BDE00AB05AA077FC87E00121DC2C2A5EAB401DA
:101BEE0009C2A0121DC2D2A1800BD2A07FC87E0056
:101BFE00121DC2C2A1121DC2D2A4C2A3D2A5AF038E
:051C0E008F80C2A52239
:051B2A009001EFEFF057
:101B2F007DC07F01121D2C7DC07F02121D2CE4F998
:101B3F00E924B8FD121D23E924B8FD7F02121D2CE4
:101B4F007D407F02121D2CE49001F0F09001EFE038
:101B5F00FD7F01121BDEE0FD7F02121BDEA3E004FE
:0C1B6F00F0E0C3944040E509E9B408C46C
:011B7B002247
:101C1300C2A27FE87E03121DC2D2A2121DC27D3F63
:101C23007F01121D2C7DC07F01121D2C7FE87E03D6
:101C3300121DC27D3F7F02121D2C7DC07F02121D2B
:101C43002CE4FF121B2A7DB8121D237DB87F0212DC
:091C53001D2C7D407F02021D2CB6
:0B0DCD009001FFEBF0A3EAF0A3E9F0B7
:100DD800E4A3F0A3F0A37420F07D1012039790020F
:100DE800051209169001FFE0FBA3E0FAA3E0F9124F
:100DF8001A25900203EFF0C2937F03121FE29002BC
:100E080005E0FCA3E0FDA3E0FEA3E0FF78101209D3
:100E180003E4121FE2900205E0FCA3E0FDA3E0FE5C
:100E2800A3E0FF7808120903E4121FE2900205E02C
:100E3800FCA3E0FDA3E0FEA3E0FFE4121FE29002A2
:100E480003E0B4022CE4900202F0900204E0FF9068
:100E58000202E0C39F5060121FB9900202E02447CB
:100E6800F582E43400F583EFF0900202E004F080AC
:100E7800D9900203E06401703E900202F0900204EF
:100E8800E0C313FF900202E0C39F502B121FB990DA
:100E98000202E0FE25E02447F582E43400F583EF02
:100EA800F0EE25E02448F582E43400F583E4F09080
:090EB8000202E004F080C6D293AE
:010EC100220E
:081222009001F6EFF0A3EDF0DE
:10122A00120DCD9001F87401F0A37400F0A3744775
:10123A00F09001F7E0FFC394049001FE5006740198
:10124A00F0EF80097402F09001F7E024FCC454F036
:10125A009001FCF0E49001FDF09001FDE0FEC394E2
:10126A0002504FA3E0FF9001F6E025E024B8FDEE1E
:10127A002D121DBA9001FEE09001FC121DB6E490F9
:10128A0001FBF09001FEE09001F8121BD17F0A7E6B
:10129A0000121DC29001F9E475F00112088890014C
:1012AA00FBE004F0E0C3941040D99001FDE004F0A3
:0212BA0080A70B
:0112BC00220F
:1015A3009001EFEFF0A3EDF0A3EBF0A3EAF0A3E9D2
:0115B300F047
:1015B400E4A3F0A3F09001F0E014F09001F1E0FB5B
:1015C400A3E0FAA3E0F91207C9605E9001F4E0C356
:1015D400940A5055121A259001F5EFF09001F0E0AD
:1015E400FF9001EFE0FD9001F1E0FBA3E0FAA3E03E
:1015F400F91212229001F4E004F09001F2E475F083
:10160400011208889001F5E0B4020A9001F2E47531
:10161400F0011208889001EFE004F0E0D394074051
:091624009AE4F0A3E004F08092C6
:01162D00229A
:0B0EC200900203EBF0A3EAF0A3E9F0BC
:100ECD00E4A3F0A3F0A37420F07D10120397900219
:100EDD0009120916900203E0FBA3E0FAA3E0F91250
:100EED001A25900207EFF0C2937F03121FE29002C2
:100EFD0009E0FCA3E0FDA3E0FEA3E0FF78101209DA
:100F0D0003E4121FE2900209E0FCA3E0FDA3E0FE62
:100F1D00A3E0FF7808120903E4121FE2900209E032
:100F2D00FCA3E0FDA3E0FEA3E0FFE4121FE29002AC
:100F3D0007E0B4022CE4900206F0900208E0FF9066
:100F4D000206E0C39F505C121FB9900206E02447D1
:100F5D00F582E43400F583EFF0900206E004F080B2
:100F6D00D9900207E06401703A900206F0900208F1
:100F7D00E0C313FF900206E0C39F5027121FB990E4
:100F8D000206E0FE2447F582E43400F583EFF074A9
:100F9D00572EF582E43400F583E4F0900206E00468
:050FAD00F080CAD293A0
:010FB200221C
:081183009001FAEFF0A3EDF07A
:10118B00120EC29001FC7401F0A37400F0A374471B
:10119B00F09001FBE0FFC39408900202500674012B
:1011AB00F0EF80097402F09001FBE024F833333345
:1011BB0054F8900200F0E4900201F0900201E0FE7E
:1011CB00C394025051A3E0FF9001FAE025E024B84C
:1011DB00FDEE2D121DBA900202E0FF900200121DCF
:1011EB00B7E49001FFF0900202E0FF9001FC121BAC
:1011FB00D27F0A7E00121DC29001FDE475F0011230
:10120B0008889001FFE004F0E0C3940840D89002F6
:06121B0001E004F080A5D3
:0112210022AA
:10162E009001F3EFF0A3EDF0A3EBF0A3EAF0A3E942
:01163E00F0BB
:10163F00E4A3F0A3F09001F4E014F09001F5E0FBC7
:10164F00A3E0FAA3E0F91207C9605E9001F8E0C3C6
:10165F00940A5055121A259001F9EFF09001F4E019
:10166F00FF9001F3E0FD9001F5E0FBA3E0FAA3E0AA
:10167F00F91211839001F8E004F09001F6E475F08F
:10168F00011208889001F9E0B4020A9001F6E4759E
:10169F00F0011208889001F3E004F0E0D3940F40BA
:0916AF009AE4F0A3E004F080923B
:0116B800220F
:051484009001EBEDF00A
:10148900E4FBE014F00BA3EBF0A37400F0A374A742
:10149900F0EFC394049001F250067401F0EF800656
:1014A9007402F0EF24FCC454F09001F0F0E49001D0
:1014B900F1F09001F1E0FEC394025051A3E0FF90D6
:1014C90001EBE025E024B8FDEE2D121DBA9001F2E2
:1014D900E0FF9001F0121DB7E49001EFF09001F2E6
:1014E900E0FF9001EC121BD27F0A7E00121DC29010
:1014F90001EDE475F0011208889001EFE004F0E0D5
:0D150900C3941040D89001F1E004F080A5DB
:0115160022B2
:0F1F5F009000407401F0A37400F0A374E7F02227
:0F1F6E009000407401F0A37400F0A37467F02298
:0F1F7D009000407401F0A37400F0A374C7F02229
:0F1F8C009000407401F0A37400F0A37487F0225A
:0F1F9B009000407401F0A37400F0A37400F022D2
:0512BD009001EAEDF0D4
:1012C200E014F0900040E0F9A3E0FAA3E09001EB13
:1012D200C9F0A3EAF0A3E9F0EFC394049001F1503E
:1012E200067401F0EF80067402F0EF24FCC454F09F
:1012F2009001EFF0E49001F0F09001F0E0FEC39471
:10130200025051A3E0FF9001EAE025E024B8FDEE8F
:101312002D121DBA9001F1E0FF9001EF121DB7E40A
:101322009001EEF09001F1E0FF9001EB121BD27FF1
:101332000A7E00121DC29001ECE475F001120888C9
:101342009001EEE004F0E0C3941040D89001F0E088
:0413520004F080A57E
:011356002274
:08200100E4900043F0A3F0227B
:080CBD009001EAEFF0A3EDF055
:100CC500E014F0900043E0FF7004A3E0607490012D
:100CD500EC7401F0A37400F0A37400F0EFC3940466
:100CE5009001F250097401F0900043E0800974020C
:100CF500F0900043E024FCC454F09001F0F0E4903F
:100D050001F1F09001F1E0FEC394025035A3E090AB
:100D15000044121D9BE49001EFF0121BCA7F0A7E6E
:100D250000121DC29001EDE475F0011208889001D2
:100D3500EFE004F0E0C3941040E09001F1E004F02E
:100D450080C19001EAE0FF900043F09001EBE09054
:100D55000044F09001EC7401F0A37400F0A374203A
:100D6500F0EFC394049001F250097401F09001EA88
:100D7500E080097402F09001EAE024FCC454F0908C
:100D850001F0F0E49001F1F09001F1E0FEC394026E
:100D95005035A3E09001EB121D9BE49001EFF0129A
:100DA5001BCA7F0A7E00121DC29001EDE475F00199
:100DB5001208889001EFE004F0E0C3941040E09041
:070DC50001F1E004F080C120
:010DCC002204
:08200900ED04FDD20C020CBD38
:05000600E4FF021B2ACB
:1016B900D0D5C3FBA3BA00B2BFC3C5A3BA00B9A4AE
:1016C900D6D6A3BA00B5D8D6B7C9E8D6C300C1C122
:1016D900B6C8C9E8D6C300B5F7CAD4C9E8D6C300A5
:1016E900BCECB2E2D7B4CCAC00BFF3B5C6C8A1D745
:1016F900DF00BFF3B5C6B3E4B5E700BFF3B5C6B3C2
:10170900E4C2FA00B7A2C9FAB9CAD5CF00B5F7CA77
:10171900D400C9E8D6C300C9E8D6C3CDEAB1CF2100
:101729000000000000000000000030313233343581
:0A1739003637383941424344454633
:100A520049010CFF16B9FF16C0FF16C749014AFF2C
:100A620016CEFF16D7FF16E05B01990000000000CA
:100A72000000000000000000000000000000000074
:100A82000000000000004F0188FF16E9FF16F2FF88
:100A920016FBFF1704FF170D4101560041010A0022
:100AA20041014900410154004101BE004101B80029
:100AB2004101BD0041012F0042012700004201C156
:100AC20000004201E80000C101C10BC106C102C120
:100AD20005C104C107C189C10846012900000000FF
:100AE2000000410155004101C000410108004101DF
:100AF2004800440130000000004401E4000000000E
:100B02004101BF004101870042019700004201BA42
:020B12000000E1
:03201F00DFFE22BF
:101F2200AE07AF061EEF600C7FF512201F7FF51281
:051F3200201F80EE22DB
:041B7C00AB05AA0704
:101B80009001BEE0FF7E007C037DE8120833AF05C4
:101B9000EFF0E0FE75F0648424309001EAF0EE7519
:101BA000F06484E5F075F00A842430A3F0EF75F05A
:101BB0000A84E5F02430A3F0E4A3F0AF02AE03AD55
:0A1BC000067B017A0179EA02162E75
:10191000E49001EBF0A3F0A3F0A3F0200550120037
:1019200006E49001EAF09001EAE0FF75F003A424D8
:101930000CF582E43401F583E0FBA3E0FAA3E0F9BF
:10194000EF04FDE4FF1215A39001EAE075F009A48D
:101950002499F9740135F0FA7B01E004FD7F03124C
:0E19600015A39001EAE004F0E0C3940340B840
:01196E002256
:101F0A002005149001B9E0B40106300C031219102F
:081F1A007D017F0D121B7C22EA
:1013F000E4FFFE12000E9001BEE0FDE4FFFE121EAF
:10140000D9900153E0FD7F027E00121ED99001BDEC
:10141000E0B401069001B97401F09001B9E0FD7FDC
:10142000047E00121ED9E49001EAF0E49001EBF092
:101430009001EBE0FDC39408503D9001EAE0FC759B
:10144000F008A42408FFE435F0FEED7A002FFFEA4F
:101450003EFEEC75F009A42499F582E43401F5838D
:10146000E5822DF582E43583F583E0FD121ED990E7
:1014700001EBE004F080B99001EAE004F0E0C394ED
:031480000340A87E
:011483002246
:10174300E4FF300B75C20B9001BD04F0E4FEE4FD31
:10175300AC070F74572CF582E43401F583E0C454CD
:10176300F0FCEE75F009A42499F582E43401F583C5
:10177300E5822DF582E43583F583ECF0AC070F7435
:10178300572CF582E43401F583E0540FFCEE75F039
:1017930009A42499F582E43401F583E5822DF582C9
:1017A300E43583F583E02CF00DEDB408A30EEEB41D
:0A17B300039CD20C121F0A1213F05F
:0117BD002209
:0A1FED00D2B78F99C2993099FD22F6
:0300230002109D2B
:10109D00C0E0C083C082C0D075D000C007209803C7
:1010AD00021168C298E5995480602D248060030276
:1010BD001178AF99EF2480601624C0600302117877
:1010CD003005030211789001497403F002117890F4
:1010DD0001497404F0021178900149E014604C2428
:1010ED00FD601E0460030211789001BEE0B5990FFA
:1010FD00B2949001497401F0900154E4F0806C8039
:10110D00219001BEE0B5991AB2949001497402F094
:10111D00C292900156E04450FF121FEDD292D2942C
:10112D008049900149E4F0D2948040E59954F064EF
:10113D00607038900154E0FF04F074572FF582E48D
:10114D003401F583E599F0900154E06430701CD2C0
:10115D0094900149F0D20BB2B4801030990DC29920
:10116D00900149E0B40202E4F0C2B7D007D0D0D06C
:06117D0082D083D0E032B5
:0418A900AB07AA06D9
:0F18AD00200C0C7F059001297420F0A3DFFC2292
:1018BC007C007D3CAF03AE021208339001EBEDF0DF
:1018CC00AE02AF037C007D3C120833A3EFF0E0FDC9
:1018DC0075F00A842430900129F0ED75F00A84E546
:1018EC00F02430A3F0A3742DF09001EBE0FD75F023
:1018FC000A84243090012CF0ED75F00A84E5F02474
:03190C0030A3F015
:01190F0022B5
:101E0C00E49001EAF020052E900156E0FF64026098
:101E1C0004EFB4030C9001E8E0FEA3E0FFD20C80C9
:101E2C0005C20CE4FFFE1218A97B017A0179297D09
:061E3C00047F0B12162EBC
:011E4200227D
:0E1FC700E49001C1F0A3F09001E8F0A3F02235
:101CA000C2B7438901758C4C758AD0D2A9D28C7584
:101CB0009850438920758DFD758BFDD28E121C13B3
:101CC000759D03E4F5BD75BC8075B810D2ACD2AF7C
:101CD0001220117F1490013474FFF0A3DFFCC201C5
:021CE000D2A789
:011CE20022DF
:101E43009001BEE0FD75F064842430900130F0ED24
:101E530075F06484E5F075F00A842430A3F09001F2
:101E6300BEE075F00A84E5F02430900132F0E4A37B
:021E7300F0225B
:101E7500900153E0FD75F0648424309001E4F0EDA9
:101E850075F06484E5F075F00A842430A3F09001C0
:101E950053E075F00A84E5F024309001E6F0E4A300
:021EA500F02229
:101F3700D207D288D2A8438901758CFFE4F58AD2EB
:041F4700A9D28C226D
:0F1FAA00C207C2A8C28C758C4C758AD0D28C220B
:07201800300703121FAA228A
:09196F00E4F0900148E0FFC20C15
:101978009001EAEFF012000630090D7BFF7A177923
:10198800167D01E4FF1215A37BFF7A17791B7D01F1
:101998007F031215A39001EAE075F003A4244AF529
:1019A80082E43401F583E0FBA3E0FAA3E0F97D02C9
:1019B8007F021215A3300C097B1A7D027F011214D5
:0219C800842277
:0A1FF700900148E0FFD20C021978B7
:10183800EF14603114605F240270659001557401E3
:10184800F09001C012196F121E437B017A017930A2
:101858007D037F031215A37B1A7D037F0212148474
:101868009001C080289001557404F0900108121965
:101878006F121E757B017A0179E47D037F031215CF
:10188800A37B1A7D037F02121484900108E02403CD
:10189800FF7D03022009E4900155F0B209121FF7F9
:0118A800221D
:101D610020B5367F0A121F2220B52E30B5FD200581
:101D710016D205122001D207121F37E4900155F047
:101D8100900148F0021FF7E4900155F0122018C2AB
:0A1D910005120006D20C121F0A22F0
:100FB30078EA7C017D017BFF7A17792A7E007F0521
:100FC3001207A378EF7C017D017BFF7A17792F7ECF
:100FD300007F041207A330050302109C30067BC276
:100FE30006900127E0FAA3E0FB7C037DE8FFAE0255
:100FF300120833EF24309001EAF07C037DE8AF035D
:10100300AE021208337E007F64CFCDCFCECCCE129A
:101013000833EF2430A3F0900127A3E07C007D6424
:10102300FFAE021208337E007F0ACFCDCFCECCCEE7
:10103300120833EF24309001ECF07C007D0AAF03FB
:10104300AE02120833ED2430A3F0E4A3F07B017A5F
:101053000179EA7D037F0C12162E30023CC2029006
:10106300010AE0FD75F0648424309001EFF0ED7522
:10107300F06484ADF0ED75F00A842430A3F0ED75CF
:10108300F00A84E5F02430A3F0E4A3F07B017A01B5
:0910930079EF7D027F0D12162E8B
:01109C002231
:101AD400200552900156E01460121460141460162C
:101AE40014601824047017121F9B8012121F7D802B
:101AF4000D121F6E8008121F5F8003121F8C7D045D
:101B0400E4FF1212BD900156E075F003A42488F599
:101B140082E43401F583E0FBA3E0FAA3E0F97D0459
:061B24007F011215A3224F
:10135700E4FFFE121EF29001BEEFF0BFFF02E4F0C1
:101367007F027E00121EF2900153EFF0BFFF02E4EE
:10137700F07F047E00121EF29001B9EFF0D39401C2
:101387004002E4F0E49001EAF0E49001EBF0900110
:10139700EBE0FDC3940850449001EAE075F008A41F
:1013A7002408FFE435F0FE7C00EF2DFFEC3EFE1233
:1013B7001EF29001EBE0FE9001EAE075F009A4242B
:1013C70099F582E43401F583E5822EF582E43583CD
:1013D700F583EFF09001EBE004F080B29001EAE0D2
:0813E70004F0E0C3940340A1EF
:0113EF0022DB
:101DD400C20CEF4488F5BC200C08E5BCA2E4920CCC
:101DE40080F5EDAFBDB40A14EF75F004A4FFE5BEB1
:101DF40054037C002FFBEC35F0FA80047A00AB0727
:071E040075BC00AF03AE0244
:011E0B0022B4
:101A7D007D0AE4FF121DD4900127EEF0A3EFF09044
:101A8D00012FE0FD04F0ED75F00A84E5F025E0246A
:101A9D0034F582E43401F583EEF0A3EFF0D2067F46
:101AAD0064121F227D087F01121DD490010AEFF0F0
:101ABD00D202900153E0FEEFC39E5004C2A78002F4
:071ACD00D2A77F64021F2273
:100B1500E49001EAF0FFF9A3F0A3F0A3F0A3F0FB42
:100B2500FAFEEE25E02434F582E43401F583E0FC99
:100B3500A3E0FDBCFF07BDFF04E4020CB8ED4C705B
:100B4500089001EAE004F08031D3ED9464EC648010
:100B5500948040059001EC800ED3ED940FEC6480F9
:100B6500948040089001EBE004F08001090F9001AA
:100B7500EEE02DF09001EDE03CF00EEE640A70A27F
:100B8500EF7004FEFF800FEFFD7C009001EDE0FEAD
:100B9500A3E0FF120833AA06AB079001EAE0D3945D
:100BA500075008EB9405EA94005019900187E0C3BB
:100BB50094FA5003E004F0E4900197F0A3F090015B
:100BC500BAF0A3F09001EBE0D394045008EB940540
:100BD500EA9400403FE4900187F0C3900198E094C7
:100BE500FA900197E064809480500CA3E004F070C3
:100BF50006900197E004F0C39001BBE094FA9001E0
:100C0500BAE064809480500CA3E004F07006900173
:100C1500BAE004F09001ECE0D394075009C3EB94DB
:100C250064EA94004028E4900187F0900197F0A3CE
:100C3500F0C39001BBE094FA9001BAE0648094801F
:100C4500500CA3E004F070069001BAE004F09001A6
:100C550087E0D394034011900156E09001BFF090D6
:100C650001567401F0021FC7D3900198E0941490C7
:100C75000197E0648094804016E49001BAF0A3F0F7
:100C8500900156E09001BFF09001567403F022D315
:100C95009001BBE094039001BAE064809480400F1A
:100CA500900156E09001BFF09001567402F0229039
:070CB50001BFE0900156F0C1
:010CBC002215
:101C5C00EF1209221C8E081C850C1C82161C88187D
:101C6C001C911C1C97421C9D4A1C9A521C945A1C79
:101C7C008B5E00001C9F7F00227F01227F02227F4F
:101C8C0003227F04227F05227F06227F07227F0802
:041C9C00227F092278
:030003000219CA15
:0D19CA00C0E0C083C082C0D075D000C0074F
:1019D700300039900116E0FFC3943F500BEFC394DA
:1019E700214005900107E4F0900107E024C3F58248
:1019F700E43401F583EFF0900116E4F0900107E07D
:101A070004F0E0B4210DD203E4F08007900116E45E
:031A1700F0D2000A
:0B1A1A00D007D0D0D082D083D0E032C3
:100026002007030203969001B6E012092201800719
:1000360003180802790903180C00DE1503181603C5
:10004600181803181C00A040031842006D44022B28
:1000560045022B46022B4703184A03185203185A27
:1000660003185E00000396900155E07002806F90C1
:100076000155E0FF64016004EFB402059001C08001
:1000860014900155E0FF64046008EF640560030204
:100096000396900108E024028033900155E0700336
:1000A600020186900155E0FF64016004EFB4020787
:1000B6009001C0E0048016900155E0FF64046008DA
:1000C600EF64056003020396900108E00475F003EF
:1000D60084AFF0EFF002038E900155E070099001B5
:1000E60048E0240202018B900155E0FF640160059F
:1000F600EF6402703A9001C0E0FF2430F582E434E8
:1001060001F583E024D975F00A84E5F02430FE7405
:10011600302FF582E43401F583EEF07B017A017924
:10012600307D037F031215A39001C0E002038E9079
:100136000155E0FF64046008EF640560030203965E
:10014600900108E0FF24E4F582E43401F583E0241D
:10015600D975F00A84E5F02430FE74E42FF582E4C4
:100166003401F583EEF07B017A0179E47D037F03A8
:100176001215A3900108E002038E900155E070125B
:10018600900148E00475F00384AFF0EFF0D20C0262
:100196001978900155E0FF64016005EF6402703A3A
:1001A6009001C0E0FF2430F582E43401F583E024B9
:1001B600D175F00A84E5F02430FE74302FF582E420
:1001C6003401F583EEF07B017A0179307D037F03FC
:1001D6001215A39001C0E002038E900155E0FF6462
:1001E600046008EF64056003020396900108E0FFCF
:1001F60024E4F582E43401F583E024D175F00A8421
:10020600E5F02430FE74E42FF582E43401F583EE44
:10021600F07B017A0179E47D037F031215A3900137
:1002260008E002038E900155E0FFB402047401F069
:1002360022EFB401028019900155E0B4030280391F
:10024600900155E0FFB405047404F022EFB40408ED
:10025600E4900155F0021FF7900155E0B4060280C4
:1002660018E4900155F0122018C205120006D20CAF
:10027600021F0A900155E07008900148E0FF02183D
:1002860038900155E0FF64016005EF640270399013
:100296000131E024D075F00AA4FF900130E024D0AB
:1002A60075F064A42FFF900132E024D02F9001BE98
:1002B600F01213F07BFF7A1779207D047F02121566
:1002C600A39001557403F022900155E0FF64046089
:1002D60008EF640560030203969001E5E024D075FB
:1002E600F00AA4FF9001E4E024D075F064A42FFF87
:1002F6009001E6E024D02F900153F01213F07BFF1B
:100306007A1779207D047F021215A3900155740691
:10031600F022900155E0FF64016005EF6402702E43
:100326009001B6E0FF121C5CEF2430FF9001C0E0A4
:100336002430F582E43401F583EFF07B017A01790C
:10034600307D037F031215A39001C0E0803A90012F
:1003560055E0FF64046005EF640570349001B6E073
:10036600FF121C5CEF2430FF900108E024E4F582C4
:10037600E43401F583EFF07B017A0179E47D037FB4
:10038600031215A3900108E02403FF7D0312200940
:010396002244
:101CE3007E01E4FD7C0174C32EF582E43401F583A7
:101CF300E0D394074004EF4480FFECC394085004FE
:101D0300EFC313FF0E0CECB409DC74B42DF582E4BD
:0F1D13003401F583EFF0E4FF0DEDB404C7D20AFD
:011D2200229E
:101F4B00300710300305121CE3C203300A051200E0
:041F5B0026C20A226E
:03000B000217BE1B
:1017BE00C0E0C083C082C0D075D00830070E758CD3
:1017CE00FF758A00900116E004F08055758C4C75FB
:1017DE008AD0900156E0FF64026004EFB403429099
:1017EE0001C2E004F070069001C1E004F0C3900164
:1017FE00C2E094B09001C1E094044025E4F0A3F05F
:10180E009001E9E004F070069001E8E004F0C39066
:10181E0001E9E094A09001E8E094054004E4F0A30F
:0A182E00F0D0D0D082D083D0E03299
:101EA700121357121CA0D20C121F0A9001157401AD
:101EB700F090010BF0121A7D121743300903120F2D
:101EC700B3120B15121AD4121E0C121D61121F4BDE
:021ED70080D9B0
:03000000021517CF
:0C151700787FE4F6D8FD75812102155E96
:1006D300E709F608DFFA8046E709F208DFFA803E09
:1006E30088828C83E709F0A3DFFA8032E309F608F6
:1006F300DFFA8078E309F208DFFA807088828C835E
:10070300E309F0A3DFFA806489828A83E0A3F60811
:10071300DFFA805889828A83E0A3F208DFFA804CEB
:1007230080D280FA80C680D4806980F280338010C2
:1007330080A680EA809A80A880DA80E280CA80332B
:1007430089828A83ECFAE493A3C8C582C8CCC583A3
:10075300CCF0A3C8C582C8CCC583CCDFE9DEE78073
:100763000D89828A83E493A3F608DFF9ECFAA9F0F2
:10077300EDFB2289828A83ECFAE0A3C8C582C8CC48
:10078300C583CCF0A3C8C582C8CCC583CCDFEADE61
:10079300E880DB89828A83E493A3F208DFF980CCC3
:1007A30088F0EF60010E4E60C388F0ED2402B404BC
:1007B3000050B9F582EB2402B4040050AF23234563
:0607C3008223900723735E
:1007C900BB010689828A83E0225002E722BBFE022E
:0907D900E32289828A83E4932261
:1007E200BB010CE58229F582E5833AF583E02250CC
:1007F20006E92582F8E622BBFE06E92582F8E22216
:0D080200E58229F582E5833AF583E493222F
:10080F00BB010689828A83F0225002F722BBFE01C8
:02081F00F322C2
:10082100EF8DF0A4A8F0CF8CF0A428CE8DF0A42EEB
:02083100FE22A5
:10083300BC000BBE0029EF8DF084FFADF022E4CCA9
:10084300F875F008EF2FFFEE33FEEC33FCEE9DEC72
:10085300984005FCEE9DFE0FD5F0E9E4CEFD22EDB8
:10086300F8F5F0EE8420D21CFEADF075F008EF2F02
:10087300FFED33FD4007985006D5F0F222C398FDF3
:050883000FD5F0EA2290
:10088800C5F0F8A3E028F0C5F0F8E58215827002FB
:060898001583E038F02298
:10089E00A3F8E0C5F025F0F0E5821582700215830D
:0608AE00E0C838F0E8226A
:1008B400E88FF0A4CC8BF0A42CFCE98EF0A42CFCE3
:1008C4008AF0EDA42CFCEA8EF0A4CDA8F08BF0A461
:1008D4002DCC3825F0FDE98FF0A42CCD35F0FCEBC0
:1008E4008EF0A4FEA9F0EB8FF0A4CFC5F02ECD3985
:0F08F400FEE43CFCEAA42DCE35F0FDE43CFC22F2
:10090300E8600FECC313FCED13FDEE13FEEF13FFD2
:03091300D8F122F6
:0C091600ECF0A3EDF0A3EEF0A3EFF02254
:10092200D083D082F8E4937012740193700DA3A364
:1009320093F8740193F5828883E473740293686078
:06094200EFA3A3A380DF78
:10152300021EA7E493A3F8E493A34003F68001F219
:1015330008DFF48029E493A3F85407240CC8C333C9
:10154300C4540F4420C8834004F456800146F6DF98
:10155300E4800B0102040810204080900948E47ED7
:10156300019360BCA3FF543F30E509541FFEE4938D
:10157300A360010ECF54C025E060A840B8E493A354
:10158300FAE493A3F8E493A3C8C582C8CAC583CA7F
:10159300F0A3C8C582C8CAC583CADFE9DEE780BE37
:010B140000E0
:00000001FF
