:10038400420175000060C60001000000000000008A
:100394000000000000000000000000000000000059
:1003A4000000000000000000000000000000000049
:1003B4000000000000000000000000000000000039
:1003C4000000000000000000000000000000000029
:1003D4000000000000000000000000000000000019
:1003E4000000000000000000000000000000000009
:1003F40000000000000000000000000000000000F9
:1004040000000000000000000000000000000000E8
:1004140000000000000000000000000000000000D8
:1004240000000000000000000000000000000000C8
:1004340000000000000000000000000000000000B8
:10044400000000000000000000000000000000C1E7
:1004540003C105C102C1084200CB0000410177027B
:100464004100D0004100CA20C187C181500162000F
:100474000102030405060708090A0B0C0D0E0F60A0
:100484009000D200000000000000180000100000DE
:1004940010000010001010181FFFF810101010109A
:1004A400101010101010101010101FFFF01010106A
:1004B40000101000100000100000100000100000D8
:1004C40010000010000010000000000000000000F8
:1004D400001800181FFFF81800181800D819FF3862
:1004E40018181818181818181818199818FE181821
:1004F4001A181819181819981818981818581FFF46
:10050400F81800181800181FFFF818001818001021
:100514000000001F22BBB6D3ADCAB9D3C3BFF3B525
:10052400C6B3E4B5E7BCDCD6C7C4DCB9DCC0EDCFE8
:04053400B5CDB3008E
:100E91002002267E08EFC4131313540113B392A545
:100EA100EDC4131313540113B392A4C2A7D2A7EF35
:090EB10025E0FFED25E0FDDEDC8B
:010EBA002215
:100EBB002002177E08EFC4131313540113B392A52A
:0A0ECB00C2A7D2A7EF25E0FFDEEB7F
:010ED50022FA
:0506B7009003D1EDF0FD
:1006BC009000CAE0FEEF8EF0A4FF9003D2E5F0F0BC
:1006CC00A3EFF0E4F9900177E0FFE9C39F40030248
:1006DC0007FC2008030207C79003D1E0FEC3940077
:1006EC0050379000CAE0C313FD9003D3E02DFD906A
:1006FC0003D2E03400FCEF8EF0A42DFFE5F03CFEBD
:10070C00E97C002FFFEC3EFE74782FF58274013EDD
:10071C00F583E0FDE4FF0207C29003D1E0FFC39430
:10072C0008402D900177E08FF0A4FF9003D3E02FC9
:10073C00FF9003D2E035F0FEE97C002FFFEC3EFE8B
:10074C0074782FF58274013EF583E0FFE4FD80663A
:10075C009003D1E0FF900177E08FF0A4FF9003D2DB
:10076C00E0FCA3E0FD2FFFEC35F0FEE97A002FFF53
:10077C00EA3EFE74782FF58274013EF583E0FB901F
:10078C0000CAE0C313FF7E00ED2FFDEE3CFC90038E
:10079C00D1E0FF900177E08FF0A42DFFE5F03CFE57
:1007AC00E97C002FFFEC3EFE74782FF58274013E3D
:1007BC00F583E0FDAF03120E9180319003D1E0FF81
:1007CC00900177E08FF0A4FF9003D3E02FFF90030C
:1007DC00D2E035F0FEE97C002FFFEC3EFE74782F62
:1007EC00F58274013EF583E0FF120EBB090206D1BF
:0107FC0022DA
:03000B00020DA142
:100DA100C0E0C0F0C083C082C0D075D008758CFC93
:100DB100758A6A20052A9000CFE004F07006900041
:100DC100CEE004F09000D1E0FF7E007C037DE812CC
:100DD100094E9000CEE0B50E07A3E0B50F02D20593
:100DE100300704C207D204D0D0D082D083D0F0D053
:020DF100E032EE
:1009E400200103020ACE300203020ACEE49003D0AF
:1009F400F09003D0E0FFC3940450119000CBA3E027
:100A0400FD1206B79003D0E004F080E5E49003D033
:100A1400F09000D0E0FF9003D0E0C39F500BE4FDC2
:100A2400FF120E91E004F080E8C2A6D2A69000CB9B
:100A3400A3E02462F582E43401F583E0FFE5A054E9
:100A4400F0FEEF4EF5A09000CCE004F070069000AC
:100A5400CBE004F0300837C39000CCE09408900059
:100A6400CBE094004004E4F0A3F0900177E0FFFDB4
:100A7400900174E02DF0900173E03400F0EFC45461
:100A8400F0C313FFE07003A3E06F703E8036C390A1
:100A940000CCE094109000CBE094004004E4F0A378
:100AA400F0900177E0FFFD900174E02DF090017368
:100AB400E03400F0EF75F010A4FFE0B5F00CA3E013
:0A0AC400B50707E4900173F0A3F0FA
:010ACE002205
:0A0F6900AF99BFF003D38001C3224B
:030023000207FDD4
:1007FD00C0E0C0F0C083C082C0D075D000C000C0C2
:10080D0004C005C006C0072098030208DCC2981278
:10081D000F6950099001727405F00208E1900172A0
:10082D00E0FFB40513E599B401067406F00208E182
:10083D00900172E4F00208E1EFB40613E59990011E
:10084D0072B403067407F00208E1E4F00208E1EF68
:10085D00B4071EE599900172B405127404F090016D
:10086D0075E4F0A3F09000CDF0D2028067E4F08043
:10087D0063EF6404705EB2B590017575F0011209F5
:10088D0060FE747825F0F58274013EF583E599F0EC
:10089D00900175E0FCA3E0FD64024C700F900178AF
:1008AD00E0C45400FFA3E02F9000CDF09000CDE008
:1008BD0075F020A42402FFE435F0FEEF25E0FFEEF5
:1008CD0033FEC3ED9FEC9E400BD2B5D203800530B5
:1008DD009902C299D007D006D005D004D000D0D04F
:0908ED00D082D083D0F0D0E032BB
:100E3300C2B6C2B7438901758CFC758A6AD2A9D23E
:100E43008C759850438920758DFD758BFDD28E75F9
:100E5300B810D2ACD2AAD28AD2AF120003C20022F7
:100CC500E4FFFE12000E9000C9E0FD7F047E0012D5
:100CD5000ED69000D1E0FD7F067E00120ED6E49080
:100CE50003D0F09000C9E0FF9003D0E0C39F5053BC
:100CF500E4A3F09003D1E0FDC39420503E9003D0CF
:100D0500E0FC75F020A42400FFE5F03401FEED7A47
:100D1500002FFFEA3EFEEC75F021A42401F582E4E4
:100D25003400F583E5822DF582E43583F583E0FD16
:100D3500120ED69003D1E004F080B89003D0E00401
:030D4500F080A09B
:010D48002288
:100B8C007F029000CDE09000C9F00F74782402F53C
:100B9C0082E43401F583E0540FC454F0FE0F7478F2
:100BAC002403F582E43401F583E0540F2EFEE4FDBA
:100BBC009000C9E0FCEDC39C5064E4FCAB070F74DF
:100BCC00782BF582E43401F583E0540FC454F0FB28
:100BDC00ED75F021A42401F582E43400F583E5825F
:100BEC002CF582E43583F583EBF0AB070F74782B8F
:100BFC00F582E43401F583E0540FFBED75F021A48C
:100C0C002401F582E43400F583E5822CF582E43589
:100C1C0083F583E02BF00CECB420A10D8092C20282
:0D0C2C009000D1EEF0120CC5D209020F1D90
:100ACF007F047E00120EEF9000C9EFF0BFFF2F746E
:100ADF0001F09000D1740AF0E49003D1F09003D1AB
:100AEF00E0FF2422F8E6FE74012FF582E43400F5CE
:100AFF0083EEF09003D1E004F0E0B41FE0227F0614
:100B0F007E00120EEF9000D1EFF0BFFF03740AF0DA
:100B1F00E49003D0F09000C9E0FF9003D0E0C39FB2
:100B2F00505AE4A3F09003D1E0FDC39420504590B8
:100B3F0003D0E075F020A42400FFE5F03401FE7C23
:100B4F0000EF2DFFEC3EFE120EEF9003D1E0FE9072
:100B5F0003D0E075F021A42401F582E43400F5837D
:100B6F00E5822EF582E43583F583EFF09003D1E033
:0C0B7F0004F080B19003D0E004F08099F5
:010B8B002247
:0B0539009003D0EBF0A3EAF0A3E9F080
:10054400E4A3F0A3F0A3F0A3F09003D0E0FBA3E0B6
:10055400FAA3E0F99003D4E0FF7E00E92FF9EE3A24
:10056400FA7D101200269003D71209D89003D0E028
:10057400FBA3E0FAA3E0F99003D4E0FF7E00E92FA7
:10058400F9EE3AFA120D499003D6EFF09003D4E055
:100594002FF0C2937F03120F319003D7E0FCA3E046
:1005A400FDA3E0FEA3E0FF78101209C5E4120F31A9
:1005B4009003D7E0FCA3E0FDA3E0FEA3E0FF7808EE
:1005C4001209C5E4120F319003D7E0FCA3E0FDA3A8
:1005D400E0FEA3E0FFE4120F319003D6E064027062
:1005E4004C9003D3F09000CAE0FF9003D3E0C39F84
:1005F40040030206A53002030206B6120F07AD0738
:100604009003D5E0FF9000CAE08FF0A4FF9003D3DD
:10061400E07A002FFFEA35F0FE74782FF58274013A
:100624003EF583EDF09003D3E004F080B89003D658
:10063400E06401706C9003D3F09000CAE0C313FF30
:100644009003D3E0C39F5059200267120F07AD07F0
:100654009003D5E0FF9000CAE08FF0A4FFAEF090C5
:1006640003D3E0FC75F002A42FF582E5F03EF58398
:10067400E5822478F582E5833401F583EDF075F0A5
:1006840002ECA42FF582E5F03EF583E5822479F5AA
:1006940082E5833401F583E4F09003D3E004F08031
:1006A40098D2939003D5E004F0E0C394045003027D
:0206B400054DF2
:0106B6002221
:100DF30020063C200239C2019000C9E0FFD39400D1
:100E0300402B300A07E4900000F0800C900000E0D3
:100E130004F08FF084E5F0F0900000E075F021A479
:100E23002401F9740035F0FA7B01120539D201224D
:0B0F5E00300407C2041209E4D207228D
:0E0F430030030AC203E4900172F0120B8C22FC
:100F1D00300510C205E49000CEF0A3F0A209920AAC
:040F2D00120DF3228C
:100E63007E00744024C0FF131313541F9000D0F06E
:100E7300E4F59575960F120ACF120E33D20A120DAE
:0E0E8300F3120F5E120F43C209120F1D80F30F
:0D0F5100E4F5C7F5C5F5C675C380F5C422EB
:100EEF0075C78375C5018FC4EEF5C375C65A75C630
:070EFF00A500AFC2120F5164
:010F060022C8
:100ED60075C78375C5028FC4EEF5C3AF058FC2759E
:090EE600C65A75C6A500020F51A1
:10000E0075C78375C5038FC4EEF5C375C65A75C61D
:05001E00A500020F51D6
:0B0D49009003DBEBF0A3EAF0A3E9F05D
:100D54009003DBE0FBA3E475F001120960A9F0FA4B
:100D64001208F6FFC3942050037F0022EFC394803F
:100D740050037F01229003DBE0FBA3E475F0011232
:100D84000960A9F0FA1208F6FEEFB48106EEC394E6
:0C0D9400395004EFB482037F04227F0278
:010DA0002230
:100026009003DEEDF09003DBEBF0A3EAF0A3E9F03A
:100036001208F6FFC394804003020123EFC3942005
:1000460050109003DBE0FBA3E0FAA3E0F974201262
:10005600093C9003DBE0FBA3E0FAA3E0F91208F603
:1000660024E0FFE434FFFEE4FCFD9003DF1209D830
:100076009003DEE0B40812A3E0FCA3E0FDA3E0FEDB
:10008600A3E0FFE47B080202DA9003DEE0B40C1280
:10009600A3E0FCA3E0FDA3E0FEA3E0FFE47B0C02EB
:1000A60002DA9003DEE0B4101EE47F10FEFDFCA32E
:1000B600E0F8A3E0F9A3E0FAA3E0FB120976EF2447
:1000C60080FFEE34D780229003DEE0B41822E47F6E
:1000D60030FEFDFCA3E0F8A3E0F9A3E0FAA3E0FB01
:1000E600120976E42FFFEE34FFFEED341D02030AFB
:1000F6009003DEE0642060030203757F40FEFDFC92
:10010600A3E0F8A3E0F9A3E0FAA3E0FB120976EF77
:100116002450FFEE345AFEED341E02030A9003DB30
:10012600E0FBA3E0FAA3E0F91208F6FF9003E3F080
:1001360090000112090F9003E4F0EFC394A1401060
:100146009003E3E0D394AB5007A3E0C394A15020FF
:100156009003E3E0FFC394A85003020279EFD3941F
:10016600A94003020279A3E0C394A14003020279E5
:100176009003E3E0FFC394A1402EEFD394AB502845
:10018600A3E0FBC394A140209003E3E0245FFFE4D7
:1001960034FFFE7C007D5E12094EEB245FFDEC34DD
:1001A600FFCD2FFFED3E80269003E4E0D3947F4001
:1001B60003E014F09003E3E0FF7E007C007D601214
:1001C600094EA3E02FFFEC3ECF240ECF34C4FEE44D
:1001D600FD9003DF1209D89003DEE0B40C15E47F2E
:1001E60018FEFDFCA3E0F8A3E0F9A3E0FAA3E0FB08
:1001F6000209769003DEE0B41022E47F20FEFDFCC7
:10020600A3E0F8A3E0F9A3E0FAA3E0FB120976EF76
:1002160024D0FFEE34C9FEED3402804F9003DEE0B9
:10022600B41822E47F48FEFDFCA3E0F8A3E0F9A39E
:10023600E0FAA3E0FB120976EF2490FFEE3481FE8C
:10024600ED340680269003DEE0B42024E47F80FEB1
:10025600FDFCA3E0F8A3E0F9A3E0FAA3E0FB120992
:1002660076E42FFFEE34DFFEED340EFDE43CFC2297
:1002760002036F9003E3E0FFC394B04035EFD394DD
:10028600F7502FA3E0FBC394A140279003E3E0249B
:1002960050FFE434FFFE7C007D5E12094EEB245FC6
:1002A600FDEC34FFCD2FFFED3EFEE4FD9003DF12A3
:1002B60009D89003DEE0B40C24A3E0FCA3E0FDA380
:1002C600E0FEA3E0244EFFEE3403FEE43DFDE43CF5
:1002D600FCE47B18FAF9F81209760203679003DE4C
:1002E600E0B41026E47F20FEFDFCA3E0F8A3E0F9CD
:1002F600A3E0FAA3E0FB120976EF2490FFEE343375
:10030600FEED3403FDE43CFC80579003DEE0B418B8
:1003160026E47F48FEFDFCA3E0F8A3E0F9A3E0FA9B
:10032600A3E0FB120976EF2480FFEE346FFEED3476
:1003360007FDE43CFC802A9003DEE0B4202BE47F3A
:1003460080FEFDFCA3E0F8A3E0F9A3E0FAA3E0FB3E
:10035600120976E42FFFEE3486FEED3410FDE43C00
:10036600FC9003DF1209D88006E4FFFEFDFC229014
:0D03760003DFE0FCA3E0FDA3E0FEA3E0FF39
:010383002257
:0100030022DA
:100F3100E4FEC297EF25E0FF9295D2970EEEB4083A
:010F4100F1BE
:010F4200228C
:100F0700E4FEC297EF25E0FFA296E4334FFFD297A6
:050F17000EEEB408ED30
:010F1C0022B2
:03000000020C39B6
:0C0C3900787FE4F6D8FD758140020C8045
:1008F600BB010689828A83E0225002E722BBFE0200
:09090600E32289828A83E4932232
:10090F00BB010CE58229F582E5833AF583E022509D
:10091F0006E92582F8E622BBFE06E92582F8E222E7
:0D092F00E58229F582E5833AF583E4932201
:10093C00BB010689828A83F0225002F722BBFE019A
:02094C00F32294
:10094E00EF8DF0A4A8F0CF8CF0A428CE8DF0A42EBD
:02095E00FE2277
:10096000A3F8E0C5F025F0F0E5821582700215834A
:06097000E0C838F0E822A7
:10097600E88FF0A4CC8BF0A42CFCE98EF0A42CFC20
:100986008AF0EDA42CFCEA8EF0A4CDA8F08BF0A49E
:100996002DCC3825F0FDE98FF0A42CCD35F0FCEBFD
:1009A6008EF0A4FEA9F0EB8FF0A4CFC5F02ECD39C2
:0F09B600FEE43CFCEAA42DCE35F0FDE43CFC222F
:1009C500E8600FECC313FCED13FDEE13FEEF13FF10
:0309D500D8F12234
:0C09D800ECF0A3EDF0A3EEF0A3EFF02292
:100C4500020E63E493A3F8E493A34003F68001F254
:100C550008DFF48029E493A3F85407240CC8C333B0
:100C6500C4540F4420C8834004F456800146F6DF7F
:100C7500E4800B0102040810204080900384E47E88
:100C8500019360BCA3FF543F30E509541FFEE49374
:100C9500A360010ECF54C025E060A840B8E493A33B
:100CA500FAE493A3F8E493A3C8C582C8CAC583CA66
:100CB500F0A3C8C582C8CAC583CADFE9DEE780BE1E
:0105380000C2
:00000001FF
