:0D1E9300E4F5C7F5C5F5C675C380F5C4229A
:101DCD0075C78375C5018FC4EEF5C375C65A75C643
:071DDD00A500AFC2121E9326
:011DE40022DC
:101DB40075C78375C5028FC4EEF5C3AF058FC275B1
:091DC400C65A75C6A500021E9363
:10000E0075C78375C5038FC4EEF5C375C65A75C61D
:05001E00A500021E9385
:10146D00D0D5C3FBA3BA00B2BFC3C5A3BA00B9A4FC
:10147D00D6D6A3BA00B5D8D6B7C9E8D6C300C1C170
:10148D00B6C8C9E8D6C300B5F7CAD4C9E8D6C300F3
:10149D00BCECB2E2D7B4CCACD6D000BFF3B5C6B17C
:1014AD00BBC8A1D7DF00BFF3B5C6B3E4B5E7D6D04F
:1014BD0000BFF3B5C6D2D1B3E4C2FA00B7A2C9FAE0
:1014CD00B9CAD5CFA3A100B5F7CAD400C9E8D6C310
:1014DD0000C9E8D6C3CDEAB1CF210000000000005D
:1014ED00000000003031323334353637383941425F
:0414FD0043444546D9
:1009480049010CFF146DFF1474FF147B490144FF27
:100958001482FF148BFF14945B01930000000000C5
:10096800000000000000000000000000000000007F
:100978000000000000004F0182FF149DFF14A8FF33
:1009880014B3FF14BEFF14C94101500041010A000D
:100998004101430041014E004101B8004101B2004C
:1009A8004101B700410129004201270000C101C1EE
:1009B8000AC106C102C105C104C107C18841014F6E
:1009C800004101BA00410108004101420044012AE6
:1009D800000000004401DC000000004101B90041B2
:0D09E80001810042019100004201B40000B5
:031EE600DFFE22FA
:101DFD00AE07AF061EEF600C7FF5121EE67FF512E3
:051E0D001EE680EE223C
:041A8C00AB05AA07F5
:101A90009001B8E0FF7E007C037DE8120833AF05BB
:101AA000EFF0E0FE75F0648424309001E0F0EE7514
:101AB000F06484E5F075F00A842430A3F0EF75F04B
:101AC0000A84E5F02430A3F0E4A3F0AF02AE03AD46
:0A1AD000067B017A0179E00216ABF3
:10182200E49001E1F0A3F0A3F0A3F0200550120030
:1018320006E49001E0F09001E0E0FF75F003A424DB
:101842000CF582E43401F583E0FBA3E0FAA3E0F9AE
:10185200EF04FDE4FF1216209001E0E075F009A408
:101862002493F9740135F0FA7B01E004FD7F031241
:0E18720016209001E0E004F0E0C3940340B8BB
:011880002245
:101DE5002005149001B3E0B40106300B031218224C
:081DF5007D017F0D121A8C2202
:1013D900E4FFFE12000E9001B8E0FDE4FFFE121DCD
:1013E900B490014DE0FD7F027E00121DB49001B75B
:1013F900E0B401069001B37401F09001B3E0FD7F00
:10140900047E00121DB4E49001E0F0E49001E1F0E3
:101419009001E1E0FDC39408503D9001E0E0FC75C6
:10142900F008A42408FFE435F0FEED7A002FFFEA66
:101439003EFEEC75F009A42493F582E43401F583AA
:10144900E5822DF582E43583F583E0FD121DB49024
:1014590001E1E004F080B99001E0E004F0E0C39418
:031469000340A895
:01146C00225D
:10173600E4FF300A75C20A9001B704F0E4FEE4FD46
:10174600AC070F74512CF582E43401F583E0C454E0
:10175600F0FCEE75F009A42493F582E43401F583D8
:10176600E5822DF582E43583F583ECF0AC070F7442
:10177600512CF582E43401F583E0540FFCEE75F04C
:1017860009A42493F582E43401F583E5822DF582DC
:10179600E43583F583E02CF00DEDB408A30EEEB42A
:0A17A600039CD20B121DE51213D9AB
:0117B0002216
:0A1EAB00D2B78F99C2993099FD2239
:0300230002108642
:10108600C0E0C083C082C0D075D000C007209803DE
:10109600021151C298E5995480602D2480600302A4
:1010A6001161AF99EF2480601624C06003021161BC
:1010B6003005030211619001437403F0021161903F
:1010C60001437404F0021161900143E014604C2462
:1010D600FD601E0460030211619001B8E0B5990F2E
:1010E600B2949001437401F090014EE4F0806C805C
:1010F600219001B8E0B5991AB2949001437402F0B8
:10110600C292900150E04450FF121EABD292D2948C
:101116008049900143E4F0D2948040E59954F0640C
:1011260060703890014EE0FF04F074512FF582E4B0
:101136003401F583E599F090014EE06430701CD2DD
:1011460094900143F0D20AB2B4801030990DC2993E
:10115600900143E0B40202E4F0C2B7D007D0D0D089
:0611660082D083D0E032CC
:101CCF00C2B7759850438920758DFD758BFDD28EE7
:101CDF00759D03E4F5BD75BC8075B810D2ACD2AF5D
:101CEF00121EDF121BA77F1490012E74FFF0A3DFCB
:051CFF00FCC201D2A7A8
:011D040022BC
:101D05009001B8E0FD75F06484243090012AF0ED6F
:101D150075F06484E5F075F00A842430A3F0900131
:101D2500B8E075F00A84E5F0243090012CF0E4A3C6
:021D3500F0229A
:101D370090014DE0FD75F0648424309001DCF0EDF6
:101D470075F06484E5F075F00A842430A3F09001FF
:101D57004DE075F00A84E5F024309001DEF0E4A34D
:021D6700F02268
:101E1200D207D288D2A8438901758CFFE4F58AD211
:041E2200A9D28C2293
:091EBF00C207C2A8C28CC2A9220C
:071ED800300703121EBF22B8
:09188100E4F0900142E0FFC20B0B
:10188A009001E0EFF012000630080D7BFF7A147920
:10189A00D47D01E4FF1216207BFF7A1479D97D01E9
:1018AA007F031216209001E0E075F003A42444F5AA
:1018BA0082E43401F583E0FBA3E0FAA3E0F97D02B8
:1018CA007F02121620300B097B1A7D027F01121546
:0218DA000122E9
:0A1EB500900142E0FFD20B02188AF0
:1017B100EF14603114605F2402706590014F740171
:1017C100F09001BA121881121D057B017A01792A64
:1017D1007D037F031216207B1A7D037F0212150100
:1017E1009001BA802890014F7404F09001081218FA
:1017F10081121D377B017A0179DC7D037F0312168B
:10180100207B1A7D037F02121501900108E0240359
:10181100FF7D03021ED0E490014FF0B208121EB505
:0118210022A4
:101C240020B5367F0A121DFD20B52E30B5FD2005E6
:101C340016D205121EC8D207121E12E490014FF0EC
:101C4400900142F0021EB5E490014FF0121ED8C27A
:0A1C540005120006D20B121DE52256
:100F9C0078E07C017D017BFF7A1479E87E007F0587
:100FAC001207A378E57C017D017BFF7A1479ED7E35
:100FBC00007F041207A330050302108530067BC2A4
:100FCC0006900127E0FAA3E0FB7C037DE8FFAE026C
:100FDC00120833EF24309001E0F07C037DE8AF037E
:100FEC00AE021208337E007F64CFCDCFCECCCE12B2
:100FFC000833EF2430A3F0900127A3E07C007D643C
:10100C00FFAE021208337E007F0ACFCDCFCECCCEFE
:10101C00120833EF24309001E2F07C007D0AAF031C
:10102C00AE02120833ED2430A3F0E4A3F07B017A76
:10103C000179E07D047F0C1216AB30023CC20290A9
:10104C00010AE0FD75F0648424309001E5F0ED7543
:10105C00F06484ADF0ED75F00A842430A3F0ED75E6
:10106C00F00A84E5F02430A3F0E4A3F07B017A01CC
:09107C0079E57D037F0D1216AB2E
:011085002248
:10198F00200552900150E014601214601414601678
:10199F0014601824047017121E768012121E5880BD
:1019AF000D121E498008121E3A8003121E677D0415
:1019BF00E4FF1212A6900150E075F003A42482F503
:1019CF0082E43401F583E0FBA3E0FAA3E0F97D04A0
:0619DF007F011216202218
:10134000E4FFFE121DCD9001B8EFF0BFFF02E4F004
:101350007F027E00121DCD90014DEFF0BFFF02E431
:10136000F07F047E00121DCD9001B3EFF0D3940105
:101370004002E4F0E49001E0F0E49001E1F090013B
:10138000E1E0FDC3940850449001E0E075F008A44A
:101390002408FFE435F0FE7C00EF2DFFEC3EFE124A
:1013A0001DCD9001E1E0FE9001E0E075F009A4247C
:1013B00093F582E43401F583E5822EF582E43583EA
:1013C000F583EFF09001E1E004F080B29001E0E0FD
:0813D00004F0E0C3940340A106
:0113D80022F2
:101C9700C20BEF4488F5BC200B08E5BCA2E4920B0D
:101CA70080F5EDAFBDB40A14EF75F004A4FFE5BEEF
:101CB70054037C002FFBEC35F0FA80047A00AB0765
:071CC70075BC00AF03AE0283
:011CCE0022F3
:1019E5007D0AE4FF121C97900127EEF0A3EFF0A308
:1019F500E0FD04F0ED75F00A84E5F025E0242EF510
:101A050082E43401F583EEF0A3EFF0D2067F641291
:101A15001DFD7D087F01121C9790010AEFF0D2028F
:101A250090014DE0FEEFD39E4004C2A78002D2A7ED
:051A35007F64021DFDAD
:100B0000E49001E0F0FFF9A3F0A3F0A3F0A3F0FB61
:100B1000FAFEEE25E0242EF582E43401F583E0FCB4
:100B2000A3E0FDBCFF07BDFF04E4020CA1ED4C7087
:100B3000089001E0E004F08031D3ED9464EC64802F
:100B4000948040059001E2800ED3ED940FEC648018
:100B5000948040089001E1E004F08001090F9001C9
:100B6000E4E02DF09001E3E03CF00EEE640A70A2A8
:100B7000EF7004FEFF800FEFFD7C009001E3E0FECC
:100B8000A3E0FF120833AA06AB079001E0E0D3947C
:100B9000075008EB9405EA94005019900181E0C3D6
:100BA00094FA5003E004F0E4900191F0A3F0900176
:100BB000B4F0A3F09001E1E0D394045008EB940565
:100BC000EA9400403FE4900181F0C3900192E094E8
:100BD000FA900191E064809480500CA3E004F070DE
:100BE00006900191E004F0C39001B5E094FA900101
:100BF000B4E064809480500CA3E004F0700690018F
:100C0000B4E004F09001E2E0D394075009C3EB9400
:100C100064EA94004028E4900181F0900191F0A3EF
:100C2000F0C39001B5E094FA9001B4E06480948040
:100C3000500CA3E004F070069001B4E004F09001C1
:100C400081E0D39403400F900150E09001B9F090FF
:100C500001507401F022D3900192E094149001911C
:100C6000E0648094804016E49001B4F0A3F0900119
:100C700050E09001B9F09001507403F022D390013C
:100C8000B5E094039001B4E064809480400F90013B
:100C900050E09001B9F09001507402F0229001B937
:050CA000E0900150F09E
:010CA500222C
:101B2300EF1209221B55081B4C0C1B49161B4F189F
:101B33001B581C1B5E421B644A1B61521B5B5A1BD6
:101B4300525E00001B667F00227F01227F02227FFC
:101B530003227F04227F05227F06227F07227F083C
:041B6300227F0922B2
:030003000218DC04
:0D18DC00C0E0C083C082C0D075D000C0073E
:1018E900300039900116E0FFC3943F500BEFC394C9
:1018F900214005900107E4F0900107E024BBF5823F
:10190900E43401F583EFF0900116E4F0900107E06B
:1019190004F0E0B4210DD203E4F08007900116E44D
:03192900F0D200F9
:0B192C00D007D0D0D082D083D0E032B2
:100026002007030203969001B0E01209220180071F
:1000360003180802790903180C00DE1503181603C5
:10004600181803181C00A040031842006D44022B28
:1000560045022B46022B4703184A03185203185A27
:1000660003185E0000039690014FE07002806F90C7
:10007600014FE0FF64016004EFB402059001BA800D
:100086001490014FE0FF64046008EF64056003020A
:100096000396900108E02402803390014FE070033C
:1000A60002018690014FE0FF64016004EFB402078D
:1000B6009001BAE004801690014FE0FF64046008E6
:1000C600EF64056003020396900108E00475F003EF
:1000D60084AFF0EFF002038E90014FE070099001BB
:1000E60042E0240202018B90014FE0FF64016005AB
:1000F600EF6402703A9001BAE0FF242AF582E434F4
:1001060001F583E024D975F00A84E5F02430FE7405
:100116002A2FF582E43401F583EEF07B017A01792A
:100126002A7D037F031216209001BAE002038E9007
:10013600014FE0FF64046008EF6405600302039664
:10014600900108E0FF24DCF582E43401F583E02425
:10015600D975F00A84E5F02430FE74DC2FF582E4CC
:100166003401F583EEF07B017A0179DC7D037F03B0
:10017600121620900108E002038E90014FE07012E3
:10018600900142E00475F00384AFF0EFF0D20B0269
:10019600188A90014FE0FF64016005EF6402703A2F
:1001A6009001BAE0FF242AF582E43401F583E024C5
:1001B600D175F00A84E5F02430FE742A2FF582E426
:1001C6003401F583EEF07B017A01792A7D037F0302
:1001D6001216209001BAE002038E90014FE0FF64F0
:1001E600046008EF64056003020396900108E0FFCF
:1001F60024DCF582E43401F583E024D175F00A8429
:10020600E5F02430FE74DC2FF582E43401F583EE4C
:10021600F07B017A0179DC7D037F031216209001C1
:1002260008E002038E90014FE0FFB402047401F06F
:1002360022EFB40102801990014FE0B40302803925
:1002460090014FE0FFB405047404F022EFB40408F3
:10025600E490014FF0021EB590014FE0B406028013
:1002660018E490014FF0121ED8C205120006D20BF8
:10027600021DE590014FE07008900142E0FF021771
:10028600B190014FE0FF64016005EF6402703990A0
:10029600012BE024D075F00AA4FF90012AE024D0B7
:1002A60075F064A42FFF90012CE024D02F9001B8A4
:1002B600F01213D97BFF7A1479DE7D047F021216C1
:1002C6002090014F7403F02290014FE0FF64046018
:1002D60008EF640560030203969001DDE024D07503
:1002E600F00AA4FF9001DCE024D075F064A42FFF8F
:1002F6009001DEE024D02F90014DF01213D97BFF40
:100306007A1479DE7D047F0212162090014F74065E
:10031600F02290014FE0FF64016005EF6402702E49
:100326009001B0E0FF121B23EF2430FF9001BAE0EA
:10033600242AF582E43401F583EFF07B017A017912
:100346002A7D037F031216209001BAE0803A9001BD
:100356004FE0FF64046005EF640570349001B0E07F
:10036600FF121B23EF2430FF900108E024DCF58206
:10037600E43401F583EFF07B017A0179DC7D037FBC
:1003860003121620900108E02403FF7D03121ED0FD
:010396002244
:101B67007E01E4FD7C0174BB2EF582E43401F5832C
:101B7700E0D394074004EF4480FFECC3940850047B
:101B8700EFC313FF0E0CECB409DC74AE2DF582E441
:0F1B97003401F583EFF0E4FF0DEDB404C7D2097C
:011BA600221C
:101E2600300710300305121B67C203300905120084
:041E360026C2092295
:03000B00021D983B
:101D9800C0E0C083C08230070C758CFF758A009044
:0C1DA8000116E004F0D082D083D0E032BD
:101D6900121340121CCFD20B121DE59001157401FC
:101D7900F090010BF01219E5121736300803120F13
:0F1D89009C120B0012198F121C24121E2680DCD4
:0B193700900203EBF0A3EAF0A3E9F03C
:10194200900203E0FBA3E475F00112089EA9F0FAED
:101952001207C9FFC3942050037F0022EFC3948073
:1019620050037F0122900203E0FBA3E475F0011211
:10197200089EA9F0FA1207C9FEEFB48106EEC394DD
:0C198200395004EFB482037F04227F027E
:01198E002236
:10039700900206EDF0900203EBF0A3EAF0A3E9F078
:1003A7001207C9FFC394804003020499EFC3942046
:1003B7005010900203E0FBA3E0FAA3E0F9742012C7
:1003C700080F900203E0FBA3E0FAA3E0F91207C9C4
:1003D70024E0FFE434FFFEE4FCFD90020712091657
:1003E700900206E0B40812A3E0FCA3E0FDA3E0FE40
:1003F700A3E0FFE47B08020657900206E0B40C1264
:10040700A3E0FCA3E0FDA3E0FEA3E0FFE47B0C0276
:100417000657900206E0B41023E47F10FEFDFCA30C
:10042700E0F8A3E0F9A3E0FAA3E0FB1208B4EF2495
:10043700C0FFEE34B7FEED3403020686900206E0F5
:10044700B41822E47F30FEFDFCA3E0F8A3E0F9A393
:10045700E0FAA3E0FB1208B4E42FFFEE34FFFEED51
:10046700341D020686900206E0642060030206C47B
:100477007F40FEFDFCA3E0F8A3E0F9A3E0FAA3E0C8
:10048700FB1208B4EF2450FFEE345AFEED341E027F
:100497000686900203E0FBA3E0FAA3E0F91207C97E
:1004A700FF90020BF09000011207E290020CF0EFB0
:1004B700C394A1401090020BE0D394AB5007A3E084
:1004C700C394A1502090020BE0FFC394A8500302ED
:1004D70005D2EFD394A940030205D2A3E0C394A1A8
:1004E70040030205D290020BE0FFC394A1402EEF18
:1004F700D394AB5028A3E0FBC394A1402090020BF8
:10050700E0245FFFE434FFFE7C007D5E120821EBF0
:10051700245FFDEC34FFCD2FFFED3E802690020CCB
:10052700E0D3947F4003E014F090020BE0FF7E00DD
:100537007C007D60120821A3E02FFFEC3ECF240E44
:10054700CF34C4FEE4FD900207120916900206E0BC
:10055700B40C05E47F18800A900206E0B41015E495
:100567007F20FEFDFCA3E0F8A3E0F9A3E0FAA3E0F7
:10057700FB0208B4900206E0B41822E47F48FEFDAF
:10058700FCA3E0F8A3E0F9A3E0FAA3E0FB1208B4A8
:10059700EF2490FFEE3481FEED34068026900206AC
:1005A700E0B42024E47F80FEFDFCA3E0F8A3E0F99B
:1005B700A3E0FAA3E0FB1208B4E42FFFEE34DFFE5A
:1005C700ED340EFDE43CFC220206BE90020BE0FF78
:1005D700C394B04035EFD394F7502FA3E0FBC394F7
:1005E700A1402790020BE02450FFE434FFFE7C007B
:1005F7007D5E120821EB245FFDEC34FFCD2FFFED6C
:100607003EFEE4FD900207120916900206E0B40CC4
:100617001DA3E0FCA3E0FDA3E0FEA3E0244EFFEE54
:100627003403FEE43DFDE43CFCE47B1880229002A9
:1006370006E0B41023A3E0FCA3E0FDA3E0FEA3E0E3
:10064700244EFFEE3403FEE43DFDE43CFCE47B2056
:10065700FAF9F81208B48057900206E0B41826E4B5
:100667007F48FEFDFCA3E0F8A3E0F9A3E0FAA3E0CE
:10067700FB1208B4EF2480FFEE346FFEED3407FD64
:10068700E43CFC802A900206E0B4202BE47F80FE45
:10069700FDFCA3E0F8A3E0F9A3E0FAA3E0FB12084E
:1006A700B4E42FFFEE3486FEED3410FDE43CFC90FD
:1006B70002071209168006E4FFFEFDFC22900207DE
:0B06C700E0FCA3E0FDA3E0FEA3E0FFC9
:0106D2002205
:1009F5006020000000000000000000000000000072
:100A050000000000000000000000000000000000E1
:100A15000000000060200020010101010101010129
:100A250001010101010101010000000000000000B9
:100A35000000000000000000602000E7000000004A
:100A4500FCFCFFFFFFFFFCFC0000000000000000B5
:100A5500FFFFFFFFFFFFFFFF0000000060200067B2
:100A650000000000FC040707070704FC0000000065
:100A750000000000FFFFFFFFFFFFFFFF0000000079
:100A8500602000C700000000FC040707070704FCFE
:100A95000000000000000000FF808080808080FF53
:100AA500000000006020008700000000FC2447874C
:100AB500874724FC0000000000000000FF848281BD
:100AC500818284FF00000000602000A78080808074
:100AD500808080808080808090A0C08000000000A1
:100AE5000000000000000000040201004300400077
:0A0AF50000004100430041004400EE
:101C5E00FFE025E024B8FDEE2DFD121BEF7F647E24
:101C6E0000121C859001E8E09001E6FFE02440FDA3
:071C7E00121BEF7F647E00E2
:101C8500E4FDFCC3ED9FEC9E50070DBD00010C80EB
:011C9500F25C
:011C9600222B
:091BE6007F01121BEF7D407F011D
:101BEF00AB05AA077F967E00121C85C2A5EAB40139
:101BFF0009D2A0121C85C2A1800BC2A07F967E00C5
:101C0F00121C85D2A1121C85C2A4C2A3D2A5AF03F8
:051C1F008F80C2A52228
:101ADA009001E8E09001E2FFE0FBA3E0FAA3E0F95D
:041AEA001207C9FD19
:101AEE00AB05AA077F967E00121C85C2A5EAB4013B
:101AFE0009D2A0121C85C2A1800BC2A07F967E00C7
:101B0E00121C85D2A1121C85D2A4C2A3D2A5AF03EA
:051B1E008F80C2A5222A
:051A3A009001E5EFF052
:101A3F007DC07F01121BEF7DC07F02121BEFE4F907
:101A4F00E924B8FD121BE6E924B8FD7F02121BEF53
:101A5F007D407F02121BEFE49001E6F09001E5E07C
:101A6F00FD7F01121AEEE0FD7F02121AEEA3E004D1
:0C1A7F00F0E0C3944040E509E9B408C45D
:011A8B002238
:101BA700C2A27F887E13121C85D2A27D3F7F0112BD
:101BB7001BEF7DC07F01121BEF7D3F7F02121BEFE2
:101BC7007DC07F02121BEFE4FF121A3A7DB8121B89
:0F1BD700E67DB87F02121BEF7D407F02021BEFFD
:0B0DB6009001F5EBF0A3EAF0A3E9F0D8
:100DC100E4A3F0A3F0A37420F07D10120397900127
:100DD100FB1209169001F5E0FBA3E0FAA3E0F9127A
:100DE10019379001F9EFF0C2937F03121EA0900111
:100DF100FBE0FCA3E0FDA3E0FEA3E0FF78101209F5
:100E010003E4121EA09001FBE0FCA3E0FDA3E0FEC1
:100E1100A3E0FF7808120903E4121EA09001FBE091
:100E2100FCA3E0FDA3E0FEA3E0FFE4121EA09001FD
:100E3100F9E0B4022CE49001F8F09001FAE0FF909F
:100E410001F8E0C39F5060121E859001F8E024472D
:100E5100F582E43400F583EFF09001F8E004F080CE
:100E6100D99001F9E06401703E9001F8F09001FA27
:100E7100E0C313FF9001F8E0C39F502B121E859031
:100E810001F8E0FE25E02447F582E43400F583EF24
:100E9100F0EE25E02448F582E43400F583E4F09097
:090EA10001F8E004F080C6D293D0
:010EAA002225
:08120B009001ECEFF0A3EDF0FF
:10121300120DB69001EE7401F0A37400F0A37447AD
:10122300F09001EDE0FFC394049001F450067401C3
:10123300F0EF80097402F09001EDE024FCC454F057
:101243009001F2F0E49001F3F09001F3E0FEC39417
:1012530002504FA3E0FF9001ECE025E024B8FDEE3F
:101263002D121C7D9001F4E09001F2121C79E490A0
:1012730001F1F09001F4E09001EE121AE17F0A7E91
:1012830000121C859001EFE475F0011208889001AB
:10129300F1E004F0E0C3941040D99001F3E004F0CE
:0212A30080A722
:0112A5002226
:101620009001E5EFF0A3EDF0A3EBF0A3EAF0A3E95E
:01163000F0C9
:10163100E4A3F0A3F09001E6E014F09001E7E0FBF1
:10164100A3E0FAA3E0F91207C9605E9001EAE0C3E2
:10165100940A50551219379001EBEFF09001E6E032
:10166100FF9001E5E0FD9001E7E0FBA3E0FAA3E0D4
:10167100F912120B9001EAE004F09001E8E475F030
:10168100011208889001EBE0B4020A9001E8E475C8
:10169100F0011208889001E5E004F0E0D3940740DE
:0916A1009AE4F0A3E004F0809249
:0116AA00221D
:0B0EAB009001F9EBF0A3EAF0A3E9F0DE
:100EB600E4A3F0A3F0A37420F07D10120397900131
:100EC600FF1209169001F9E0FBA3E0FAA3E0F9127C
:100ED60019379001FDEFF0C2937F03121EA0900117
:100EE600FFE0FCA3E0FDA3E0FEA3E0FF78101209FB
:100EF60003E4121EA09001FFE0FCA3E0FDA3E0FEC8
:100F0600A3E0FF7808120903E4121EA09001FFE097
:100F1600FCA3E0FDA3E0FEA3E0FFE4121EA0900107
:100F2600FDE0B4022CE49001FCF09001FEE0FF909D
:100F360001FCE0C39F505C121E859001FCE0244733
:100F4600F582E43400F583EFF09001FCE004F080D4
:100F5600D99001FDE06401703A9001FCF09001FE29
:100F6600E0C313FF9001FCE0C39F5027121E85903B
:100F760001FCE0FE2447F582E43400F583EFF074CB
:100F8600572EF582E43400F583E4F09001FCE0048A
:050F9600F080CAD293B7
:010F9B002233
:08116C009001F0EFF0A3EDF09B
:10117400120EAB9001F27401F0A37400F0A3744753
:10118400F09001F1E0FFC394089001F85006740157
:10119400F0EF80097402F09001F1E024F833333366
:1011A40054F89001F6F0E49001F7F09001F7E0FEB6
:1011B400C394025051A3E0FF9001F0E025E024B86D
:1011C400FDEE2D121C7D9001F8E0FF9001F6121C3B
:1011D4007AE49001F5F09001F8E0FF9001F2121A20
:1011E400E27F0A7E00121C859001F3E475F001127F
:1011F40008889001F5E004F0E0C3940840D8900119
:06120400F7E004F080A5F4
:01120A0022C1
:1016AB009001E9EFF0A3EDF0A3EBF0A3EAF0A3E9CF
:0116BB00F03E
:1016BC00E4A3F0A3F09001EAE014F09001EBE0FB5E
:1016CC00A3E0FAA3E0F91207C9605E9001EEE0C353
:1016DC00940A50551219379001EFEFF09001EAE09F
:1016EC00FF9001E9E0FD9001EBE0FBA3E0FAA3E041
:1016FC00F912116C9001EEE004F09001ECE475F03D
:10170C00011208889001EFE0B4020A9001ECE47534
:10171C00F0011208889001E9E004F0E0D3940F4046
:09172C009AE4F0A3E004F08092BD
:011735002291
:051501009001E1EDF096
:10150600E4FBE014F00BA3EBF0A37400F0A374A7C4
:10151600F0EFC394049001E850067401F0EF8006E2
:101526007402F0EF24FCC454F09001E6F0E490015C
:10153600E7F09001E7E0FEC394025051A3E0FF906C
:1015460001E1E025E024B8FDEE2D121C7D9001E8B6
:10155600E0FF9001E6121C7AE49001E5F09001E8C4
:10156600E0FF9001E2121AE27F0A7E00121C8590CB
:1015760001E3E475F0011208889001E5E004F0E06B
:0D158600C3941040D89001E7E004F080A568
:011593002235
:0F1E3A009000407401F0A37400F0A374E7F0224D
:0F1E49009000407401F0A37400F0A37467F022BE
:0F1E58009000407401F0A37400F0A374C7F0224F
:0F1E67009000407401F0A37400F0A37487F02280
:0F1E76009000407401F0A37400F0A37400F022F8
:0512A6009001E0EDF0F5
:1012AB00E014F0900040E0F9A3E0FAA3E09001E134
:1012BB00C9F0A3EAF0A3E9F0EFC394049001E7505F
:1012CB00067401F0EF80067402F0EF24FCC454F0B6
:1012DB009001E5F0E49001E6F09001E6E0FEC394A6
:1012EB00025051A3E0FF9001E0E025E024B8FDEEB1
:1012FB002D121C7D9001E7E0FF9001E5121C7AE4B2
:10130B009001E4F09001E7E0FF9001E1121AE27F17
:10131B000A7E00121C859001E2E475F00112088828
:10132B009001E4E004F0E0C3941040D89001E6E0B3
:04133B0004F080A595
:01133F00228B
:081EC800E4900043F0A3F022B6
:080CA6009001E0EFF0A3EDF076
:100CAE00E014F0900043E0FF7004A3E06074900144
:100CBE00E27401F0A37400F0A37400F0EFC3940487
:100CCE009001E850097401F0900043E0800974022D
:100CDE00F0900043E024FCC454F09001E6F0E49060
:100CEE0001E7F09001E7E0FEC394025035A3E090D7
:100CFE000044121C5EE49001E5F0121ADA7F0A7EBF
:100D0E0000121C859001E3E475F001120888900131
:100D1E00E5E004F0E0C3941040E09001E7E004F059
:100D2E0080C19001E0E0FF900043F09001E1E0907F
:100D3E000044F09001E27401F0A37400F0A374205B
:100D4E00F0EFC394049001E850097401F09001E0B3
:100D5E00E080097402F09001E0E024FCC454F090AD
:100D6E0001E6F0E49001E7F09001E7E0FEC39402A3
:100D7E005035A3E09001E1121C5EE49001E5F01203
:100D8E001ADA7F0A7E00121C859001E3E475F001E9
:100D9E001208889001E5E004F0E0C3941040E09062
:070DAE0001E7E004F080C141
:010DB500221B
:081ED000ED04FDD20B020CA68B
:05000600E4FF021A3ABC
:071EDF0075CED075CDC022C5
:0B1EA0008FCFE5CD30E7FB75CDC022F1
:0D1E8500E4F5CFE5CD30E7FBAFCF75CDC064
:011E9200222D
:0300000002159452
:0C159400787FE4F6D8FD7581210215DB9C
:1006D300E709F608DFFA8046E709F208DFFA803E09
:1006E30088828C83E709F0A3DFFA8032E309F608F6
:1006F300DFFA8078E309F208DFFA807088828C835E
:10070300E309F0A3DFFA806489828A83E0A3F60811
:10071300DFFA805889828A83E0A3F208DFFA804CEB
:1007230080D280FA80C680D4806980F280338010C2
:1007330080A680EA809A80A880DA80E280CA80332B
:1007430089828A83ECFAE493A3C8C582C8CCC583A3
:10075300CCF0A3C8C582C8CCC583CCDFE9DEE78073
:100763000D89828A83E493A3F608DFF9ECFAA9F0F2
:10077300EDFB2289828A83ECFAE0A3C8C582C8CC48
:10078300C583CCF0A3C8C582C8CCC583CCDFEADE61
:10079300E880DB89828A83E493A3F208DFF980CCC3
:1007A30088F0EF60010E4E60C388F0ED2402B404BC
:1007B3000050B9F582EB2402B4040050AF23234563
:0607C3008223900723735E
:1007C900BB010689828A83E0225002E722BBFE022E
:0907D900E32289828A83E4932261
:1007E200BB010CE58229F582E5833AF583E02250CC
:1007F20006E92582F8E622BBFE06E92582F8E22216
:0D080200E58229F582E5833AF583E493222F
:10080F00BB010689828A83F0225002F722BBFE01C8
:02081F00F322C2
:10082100EF8DF0A4A8F0CF8CF0A428CE8DF0A42EEB
:02083100FE22A5
:10083300BC000BBE0029EF8DF084FFADF022E4CCA9
:10084300F875F008EF2FFFEE33FEEC33FCEE9DEC72
:10085300984005FCEE9DFE0FD5F0E9E4CEFD22EDB8
:10086300F8F5F0EE8420D21CFEADF075F008EF2F02
:10087300FFED33FD4007985006D5F0F222C398FDF3
:050883000FD5F0EA2290
:10088800C5F0F8A3E028F0C5F0F8E58215827002FB
:060898001583E038F02298
:10089E00A3F8E0C5F025F0F0E5821582700215830D
:0608AE00E0C838F0E8226A
:1008B400E88FF0A4CC8BF0A42CFCE98EF0A42CFCE3
:1008C4008AF0EDA42CFCEA8EF0A4CDA8F08BF0A461
:1008D4002DCC3825F0FDE98FF0A42CCD35F0FCEBC0
:1008E4008EF0A4FEA9F0EB8FF0A4CFC5F02ECD3985
:0F08F400FEE43CFCEAA42DCE35F0FDE43CFC22F2
:10090300E8600FECC313FCED13FDEE13FEEF13FFD2
:03091300D8F122F6
:0C091600ECF0A3EDF0A3EEF0A3EFF02254
:10092200D083D082F8E4937012740193700DA3A364
:1009320093F8740193F5828883E473740293686078
:06094200EFA3A3A380DF78
:1015A000021D69E493A3F8E493A34003F68001F2DB
:1015B00008DFF48029E493A3F85407240CC8C3334C
:1015C000C4540F4420C8834004F456800146F6DF1B
:1015D000E4800B0102040810204080900948E47E5A
:1015E000019360BCA3FF543F30E509541FFEE49310
:1015F000A360010ECF54C025E060A840B8E493A3D7
:10160000FAE493A3F8E493A3C8C582C8CAC583CA01
:10161000F0A3C8C582C8CAC583CADFE9DEE780BEB9
:010AFF0000F6
:00000001FF
