:0D0FD700E4F5C7F5C5F5C675C380F5C42265
:100F5D0075C78375C5018FC48EC375C65A75C6A571
:060F6D0000AFC2120FD715
:010F7300225B
:100F740075C78375C5028FC48EC38DC275C65A7575
:060F8400C6A500020FD714
:100F8A0075C78375C5038FC48EC375C65A75C6A542
:040F9A0000020FD76B
:10096E00D0D5C3FBA3BA00B2BFC3C5A3BA00B9A406
:10097E00D6D6A3BA00B5D8D6B7C9E8D6C300C1C17A
:10098E00B6C8C9E8D6C300BAECCDE2C9E8D6C300F2
:10099E00BAECCDE200C9E8D6C300C4A3C4E2C1BF1D
:1009AE00A3BA00C9E8D6C3CDEAB1CF21000000003A
:1009BE0000000000000000000030313233343536C4
:0909CE00373839414243444546E3
:10045200490000FF096EFF0975FF097C490009FF89
:100462000983FF098CFF09955B0042000000000030
:10047200000000000000000000000000000000007A
:1004820000000000000001390001480001250001C0
:100492004400014600015000014D00C101C10BC1E1
:1004A20007C102C105C104C109C108C1066020001B
:1004B200BD03C003C00FF00FF00FF00FF00FF00FED
:1004C200F00FF00FF00FF00FF00FF00FF00FF00F32
:1004D200F06020005D03C003C00FF0081008100890
:1004E200100810081008100FF00FF00FF00FF00FA7
:1004F200F00FF00FF06020009D03C003C00FF00862
:100502001008100810081008100810081008100829
:10051200100810081008100FF06020007D03C003BF
:10052200C00FF00810081008100C300A500990098A
:10053200900A500C300810081008100FF0023A010F
:10054200F4014700015100012300014300073C0070
:0F05520000000000000007730000000000000020
:05100D00120F127F32FA
:03101200DFFE22DC
:10000E00AE07AF061EEF600C7FF51210127FF512D1
:05001E00101280EE222B
:100FC600C2A0D2A1D2A27580FFE58020E7FBC2A213
:010FD60022F8
:070F0B007F30120F127F403E
:100F1200120FC6C2A0C2A1D2A28F807F05121012E8
:070F2200C2A27F05021012BC
:050F29003EF583E0FF2E
:100F2E00120FC6D2A0C2A1D2A28F807F05121012BC
:070F3E00C2A27F05021012A0
:100C9F00120F0BE4FDFCED25E0FFEC33FE74BD2FCE
:100CAF00F5827400120F29ED25E0FFEC33FE74BEC0
:100CBF002FF5827400120F290DBD00010CED641089
:030CCF004C70D393
:010CD20022FF
:100CD300120F0BE4FDFCED25E0FFEC33FE745D2FFA
:100CE300F5827400120F29ED25E0FFEC33FE745EEC
:100CF3002FF5827400120F290DBD00010CED641055
:030D03004C70D35E
:010D060022CA
:100D0700120F0BE4FDFCED25E0FFEC33FE749D2F85
:100D1700F5827400120F29ED25E0FFEC33FE749E77
:100D27002FF5827400120F290DBD00010CED641020
:030D37004C70D32A
:010D3A002296
:100D3B00120F0BE4FDFCED25E0FFEC33FE747D2F71
:100D4B00F5827400120F29ED25E0FFEC33FE747E63
:100D5B002FF5827400120F290DBD00010CED6410EC
:030D6B004C70D3F6
:010D6E002262
:100E0800AE07ED24FE600F14601114601324037004
:100E180016EE2480800DEE24908008EE248880034E
:100E2800EE2498FF120F12E4FF120F2EE4FF020FB8
:010E38002E8B
:100AFB0075F00A84E5F02430F67A00793C7B007DB2
:030B0B00037F0362
:100B0E00AE07ED24FE600F14601114601324037001
:100B1E0016EE2480800DEE24908008EE248880034B
:100B2E00EE2498FF120F121202CCFFD39400401144
:100B3E00120F2E740129F9E43AFA7F321210128044
:020B4E00E6229D
:100D6F00AE07AC03ED24FE600F1460111460132462
:100D7F00037016EE2480800DEE24908008EE2488F8
:100D8F008003EE2498FF120F12AF04120F2E7F3242
:030D9F000210122D
:100E9B00AE07ED24FE600F14601114601324037071
:100EAB0016EE2480800DEE24908008EE24888003BB
:080EBB00EE2498FF120F122231
:0A0FF0007F01120F127F0F02000EA6
:040B9900AB05AA07F7
:100B9D00AF507E007C037DE81202E58D50E5507567
:100BAD00F064842430F50DE55075F06484E5F0753E
:100BBD00F00A842430F50EE55075F00A84E5F02432
:100BCD0030F50FE4F510AF02AD03FB7A00790D029D
:020BDD000B0EFD
:100A9F00E4F509F50AF50BF50C20054F120FF0E4FC
:100AAF00F508E50875F003A42400F582E43400F599
:100ABF0083E0FBA3E0FAA3E0F9E50804FDE4FF12ED
:100ACF000B0EE50875F009A42442F9740035F0FA0D
:100ADF007B01E50804FD7F03120B0E0508E508C333
:0B0AEF00940340BE7D017F06120B99AE
:010AFA0022D9
:100EEB00E54E601B200518200C0330060630080366
:100EFB00120A9F200C03300606200803120FF02263
:10089000E4FFFE120F8AAD50E4FFFE120F74AD4567
:1008A0007F027E00120F74754E01AD4E7F047E00F4
:1008B000120F74E4F508E4F509E50875F008A424BE
:1008C00008FFE435F0FE7C00EF2509FFEC3EFEE575
:1008D0000875F009A42442F582E43400F583E5822A
:1008E0002509F582E43583F583E0FD120F740509CF
:1008F000E509C3940840C20508E508C3940340B65F
:0109000022D4
:1007AB00E4FF300B6DC20BFEE4FDAC070F74122C93
:1007BB00F582E43400F583E0C454F0FCEE75F009E7
:1007CB00A42442F582E43400F583E5822DF582E41E
:1007DB003583F583ECF0AC070F74122CF582E434FF
:1007EB0000F583E0540FFCEE75F009A42442F5826A
:1007FB00E43400F583E5822DF582E43583F583E05F
:10080B002CF00DBD08A40EBE039ED20C120EEB12E3
:02081B00089043
:01081D0022B8
:0A0FFA00D2B78F99C2993099FD22F9
:0300230002056271
:10056200C0E0C083C08263A201C083C082C0D075D4
:10057200D000C007209803020600C298E599548073
:10058200601F2480600302060FAF99EF2480600C85
:1005920024C0707920057675440380717544048007
:1005A2006CE54414603924FD6014047060E599B56B
:1005B200500AB2937544017546008051801AE5993C
:1005C200B55015B293754402C292E5484450FF12E9
:1005D2000FFAD292D2938035754400D293802EAF17
:1005E20046054674122FF582E43400F583E599F04E
:1005F200E546B43018D293754400D20B800F30997F
:100602000CC299E544B40203754400C2B7D007D0C6
:0F061200D0D082D08363A201D082D083D0E032D7
:1009010030942130951EAF3B12000E309416309575
:1009110013AF3B12000E30940B309508AF3B120021
:100921000E75480120942130951EAF3B12000E2018
:100931009416309513AF3B12000E20940B3095089E
:10094100AF3B12000E75480230942120951EAF3B3B
:1009510012000E309416209513AF3B12000E309406
:0D0961000B209508AF3B12000E75480322D5
:100A3F00C2B7759850438920758DFD758BFDD28E89
:100A4F00759D03E4F5BD75BC8075B810D2ACD2AFFF
:100A5F007F2812000ED2A37F0112000EC2A47F01C5
:100A6F0012000ED2A47F0A12000E7F3012100D7FDB
:100A7F0030120F127F141210127F0C12100D7F0103
:100A8F00120F127F0F12000E7F0612100DC20122DD
:100DA200753C20E55075F064842430F53D753E2095
:100DB200E55075F06484E5F075F00A842430F53F5F
:100DC200754020E55075F00A84E5F02430F541E4E1
:030DD200F54222C5
:100DD500757320E54575F064842430F574757520C8
:100DE500E54575F06484E5F075F00A842430F57600
:100DF500757720E54575F00A84E5F02430F578E44B
:030E0500F579225A
:100F9E00D209D288D2A8438901758CFFE4F58AD292
:040FAE00A9D28C2216
:09100400C209C2A8C28CC2A922D3
:071015003009031210042250
:100B5000AC07120FF030090D7BFF7A09799E7D01F9
:100B6000E4FF120B0E7BFF7A0979A37D017F03124C
:100B70000B0EEC75F003A42409F582E43400F58330
:100B8000E0FBA3E0FAA3E0F90D7F02120B0E300C9C
:090B9000077B1A7F01120D6F2290
:07101C00D20CAF43020B50A0
:1009D700EF14602514604D2402705C754701E4F53F
:1009E70051D20CAF43120B50120DA2120B047B1AFB
:1009F7007F02120D6FE5518020754704E4F523C28D
:100A07000CAF43120B50120DD57A007973120B08F5
:100A17007B1A7F02120D6FE5232403FF120E9B7FC3
:100A27000F020F12E4F547B209300905120F9E8035
:080A37000312100412101C222E
:100E390020B52D7F0A12000E20B52530B5FD2005FD
:100E49000FD205D209120F9EE4F547F54302101C93
:100E5900E4F547121015C205120FF0D20C120EEB71
:010E69002266
:10081E0078087C007D007BFF7A0979BB7E007F041F
:10082E0012042C780C7C007D007BFF7A0979BF7E48
:10083E00007F0412042C200548300845300742C2C0
:10084E0007E53975F064842430F508E53975F064F0
:10085E0084AFF0EF75F00A842430F509EF75F00AD5
:10086E0084E5F02430F50AE4F50B7BFF7A0979A8CC
:10087E007D04FF120B0E7B007A0079087F05120BA8
:01088E000E5B
:01088F002246
:10072F0078087C007D007BFF7A0979C37E007F0407
:10073F0012042C200565300862E54824FE600F1472
:10074F00601114601324037012120D07800D120C28
:10075F00D38008120C9F8003120D3B7D047F07127C
:10076F000E08300236C202E52575F064842430F598
:10077F0008E52575F06484AFF0EF75F00A84243036
:10078F00F509EF75F00A84E5F02430F50AE4F50B6E
:0B079F00FB7A0079081D7F06120B0E8C
:0107AA00222C
:1006AD00E4FFFE120F5D8F50E550B4FF03E4F550EB
:1006BD007F027E00120F5D8F45E545B4FF03754542
:1006CD00647F047E00120F5D8F4EE54ED394014082
:1006DD0003E4F54EE4F508E4F509E50875F008A422
:1006ED002408FFE435F0FE7C00EF2509FFEC3EFE0B
:1006FD00120F5DE50875F009A42442F582E434007B
:10070D00F583E5822509F582E43583F583EFF00560
:10071D0009E509C3940840C20508E508C3940340E0
:01072D00B615
:01072E0022A8
:100F4500C20DEF4488F5BC200D08E5BCA2E4920D66
:070F550080F5AFBD75BC0083
:010F5C002272
:100C6400A208920CE4FF120F458F39D2077F641259
:100C7400000E7F01120F458F25D202E525D395453D
:100C84004004D2088002C208A208300C01B3500408
:0B0C9400D2068002C2067F6402000E40
:100BDF00EF12033A0C11080C080C0C05160C0B182D
:100BEF000C141C0C1A420C204A0C1D520C175A0CD8
:100BFF000E5E00000C227F00227F01227F02227FE7
:100C0F0003227F04227F05227F06227F07227F088F
:040C1F00227F092205
:03000300020C23C9
:090C2300C0E0C0D075D000C00093
:100C2C00300029E528C3943F500AE528C39421409D
:100C3C000375220074522522F8A628752800052277
:100C4C00E522B4210CD2037522008005752800D250
:010C5C000097
:070C5D00D000D0D0D0E0323E
:100026002009030202CBE54B12033A013807026F9F
:100036000801E509026F0C00DA15026F16026F1847
:10004600026F1C009740026F42006B4401A14501FC
:10005600A14601A147026F4A026F52026F5A026F10
:100066005E000002CBE5477002806DE547640160E3
:1000760005E547B40206E5512402802AE5476404F3
:100086006009E547640560030202CBE5232402808C
:1000960032E547700302013CE54764016005E54728
:1000A600B4020EE5510475F0038485F051E55180E4
:1000B6001BE54764046009E547640560030202CB5B
:1000C600E5230475F0038485F023E5232403FF7DEF
:1000D600030202C3E5477006E5432402805BE54759
:1000E60064016006E54764027015E55125E0243D8C
:1000F600F8E624D9120AFBE5512403FF0202C3E500
:100106004764046009E547640560030202CBE52302
:1001160025E02474F8E624D975F00A84E5F0243045
:10012600F67B007A007973120B0AE5232403FF029B
:1001360002C3E5477011E5430475F0038485F04377
:10014600D20CAF43020B50E54764016006E54764F5
:10015600027015E55125E0243DF8E624D1120AFB8C
:10016600E5512403FF0202C3E54764046009E5473D
:10017600640560030202CBE52325E02474F8E62437
:10018600D175F00A84E5F02430F67B007A007973A5
:10019600120B0AE5232403FF0202C3E547B4020457
:1001A60075470122E547B401028015E547B403020D
:1001B6008031E547B4050475470422E547B4040BCE
:1001C600E4F5477F0C120F1202101CE547B4060235
:1001D6008011E4F547121015C205D20C020EEBE5AC
:1001E600477005AF430209D7E54764016006E54756
:1001F60064027033E53F24D075F00AA4FFE53D2480
:10020600D075F064A42FFFE54124D02FF5501208D5
:10021600907F0C120F127BFF7A0979B17D047F0261
:10022600120B0E75470322E54764046009E547642F
:100236000560030202CBE57624D075F00AA4FFE53B
:100246007424D075F064A42FFFE57824D02FF545EB
:100256001208907F0C120F127BFF7A0979B17D0488
:100266007F02120B0E75470622E54764016006E51C
:10027600476402701CAF4B120BDFEF2430FFE551D1
:1002860025E0243DF8A607120B04E5512403FF8060
:100296002CE54764046006E54764057028AF4B12F9
:1002A6000BDFEF2430FFE52325E02474F8A6077B57
:1002B600007A007973120B0AE5232403FF120E9BC2
:0602C6007F0F120F12224F
:100E6A007E01E4FD7C0174522EF8E6D39407400318
:100E7A00430780ECC394085004EFC313FF0E0CBC65
:100E8A0009E474492DF8A607E4FF0DBD04D6D20A79
:010E9A002235
:100FB200300910300305120E6AC203300A0512000E
:040FC20026C20A2217
:03000B00020FE4FD
:0C0FE400300908758CFF758A0005283262
:100EC3001206AD120A3F752701752601120C641232
:100ED30009011207ABC20C120EEB12081E12072FE8
:080EE300120E39120FB280DE7D
:03000000020621D4
:0C062100787FE4F6D8FD75817902066848
:1002CC00BB010689828A83E0225002E722BBFE0230
:0902DC00E32289828A83E4932263
:1002E500BC000BBE0029EF8DF084FFADF022E4CCFD
:1002F500F875F008EF2FFFEE33FEEC33FCEE9DECC6
:10030500984005FCEE9DFE0FD5F0E9E4CEFD22ED0B
:10031500F8F5F0EE8420D21CFEADF075F008EF2F55
:10032500FFED33FD4007985006D5F0F222C398FD46
:050335000FD5F0EA22E3
:10033A00D083D082F8E4937012740193700DA3A352
:10034A0093F8740193F5828883E473740293686066
:06035A00EFA3A3A380DF66
:10036000E709F608DFFA8046E709F208DFFA803E7F
:1003700088828C83E709F0A3DFFA8032E309F6086C
:10038000DFFA8076E309F208DFFA806E88828C83D8
:10039000E309F0A3DFFA806289828A83E0A3F6088A
:1003A000DFFA805689828A83E0A3F208DFFA804A66
:1003B00080D280FA80C680D4806580F2803180103F
:1003C00080A680EA809A80A880DA80E280CA8031A4
:1003D00089828A8363A20188828C8363A201E49369
:1003E000A363A201F0A363A201DFF3DEF1800B8916
:1003F000828A83E493A3F608DFF9ECFAA9F0EDFB17
:100400002289828A8363A20188828C8363A201E0AD
:10041000A363A201F0A363A201DFF4DEF280DB8913
:10042000828A83E493A3F208DFF980CE88F0EF603C
:10043000010E4E60C588F0ED2402B4040050BBF5F7
:1004400082EB2402B4040050B1232345822390039D
:02045000B07387
:10062D00020EC3E493A3F8E493A34003F68001F212
:10063D0008DFF48029E493A3F85407240CC8C333CE
:10064D00C4540F4420C8834004F456800146F6DF9D
:10065D00E4800B0102040810204080900452E47ED7
:10066D00019360BCA3FF543F30E509541FFEE49392
:10067D00A360010ECF54C025E060A840B8E493A359
:10068D00FAE493A3F8E493A3C8C582C8CAC583CA84
:10069D00F0A3C8C582C8CAC583CADFE9DEE780BE3C
:010561000099
:00000001FF
