:100E7600B5D8D6B7C9E8D6C300B5C6BCDCC9E8D66E
:100E8600C300BAECCDE2C9E8D6C300B2C9BCAFBC58
:100E9600E4B8F400CFC2BEAEA3BA00B3E4B5E7A38C
:100EA600BA00B3E4C2FAA3BA00B5C6BCDC00BAEC19
:100EB600CDE200C9E8D6C300C9E8D6C3CDEAB1CFB2
:100EC60021000000000000000000000000000000FB
:100ED600000000000000000000000000000000000C
:100EE60000000000000000000000303132333435CD
:0A0EF600363738394142434445467F
:10043F00014200013B01014F00013F000127000174
:10044F002800014400014BFF014A0002780000021E
:10045F004D0000C108C105C106C101C10BC10AC1D0
:10046F0010C10E4401970000000060C60065000037
:10047F00000000000000000000000000000000006D
:10048F00000000000000000000000000000000005D
:10049F00000000000000000000000000000000004D
:1004AF00000000000000000000000000000000003D
:1004BF00000000000000000000000000000000002D
:1004CF00000000000000000000000000000000001D
:1004DF00000000000000000000000000000000000D
:1004EF0000000000000000000000000000000000FD
:1004FF0000000000000000000000000000000000ED
:10050F0000000000000000000000000000000000DC
:10051F0000000000000000000000000000000000CC
:10052F0000000000000000000000000000000000BC
:10053F0000000000013A000141004C018BFF0E76D4
:10054F00FF0E7FFF0E88FF0E916190020F000000DB
:10055F00000000000000000000000000000000008C
:10056F00000000000000000000000000000000007C
:10057F00000000000000000000000000000000006C
:10058F00000000000000000000000000000000005C
:10059F00000000000000000000000000000000004C
:1005AF00000000000000000000000000000000003C
:1005BF00000000000000000000000000000000002C
:1005CF00000000000000000000000000000000001C
:1005DF00000000000000000000000000000000000C
:1005EF0000000000000000000000000000000000FC
:1005FF0000000000000000000000000000000000EC
:10060F0000000000000000000000000000000000DB
:10061F0000000000000000000000000000000000CB
:10062F0000000000000000000000000000000000BB
:10063F0000000000000000000000000000000000AB
:10064F00000000000000000000000000000000009B
:10065F00000000000000000000000000000000008B
:10066F00000000000000000000000000000000007B
:10067F00000000000000000000000000000000006B
:10068F00000000000000000000000000000000005B
:10069F00000000000000000000000000000000004B
:1006AF00000000000000000000000000000000003B
:1006BF00000000000000000000000000000000002B
:1006CF00000000000000000000000000000000001B
:1006DF0000000000000000000000000000013905CC
:1006EF0001241401520044019E000000004401A6A1
:1006FF00000000004401A20000000001430001536C
:0A070F0000013E00014C0001400013
:051789001216517F3231
:03178E00DFFE2259
:10000E00AE07AF061EEF600C7FF512178E7FF5124E
:05001E00178E80EE22A8
:1015EB00EF1475F00A84FFF54B139294EFC31313AA
:1015FB009295EF1313543F139296EF131313541F3B
:03160B00139297A0
:01160E0022B9
:10002600D2B78F9BE59A30E1FB539AFD8D9BE59AFB
:0900360030E1FB539AFDC2B72230
:10160F00B2B3D2B7EFC4540F4DF59BE59A30E1FB5F
:10161F00539AFDEF540F4DF59BE59A30E1FB539A2A
:04162F00FDC2B7221F
:1016ED00B2B3D2B78F9BE59A30E1FB539AFDC2B7E7
:0116FD0022CA
:03003F000216EDB9
:10120A00E5556403604EE53BD39524502FC2B3E500
:10121A003C8524F0A4253BF53DC28CE4F5AFAF3DF7
:10122A001215EBAD3D7F8012002675AF0120100626
:10123A00758C4C758AD0E4F550D28C22053CE53C7D
:10124A00B55205E4F53CD20EE4F555753B01D2B32F
:05125A00D2B4D28C2289
:05000600053B02120A97
:0300430002107533
:10107500C0E0C0F0C083C082C0D075D000C005C03C
:011085000763
:10108600E59A30E03B539AFEAF9BE555640170301C
:10109600C2B4EF54F064506013E54AC3940A500793
:1010A600054A12120A8019754A008011EF540FFF83
:1010B6007400253DF582E43400F583EFF012000656
:0A10C600E59A30E105539AFDC2B728
:0F10D000D007D005D0D0D082D083D0F0D0E0327E
:101633009001AAE551F07F01EFD39556500F74AA9C
:0D1643002FF582E43401F583E4F00F80EB15
:011650002277
:0D171E00E59954E0FFBF8003D38001C32292
:0D172B00E59954E0FFBFA003D38001C32265
:0D173800E59954E0FFBFC003D38001C32238
:1012FD0020040DD2B67599803099FDC299C2B622DF
:10130D00C204D2B69001AAE0F5993099FDC299C2F6
:10131D00B67F01EFD39556501DB290D2B674AA2F59
:10132D00F582E43401F583E04450F5993099FDC21E
:0A133D0099C2B60F80DDD204D290F1
:011347002283
:09178000D2B785554F75550322BF
:0C175200854F55E555B4010312120A2220
:100B4800E4FF0F2437F582E43401F583E0540FC441
:100B580054F0FD0F74372401F582E43401F583E085
:100B6800540F2DFDE4FCE4FEAB070F74372BF58220
:100B7800E43401F583E0540FC454F0FBEC75F0083D
:100B8800A42473F582E43401F583E5822EF582E42A
:100B98003583F583EBF0AB070F74372BF582E4341C
:100BA80001F583E0540FFBEC75F008A42473F5827B
:100BB800E43401F583E5822EF582E43583F583E09C
:100BC8002BF00EBE08A20CBC039C121780AF0512B6
:100BD80015EB7FC0120026E4FCE4FEEC75F008A4D7
:100BE8002473F582E43401F583E5822EF582E43539
:100BF80083F583E0FF7D6012160F0EBE08DD0CBC86
:050C080003D7021752A2
:100F0000E4FFFE1216D9AD51E4FFFE1216C3AD5632
:100F10007F027E001216C3AD3A7F047E001216C314
:100F2000AD457F067E001216C3AD447F087E0012D9
:100F300016C3E4F510E510C3953A5046E4F511E503
:100F40001075F020A42400FFE5F03401FE7C00EFD2
:100F50002511FFEC3EFEE51075F021A42465F58215
:100F6000E43400F583E5822511F582E43583F583C9
:100F7000E0FD1216C30511E511C3942040C1051010
:020F800080B33C
:010F8200224C
:0717910085554F7555042238
:0C175E00854F55E555B4010312120A2214
:10134800E4FDFCF510F511C28CF5AFC2AC7F651257
:1013580015EB7FF012003F7F011216ED7F03121686
:10136800ED7F051216ED740F2DF58274023CF5839E
:10137800E0FF1216ED0DBD00010CBC01E9BD90E6C1
:09138800D2B3D28C75AF01D2ACD6
:011391002239
:100C0D007F0285413A0F740F2402F582E43402F518
:100C1D0083E0540FC454F0FE0F740F2403F582E4E7
:100C2D003402F583E0540F2EFEE4FDEDC3953A50EA
:100C3D0063E4FCAB070F740F2BF582E43402F583EC
:100C4D00E0540FC454F0FBED75F021A42465F5823A
:100C5D00E43400F583E5822CF582E43583F583EBEE
:100C6D00F0AB070F740F2BF582E43402F583E054DB
:100C7D000FFBED75F021A42465F582E43400F583B6
:100C8D00E5822CF582E43583F583E02BF00CBC2056
:100C9D00A20D80978E45D212121392120F001217C9
:070CAD009112134802175ECB
:0300230002089E32
:10089E00C0E0C0F0C083C082C0D075D000C003C01D
:1008AE0004C005C006C0072098030209DCC29812D6
:1008BE00171E50067554050209E112172B501BE541
:1008CE0099541FB55114755408C28CC2AC1212FD46
:1008DE00755400D28CD2AC0209E11217385012E5D1
:1008EE0099541FB5510B755409B2A7753F000209F3
:1008FE00E1E554B4050EE599B401067554060209F6
:10090E00E10209A5E554B4060EE599B40306755443
:10091E00070209E10209A5E554B40716E599B405E5
:10092E000F7554047578007579007541000209E160
:10093E008065E55464047051B2910579E579AE781D
:10094E007002057814240FF58274023EF583E59942
:10095E00F0E57964024578700D90020FE0C4540002
:10096E00FFA3E02FF541E54175F020A42402FFE43A
:10097E0035F0FEEF25E0FFEE33FEC3E5799FE57817
:10098E009E4050D291D206804AE55464097044E5E7
:10099E009954F0646060057554008037AF3F053F91
:1009AE0074372FF582E43401F583E599F0E53FC302
:1009BE009432401FB2A7C28C75AF00C2AC120B4866
:1009CE00755400D2B3D28C75AF01D2AC800530997C
:1009DE0002C299D007D006D005D004D003D0D0D013
:0809EE0082D083D0F0D0E0328A
:1016FE00C2A0D2A1D2A27580FFE58020E7FBC2A2D4
:01170E0022B8
:101651001216FEC2A0C2A1D2A28F807F0512178EE0
:07166100C2A27F0502178EF3
:101668001216FED2A0C2A1D2A28F807F0512178EB9
:07167800C2A27F0502178EDC
:1011490075F00A84E5F02430FFE55325E02433F5F2
:1011590082E43401F583EFF07A0179327B017D0372
:021169007F0302
:10116B00AE07ED24FE600F1460111460132403709E
:10117B0016EE2480800DEE24908008EE24888003E8
:10118B00EE2498FF121651120810FFD39400401151
:10119B00121668740129F9E43AFA7F3212178E801D
:0211AB00E6223A
:0414D5007B1A7F02FD
:1014D900AE07AC03ED24FE600F14601114601324F1
:1014E900037016EE2480800DEE24908008EE248887
:1014F9008003EE2498FF121651AF041216687F324A
:0315090002178E38
:1015C300AE07ED24FE600F14601114601324037042
:1015D30016EE2480800DEE24908008EE248880038C
:0815E300EE2498FF12165122BC
:0A1776007F011216517F0F02000ED2
:10159900E55175F0648485F051E55175F00A8424AC
:1015A90030F510E55175F00A84E5F02430F511E4C1
:0A15B900F512FB7A00791002116BA5
:07125F00E0FF7B01751403A1
:061266008B118A128913AE
:10126C00E4FEEEC395145013AB11AA12A9138E828F
:10127C0075830074301208560E80E7EF601F75F00E
:10128C000A84E5F02430AB11AA12A9131E8E8275C4
:10129C008300120856EF75F00A84FF80DEAB11AAAA
:0312AC0012A91371
:0112AF00221C
:1011AD00200B597BFF7A0E799A7D01E4FF12116BAA
:1011BD007A0E79A10DE4FF12116B7A0E79A80DE468
:1011CD00FF12116B9001987A01799E12125F7D01C9
:1011DD007F0412116B9001997A0179A612125F0D9D
:1011ED007F0412116B90019AE0FF7B017A0179A2C5
:0D11FD007514031212660D7F0412116B228F
:0809F6008B108A1189128D1388
:1009FE00E4F515F516F517F518F519F51A789F7C27
:100A0E00037D017BFF7A0E79C8FE7F281207EAE488
:100A1E00F514E514C395134003020B22E518706418
:100A2E00AB10AA11A912851482F583120829FF3082
:100A3E00E752E519AE1630E0290516E51575F00AF0
:100A4E00A4249FF582E43403F583E5822EF582E437
:100A5E003583F5837420F00517051AE4F51915147E
:100A6E00805E0516E51575F00AA4249FF582E43420
:100A7E0003F583E5822EF582E43583F583EFF07579
:100A8E001801803CE51870020519AB10AA11A912C5
:100A9E00851482758300120829FFAE160516E5151A
:100AAE0075F00AA4249FF582E43403F583E5822EC3
:100ABE00F582E43583F583EFF00517E4F518051A92
:100ACE00E51AB5131CE51575F00AA4249FF582E40A
:100ADE003403F583E5822516F582E43583F583E448
:100AEE00F0E517B40422E51575F00AA4249FF582EB
:100AFE00E43403F583E5822516F582E43583F58328
:100B0E00E4F00515F516F517E515C3940450050523
:100B1E0014020A20E4F514E51475F00AA4249FF9D2
:100B2E00740335F0FA7B01E51404FDE4FF12116B3A
:090B3E000514E514C3940440DE23
:010B4700228B
:10139200200B44121776E53AD39400402830120508
:1013A200E4F525800B0525E525853AF08485F025B1
:1013B200E52575F021A42465F9740035F0FA7B0166
:1013C2007D201209F67BFF7A0E79AF7D047F05122C
:0813D200116B7F07121599222F
:10156C00E55175F0648485F0519001327420F0E5FA
:10157C005175F00A842430A3F0A37420F0E5517562
:0D158C00F00A84E5F02430A3F0E4A3F0227F
:10149D0090012B7420F0E55675F064842430A3F090
:1014AD00A37420F0E55675F06484E5F075F00A84B8
:1014BD002430A3F0A37420F0E55675F00A84E5F00E
:0814CD002430A3F0E4A3F02297
:1016AD0090019B7420F0E54475F00A84E5F0243038
:0616BD00A3F0E4A3F022FB
:10167F00D210D288D2A8C28C858C27858A28758CE7
:07168F00FFE4F58AD28C2272
:0F170F00C210C2A8C28C758C4C758AD0D28C22A5
:0717980030100312170F22AD
:0412B000C212AF4077
:1012B400AC0712177630100D7BFF7A0E79B47D01DE
:1012C400E4FF12116B7BFF7A0E79B97D017F031263
:1012D400116BEC75F003A4248BF582E43401F583DF
:1012E400E0FBA3E0FAA3E0F90D7F0212116B3012C8
:0912F400077B1A7F011214D922B4
:07179F00D212AF400212B4A8
:100FFE00EF14602014603714604724037068754343
:10100E0001E4F5531212B012156C1211611214D5BF
:10101E00E5538047754304E4F53E1212B012149D59
:10102E007A01792B1211651214D5E53E802DE4F567
:10103E0043B21030100512167F800312170F0217DD
:10104E009F754307E4F54C1212B01216AD7B017A70
:10105E0001799B1211671214D5E54C2403FF12156A
:07106E00C37F0F121651228F
:10153D0020B52B7F0A12000E20B52330B5FD200BF0
:10154D000DD20B12167FE4F543F54002179FE4F51B
:0F155D0043121798C20B121776C2121213922262
:1013DA00EF120878140C0814030C140016140618DB
:1013EA00140F1C141542141B4A14185214125A14BE
:1013FA00095E0000141D7F00227F01227F02227FE6
:10140A0003227F04227F05227F06227F07227F088C
:04141A00227F092202
:0300030002141EC6
:09141E00C0E0C0D075D000C00090
:10142700300029E526C3943F500AE526C39421409E
:101437000375230074572523F8A626752600052370
:10144700E523B4210CD2097523008005752600D247
:011457000094
:07145800D000D0D0D0E0323B
:1000460020100302043EE54812087801D90703B4DC
:100056000802F90903B40C011A1503B41603B418FF
:1000660003B41C00C34003B442008B44029E450205
:100076009E46029E4703B44A03B45203B45A03B4DD
:100086005E0000043EE543700302011EE543640181
:10009600603DE543B402028036E54364046005E54D
:1000A60043B40506E53E2402803CE5436407600947
:1000B600E5436408600302043EE54C8046E5437070
:1000C600030201DDE54364016005E543B40209E589
:1000D60053045401F5538034E54364046005E54355
:1000E600B4050EE53E0475F0038485F03EE53E80DA
:1000F6001BE54364076009E5436408600302043EA8
:10010600E54C0475F0018485F04CE54C2403FF7D35
:1001160003020436E5437007E54024030201E0E5E7
:100126004364016006E5436402701BE55325E02441
:1001360033F582E43401F583E024D9121149E553FD
:100146002403FF020436E54364046006E5436405C0
:100156007039E53E25E0242CF582E43401F583E090
:1001660024D975F00A84E5F02430FFE53E25E02425
:100176002CF582E43401F583EFF07B017A01792BCB
:10018600121167E53E2403FF020436E54364076067
:1001960009E5436408600302043EE54C25E0249C1F
:1001A600F582E43401F583E024D975F00A84E5F09C
:1001B6002430FFE54C25E0249CF582E43401F583E8
:1001C600EFF07B017A01799B121167E54C2403FF5E
:1001D600020436E543700DE540045403F540D2129F
:1001E600FF0212B4E54364016006E5436402701B36
:1001F600E55325E02433F582E43401F583E024D188
:10020600121149E5532403FF020436E543640460F2
:1002160006E54364057039E53E25E0242CF582E4C5
:100226003401F583E024D175F00A84E5F02430FF2B
:10023600E53E25E0242CF582E43401F583EFF07BDE
:10024600017A01792B121167E53E2403FF02043679
:10025600E54364076009E5436408600302043EE57C
:100266004C25E0249CF582E43401F583E024D17525
:10027600F00A84E5F02430FFE54C25E0249CF58265
:10028600E43401F583EFF07B017A01799B12116763
:10029600E54C2403FF020436E543B402047543012A
:1002A60022E543B40102802CE543B403028048E50D
:1002B60043B4050475430422E543B404028015E5FE
:1002C60043B406028031E543B4080475430722E5CA
:1002D60043B4070BE4F5437F0C12165102179FE552
:1002E60043B409028011E4F543121798C20BC212F7
:1002F600021392E5437005AF40020FFEE543640129
:100306006006E54364027031900133E024D075F055
:100316000AA4FF900135E024D02FF5519001AAF0F0
:10032600120F007F0C1216517BFF7A0E79BE7D04E8
:100336007F0212116B75430322E54364046006E5F0
:10034600436405703990012EE024D075F00AA4FFAD
:1003560090012CE024D075F064A42FFF900130E0CA
:1003660024D02FF556120F007F0C1216517BFF7A00
:100376000E79BE7D047F0212116B75430622E5439A
:1003860064076009E5436408600302043E90019C2B
:10039600E024D0F544120F007F0C1216517BFF7A31
:1003A6000E79BE7D047F0212116B75430922E54367
:1003B60064016006E54364027010AF481213DAEF79
:1003C60012114FE5532403FF8066E543640460067B
:1003D600E54364057028AF481213DAEF2430FFE5D1
:1003E6003E25E0242CF582E43401F583EFF07B0111
:1003F6007A01792B121167E53E2403FF8032E5432B
:1004060064076006E5436408702EAF481213DAEFFE
:100416002430FFE54C25E0249CF582E43401F58385
:10042600EFF07B017A01799B121167E54C2403FFFB
:090436001215C37F0F12165122AA
:10150C007E01E4FD7C0174572EF8E6D3940740036A
:10151C00430780ECC394085004EFC313FF0E0CBCBC
:10152C0009E474462DF8A607E4FF0DBD04D6D211CC
:01153C00228C
:03000B00020D598A
:100D5900C0E0C0F0C083C082C0D075D00830100A8E
:100D6900758CFF758A000526806C758C4C758AD048
:100D790020081C0542E54575F014A4FFC3E5429F10
:100D8900E5F06480F87480984005754200D208E562
:100D990055B4011B0550E5506544703A7400253D72
:100DA900F582E43400F5837405F0120006802720EB
:100DB9000524054EE54E7002054DE53975F014A47C
:100DC900FFC3E54E9FE54D95F0400B754D00754EFF
:100DD90000D205753B01D0D0D082D083D0F0D0E0CD
:010DE90032D7
:100F8300C2B6D2B7438901758C4C758AD0D2A9D227
:100F93008C759850438920758DFD758BFDD28E53CA
:100FA3008EF7759A50759CDC438E04438E1075AF93
:100FB300017F2812000ED2A37F0112000EC2A47F6C
:100FC3000112000ED2A47F0A12000E7F301217897D
:100FD3007F301216517F1412178E7F0C1217897FE0
:100FE300011216517F0F12000E7F0612178975B773
:0B0FF3001075B810D2ACD2AFC20322C0
:0C176A00E5568524F084F552E4F53C229D
:100CB400E4FFFE1216968F51E551B4FF03E4F5519B
:100CC4007F027E001216968F56E556B4FF037556C2
:100CD400647F047E001216968F3AE53AB4FF03E46B
:100CE400F53A7F067E001216968F45E545B4FF035C
:100CF40075450A7F087E001216968F44E544B4FFBA
:100D040003754401E4F510E510C3953A5046E4F543
:100D140011E51075F020A42400FFE5F03401FE7CF9
:100D240000EF2511FFEC3EFE121696E51075F0213A
:100D3400A42465F582E43400F583E5822511F58267
:100D4400E43583F583EFF00511E511C3942040C128
:040D5400051080B353
:010D58002278
:10145F00E4900199F0900198F0900197F07F01EFDF
:10146F00D39556502874002FF582E43400F583E0AD
:10147F00FE74AA2FF582E43401F583EEF074972EF3
:0D148F00F582E43401F583E004F00F80D213
:01149C00222D
:1010DF00C20F120F83120CB4D21212139212176A8C
:1010EF0012163375C13FD204D202D20DD20C300585
:1010FF000CC205C20D75550112120AD20D300E0524
:10110F00C20E12145F300608C206E4F554120C0D1D
:10111F00200F0C30080CC208C21212139280031257
:10112F0011AD75C13F30090512150CC209301105FB
:0A113F00120046C21112153D80ACEB
:0D174500E4F5C7F5C5F5C675C380F5C422EF
:1016960075C78375C5018FC48EC375C65A75C6A531
:0616A60000AFC21217455F
:0116AC00221B
:1016C30075C78375C5028FC48EC38DC275C65A751F
:0616D300C6A50002174548
:1016D90075C78375C5038FC48EC375C65A75C6A5EC
:0416E900000217459F
:03000000020DEA04
:0C0DEA00787FE4F6D8FD758179020E31A7
:10071A00E709F608DFFA8046E709F208DFFA803EC1
:10072A0088828C83E709F0A3DFFA8032E309F608AE
:10073A00DFFA8078E309F208DFFA807088828C8316
:10074A00E309F0A3DFFA806489828A83E0A3F608CA
:10075A00DFFA805889828A83E0A3F208DFFA804CA4
:10076A0080D280FA80C680D4806980F2803380107B
:10077A0080A680EA809A80A880DA80E280CA8033E4
:10078A0089828A83ECFAE493A3C8C582C8CCC5835C
:10079A00CCF0A3C8C582C8CCC583CCDFE9DEE7802C
:1007AA000D89828A83E493A3F608DFF9ECFAA9F0AB
:1007BA00EDFB2289828A83ECFAE0A3C8C582C8CC01
:1007CA00C583CCF0A3C8C582C8CCC583CCDFEADE1A
:1007DA00E880DB89828A83E493A3F208DFF980CC7C
:1007EA0088F0EF60010E4E60C388F0ED2402B40475
:1007FA000050B9F582EB2402B4040050AF2323451C
:06080A00822390076A73CF
:10081000BB010689828A83E0225002E722BBFE02E6
:09082000E32289828A83E4932219
:10082900BB010CE58229F582E5833AF583E0225084
:1008390006E92582F8E622BBFE06E92582F8E222CE
:0D084900E58229F582E5833AF583E49322E8
:10085600F8BB010DE58229F582E5833AF583E8F0D8
:10086600225006E92582C8F622BBFE05E92582C884
:02087600F2226C
:10087800D083D082F8E4937012740193700DA3A30F
:1008880093F8740193F5828883E473740293686023
:06089800EFA3A3A380DF23
:100DF6000210DFE493A3F8E493A34003F68001F224
:100E060008DFF48029E493A3F85407240CC8C333FD
:100E1600C4540F4420C8834004F456800146F6DFCC
:100E2600E4800B010204081020408090043FE47E19
:100E3600019360BCA3FF543F30E509541FFEE493C1
:100E4600A360010ECF54C025E060A840B8E493A388
:100E5600FAE493A3F8E493A3C8C582C8CAC583CAB3
:100E6600F0A3C8C582C8CAC583CADFE9DEE780BE6B
:0107190000DF
:00000001FF
