:07206A0075CED075CDC02238
:0B2030008FCFE5CD30E7FB75CDC0225F
:0D200700E4F5CFE5CD30E7FBAFCF75CDC0E0
:0120140022A9
:0B1A630090020EEBF0A3EAF0A3E9F004
:101A6E0090020EE0FBA3E475F0011208C5A9F0FA8E
:101A7E001207F0FFC3942050037F0022EFC394801F
:101A8E0050037F012290020EE0FBA3E475F00112D9
:101A9E0008C5A9F0FA1207F0FEEFB48106EEC39462
:0C1AAE00395004EFB482037F04227F0251
:011ABA002209
:10039700900211EDF090020EEBF0A3EAF0A3E9F062
:1003A7001207F0FFC394804003020499EFC394201F
:1003B700501090020EE0FBA3E0FAA3E0F9742012BC
:1003C700083690020EE0FBA3E0FAA3E0F91207F06B
:1003D70024E0FFE434FFFEE4FCFD90021212093D25
:1003E700900211E0B40812A3E0FCA3E0FDA3E0FE35
:1003F700A3E0FFE47B08020650900211E0B40C1260
:10040700A3E0FCA3E0FDA3E0FEA3E0FFE47B0C0276
:100417000650900211E0B41023E47F10FEFDFCA308
:10042700E0F8A3E0F9A3E0FAA3E0FB1208DBEF246E
:10043700CCFFEE347FFEED341A020680900211E005
:10044700B41822E47F30FEFDFCA3E0F8A3E0F9A393
:10045700E0FAA3E0FB1208DBE42FFFEE34FFFEED2A
:10046700341D020680900211E0642060030206EB4F
:100477007F40FEFDFCA3E0F8A3E0F9A3E0FAA3E0C8
:10048700FB1208DBEF2450FFEE345AFEED341E0258
:10049700068090020EE0FBA3E0FAA3E0F91207F052
:1004A700FF900216F0900001120809900217F0EF72
:1004B700C394A14010900216E0D394AB5007A3E079
:1004C700C394A15020900216E0FFC394A8500302E2
:1004D70005EFEFD394A940030205EFA3E0C394A16E
:1004E70040030205EF900216E0FFC394A1402EEFF0
:1004F700D394AB5028A3E0FBC394A14020900216ED
:10050700E0245FFFE434FFFE7C007D5E120848EBC9
:10051700245FFDEC34FFCD2FFFED3E8026900217C0
:10052700E0D3947F4003E014F0900216E0FF7E00D2
:100537007C007D60120848A3E02FFFEC3ECF240E1D
:10054700CF34C4FEE4FD90021212093D900211E07F
:10055700B40C15E47F18FEFDFCA3E0F8A3E0F9A3B3
:10056700E0FAA3E0FB0208DB900211E0B41022E4FA
:100577007F20FEFDFCA3E0F8A3E0F9A3E0FAA3E0E7
:10058700FB1208DBEF24C0FFEE34F4FEED340580E8
:100597004F900211E0B41822E47F48FEFDFCA3E06F
:1005A700F8A3E0F9A3E0FAA3E0FB1208DBEF24903D
:1005B700FFEE3481FEED34068026900211E0B42070
:1005C70024E47F80FEFDFCA3E0F8A3E0F9A3E0FAB2
:1005D700A3E0FB1208DBE42FFFEE34DFFEED340E61
:1005E700FDE43CFC220206E5900216E0FFC394B04E
:1005F7004035EFD394F7502FA3E0FBC394A14027D6
:10060700900216E02450FFE434FFFE7C007D5E126A
:100617000848EB245FFDEC34FFCD2FFFED3EFEE4F1
:10062700FD90021212093D900211E0B40C24A3E0E0
:10063700FCA3E0FDA3E0FEA3E0244EFFEE3403FE9F
:10064700E43DFDE43CFCE47B18FAF9F81208DB0210
:1006570006DD900211E0B41026E47F20FEFDFCA326
:10066700E0F8A3E0F9A3E0FAA3E0FB1208DBEF242C
:1006770080FFEE3447FEED3406FDE43CFC805790E6
:100687000211E0B41826E47F48FEFDFCA3E0F8A3BE
:10069700E0F9A3E0FAA3E0FB1208DBEF2480FFEE0A
:1006A700346FFEED3407FDE43CFC802A900211E034
:1006B700B4202BE47F80FEFDFCA3E0F8A3E0F9A3C0
:1006C700E0FAA3E0FB1208DBE42FFFEE3486FEED31
:1006D7003410FDE43CFC90021212093D8006E4FF51
:1006E700FEFDFC22900212E0FCA3E0FDA3E0FEA3C6
:0206F700E0FF22
:0106F90022DE
:0D202300E4F5C7F5C5F5C675C380F5C42208
:101F530075C78375C5018FC4EEF5C375C65A75C6BB
:071F6300A500AFC21220230C
:011F6A002254
:101F3A0075C78375C5028FC4EEF5C3AF058FC27529
:091F4A00C65A75C6A50002202349
:10000E0075C78375C5038FC4EEF5C375C65A75C61D
:05001E00A500022023F3
:10096F0060200000000000000000000000000000F8
:10097F000000000000000000000000000000000068
:10098F0000000000602000200101010101010101B0
:10099F000101010101010101000000000000000040
:1009AF000000000000000000602000E700000000D1
:1009BF00FCFCFFFFFFFFFCFC00000000000000003C
:1009CF00FFFFFFFFFFFFFFFF000000006020006739
:1009DF0000000000FC040707070704FC00000000EC
:1009EF0000000000FFFFFFFFFFFFFFFF0000000000
:1009FF00602000C700000000FC040707070704FC85
:100A0F000000000000000000FF808080808080FFD9
:100A1F00000000006020008700000000FC244787D2
:100A2F00874724FC0000000000000000FF84828143
:100A3F00818284FF00000000602000A780808080FA
:100A4F00808080808080808090A0C0800000000027
:100A5F0000000000000000000402010043004000FD
:0A0A6F000000410043004100440074
:101DDD00FFE025E024B8FDEE2DFD121D6E7F647E23
:101DED0000121E049001F3E09001F1FFE02440FD8C
:071DFD00121D6E7F647E00E1
:101E0400E4FDFCC3ED9FEC9E50070DBD00010C806A
:011E1400F2DB
:011E150022AA
:091D65007F01121D6E7D407F011B
:101D6E00AB05AA077FC87E00121E04C2A5EAB40105
:101D7E0009D2A0121E04C2A1800BC2A07FC87E0091
:101D8E00121E04D2A1121E04C2A4C2A3D2A5AF0376
:051D9E008F80C2A522A8
:101C08009001F3E09001EDFFE0FBA3E0FAA3E0F917
:041C18001207F0FDC2
:101C1C00AB05AA077FC87E00121E04C2A5EAB40158
:101C2C0009D2A0121E04C2A1800BC2A07FC87E00E4
:101C3C00121E04D2A1121E04D2A4C2A3D2A5AF03B9
:051C4C008F80C2A522FB
:051B68009001F0EFF018
:101B6D007DC07F01121D6E7DC07F02121D6EE4F9D6
:101B7D00E924B8FD121D65E924B8FD7F02121D6E22
:101B8D007D407F02121D6EE49001F1F09001F0E0B6
:101B9D00FD7F01121C1CE0FD7F02121C1CA3E00442
:0C1BAD00F0E0C3944040E509E9B408C42E
:011BB9002209
:101C5100C2A27FE87E03121E04D2A2121E047D3F9F
:101C61007F01121D6E7DC07F01121D6E7FE87E0314
:101C7100121E047D3F7F02121D6E7DC07F02121D68
:101C81006EE4FF121B687DB8121D657DB87F0212DC
:091C91001D6E7D407F02021D6EF4
:0B0DF600900200EBF0A3EAF0A3E9F08C
:100E0100E4A3F0A3F0A37420F07D101203979002E5
:100E11000612093D900200E0FBA3E0FAA3E0F912FB
:100E21001A63900204EFF0C2937F03122030900204
:100E310006E0FCA3E0FDA3E0FEA3E0FF78101209A9
:100E41002AE4122030900206E0FCA3E0FDA3E0FEBC
:100E5100A3E0FF780812092AE4122030900206E08C
:100E6100FCA3E0FDA3E0FEA3E0FFE412203090022A
:100E710004E0B4022CE4900203F0900205E0FF903C
:100E81000203E0C39F5060122007900203E0244751
:100E9100F582E43400F583EFF0900203E004F08082
:100EA100D9900204E06401703E900203F0900205C3
:100EB100E0C313FF900203E0C39F502B1220079061
:100EC1000203E0FE25E02447F582E43400F583EFD8
:100ED100F0EE25E02448F582E43400F583E4F09057
:090EE1000203E004F080C6D29384
:010EEA0022E5
:08124B009001F7EFF0A3EDF0B4
:10125300120DF69001F97401F0A37400F0A3744722
:10126300F09001F8E0FFC394049001FF500674016D
:10127300F0EF80097402F09001F8E024FCC454F00C
:101283009001FDF0E49001FEF09001FEE0FEC394B6
:1012930002504FA3E0FF9001F7E025E024B8FDEEF4
:1012A3002D121DFC9001FFE09001FD121DF8E4904A
:1012B30001FCF09001FFE09001F9121C0F7F0A7E00
:1012C30000121E049001FAE475F0011208AF9001B8
:1012D300FCE004F0E0C3941040D99001FEE004F078
:0212E30080A7E2
:0112E50022E6
:1015CC009001F0EFF0A3EDF0A3EBF0A3EAF0A3E9A8
:0115DC00F01E
:1015DD00E4A3F0A3F09001F1E014F09001F2E0FB30
:1015ED00A3E0FAA3E0F91207F0605E9001F5E0C305
:1015FD00940A5055121A639001F6EFF09001F1E044
:10160D00FF9001F0E0FD9001F2E0FBA3E0FAA3E012
:10161D00F912124B9001F5E004F09001F3E475F02E
:10162D00011208AF9001F6E0B4020A9001F3E475DF
:10163D00F0011208AF9001F0E004F0E0D394074000
:09164D009AE4F0A3E004F080929D
:011656002271
:0B0EEB00900204EBF0A3EAF0A3E9F092
:100EF600E4A3F0A3F0A37420F07D101203979002F0
:100F06000A12093D900204E0FBA3E0FAA3E0F912FD
:100F16001A63900208EFF0C2937F0312203090020A
:100F26000AE0FCA3E0FDA3E0FEA3E0FF78101209AF
:100F36002AE412203090020AE0FCA3E0FDA3E0FEC2
:100F4600A3E0FF780812092AE412203090020AE092
:100F5600FCA3E0FDA3E0FEA3E0FFE4122030900234
:100F660008E0B4022CE4900207F0900209E0FF903A
:100F76000207E0C39F505C122007900207E0244757
:100F8600F582E43400F583EFF0900207E004F08088
:100F9600D9900208E06401703A900207F0900209C5
:100FA600E0C313FF900207E0C39F5027122007906B
:100FB6000207E0FE2447F582E43400F583EFF0747F
:100FC600572EF582E43400F583E4F0900207E0043E
:050FD600F080CAD29377
:010FDB0022F3
:0811AC009001FBEFF0A3EDF050
:1011B400120EEB9001FD7401F0A37400F0A37447C8
:1011C400F09001FCE0FFC394089002035006740100
:1011D400F0EF80097402F09001FCE024F83333331B
:1011E40054F8900201F0E4900202F0900202E0FE52
:1011F400C394025051A3E0FF9001FBE025E024B822
:10120400FDEE2D121DFC900203E0FF900201121D61
:10121400F9E4900200F0900203E0FF9001FD121C3B
:10122400107F0A7E00121E049001FEE475F0011284
:1012340008AF900200E004F0E0C3940840D89002A4
:0612440002E004F080A5A9
:01124A002281
:101657009001F4EFF0A3EDF0A3EBF0A3EAF0A3E918
:01166700F092
:10166800E4A3F0A3F09001F5E014F09001F6E0FB9C
:10167800A3E0FAA3E0F91207F0605E9001F9E0C375
:10168800940A5055121A639001FAEFF09001F5E0B0
:10169800FF9001F4E0FD9001F6E0FBA3E0FAA3E07F
:1016A800F91211AC9001F9E004F09001F7E475F03B
:1016B800011208AF9001FAE0B4020A9001F7E4754C
:1016C800F0011208AF9001F4E004F0E0D3940F4069
:0916D8009AE4F0A3E004F0809212
:0116E10022E6
:0514AD009001ECEDF0E0
:1014B200E4FBE014F00BA3EBF0A37400F0A374A719
:1014C200F0EFC394049001F350067401F0EF80062C
:1014D2007402F0EF24FCC454F09001F1F0E49001A6
:1014E200F2F09001F2E0FEC394025051A3E0FF90AB
:1014F20001ECE025E024B8FDEE2D121DFC9001F375
:10150200E0FF9001F1121DF9E49001F0F09001F377
:10151200E0FF9001ED121C107F0A7E00121E049063
:1015220001EEE475F0011208AF9001F0E004F0E082
:0D153200C3941040D89001F2E004F080A5B1
:01153F002289
:0F1FBC009000407401F0A37400F0A374E7F022CA
:0F1FCB009000407401F0A37400F0A37467F0223B
:0F1FDA009000407401F0A37400F0A374C7F022CC
:0F1FE9009000407401F0A37400F0A37487F022FD
:0F1FF8009000407401F0A37400F0A37400F02275
:0512E6009001EBEDF0AA
:1012EB00E014F0900040E0F9A3E0FAA3E09001ECE9
:1012FB00C9F0A3EAF0A3E9F0EFC394049001F25014
:10130B00067401F0EF80067402F0EF24FCC454F075
:10131B009001F0F0E49001F1F09001F1E0FEC39444
:10132B00025051A3E0FF9001EBE025E024B8FDEE65
:10133B002D121DFC9001F2E0FF9001F0121DF9E45B
:10134B009001EFF09001F2E0FF9001EC121C107F86
:10135B000A7E00121E049001EDE475F0011208AF35
:10136B009001EFE004F0E0C3941040D89001F1E05D
:04137B0004F080A555
:01137F00224B
:08205A00E4900043F0A3F02222
:080CE6009001EBEFF0A3EDF02B
:100CEE00E014F0900043E0FF7004A3E06074900104
:100CFE00ED7401F0A37400F0A37400F0EFC394043C
:100D0E009001F350097401F0900043E080097402E1
:100D1E00F0900043E024FCC454F09001F1F0E49014
:100D2E0001F2F09001F2E0FEC394025035A3E09080
:100D3E000044121DDDE49001F0F0121C087F0A7EC3
:100D4E0000121E049001EEE475F0011208AF90013E
:100D5E00F0E004F0E0C3941040E09001F2E004F003
:100D6E0080C19001EBE0FF900043F09001ECE09029
:100D7E000044F09001ED7401F0A37400F0A3742010
:100D8E00F0EFC394049001F350097401F09001EB5D
:100D9E00E080097402F09001EBE024FCC454F09062
:100DAE0001F1F0E49001F2F09001F2E0FEC3940242
:100DBE005035A3E09001EC121DDDE49001F0F0122D
:100DCE001C087F0A7E00121E049001EEE475F001ED
:100DDE001208AF9001F0E004F0E0C3941040E090F0
:070DEE0001F2E004F080C1F6
:010DF50022DB
:08206200ED04FDD20D020CE6B5
:05000600E4FF021B688D
:1016E200D0D5C3FBA3BA00B2BFC3C5A3BA00B9A485
:1016F200D6D6A3BA00B5D8D6B7C9E8D6C300C1C1F9
:10170200B6C8C9E8D6C300B5F7CAD4C9E8D6C3007B
:10171200BCECB2E2D7B4CCAC00BFF3B5C6C8A1D71B
:10172200DF00BFF3B5C6B3E4B5E700BFF3B5C6B398
:10173200E4C2FA00B7A2C9FAB9CAD5CF00B5F7CA4E
:10174200D400C9E8D6C300C9E8D6C3CDEAB1CF21D7
:101752000000000000000000000030313233343558
:0A176200363738394142434445460A
:100A790049010CFF16E2FF16E9FF16F049014AFF8A
:100A890016F7FF1700FF17095B0199000000000026
:100A9900000000000000000000000000000000004D
:100AA9000000000000004F0188FF1712FF171BFF0D
:100AB9001724FF172DFF17364101560041010A007F
:100AC90041014900410154004101BE004101B80002
:100AD9004101BD0041012F0042012700004201C22E
:100AE90000004201E90000C101C10CC107C103C1F5
:100AF90006C105C108C18AC109C102460129000010
:100B090000000000410155004101C00041010800F9
:100B190041014800440130000000004401E50000A3
:100B290000004101BF0041018700420197000042D6
:040B390001BA0000FD
:03207800DFFE2266
:101F8300AE07AF061EEF600C7FF51220787FF512C7
:051F9300207880EE2221
:041BBA00AB05AA07C6
:101BBE009001BEE0FF7E007C037DE812085AAF055F
:101BCE00EFF0E0FE75F0648424309001EBF0EE75DA
:101BDE00F06484E5F075F00A842430A3F0EF75F01C
:101BEE000A84E5F02430A3F0E4A3F0AF02AE03AD17
:0A1BFE00067B017A0179EB0216570D
:1019A900E49001ECF0A3F0A3F0A3F020065012009C
:1019B90006E49001EBF09001EBE0FF75F003A4243D
:1019C9000CF582E43401F583E0FBA3E0FAA3E0F926
:1019D900EF04FDE4FF1215CC9001EBE075F009A4CA
:1019E9002499F9740135F0FA7B01E004FD7F0312B3
:0E19F90015CC9001EBE004F0E0C3940340B87D
:011A070022BC
:101F6B002006149001B9E0B40106300D031219A933
:081F7B007D017F0D121BBA224B
:10141900E4FFFE12000E9001BEE0FDE4FFFE121F84
:101429003A900153E0FD7F027E00121F3A9001BD00
:10143900E0B401069001B97401F09001B9E0FD7FB3
:10144900047E00121F3AE49001EBF0E49001ECF005
:101459009001ECE0FDC39408503D9001EBE0FC7570
:10146900F008A42408FFE435F0FEED7A002FFFEA26
:101479003EFEEC75F009A42499F582E43401F58364
:10148900E5822DF582E43583F583E0FD121F3A905C
:1014990001ECE004F080B99001EBE004F0E0C394C2
:0314A9000340A855
:0114AC00221D
:10176C00E4FF300C75C20C9001BD04F0E4FEE4FD06
:10177C00AC070F74572CF582E43401F583E0C454A4
:10178C00F0FCEE75F009A42499F582E43401F5839C
:10179C00E5822DF582E43583F583ECF0AC070F740C
:1017AC00572CF582E43401F583E0540FFCEE75F010
:1017BC0009A42499F582E43401F583E5822DF582A0
:1017CC00E43583F583E02CF00DEDB408A30EEEB4F4
:0A17DC00039CD20D121F6B121419AA
:0117E60022E0
:0A204600D2B78F99C2993099FD229C
:030023000210C602
:1010C600C0E0C083C082C0D075D000C0072098039E
:1010D600021191C298E5995480602D248060030224
:1010E60011A1AF99EF2480601624C060030211A1FC
:1010F6003006030211A19001497403F00211A19078
:1011060001497404F00211A1900149E014604C24D5
:10111600FD601E0460030211A19001BEE0B5990FA7
:10112600B2949001497401F0900154E4F0806C800F
:10113600219001BEE0B5991AB2949001497402F06B
:10114600C292900156E04450FF122046D292D294A9
:101156008049900149E4F0D2948040E59954F064C6
:10116600607038900154E0FF04F074572FF582E464
:101176003401F583E599F0900154E06430701CD297
:1011860094900149F0D20CB2B4801030990DC299F6
:10119600900149E0B40202E4F0C2B7D007D0D0D043
:0611A60082D083D0E0328C
:04194200AB07AA063F
:0F194600200D0C7F059001297420F0A3DFFC22F7
:101955007C007D3CAF03AE0212085A9001ECEDF01D
:10196500AE02AF037C007D3C12085AA3EFF0E0FD08
:1019750075F00A842430900129F0ED75F00A84E5AC
:10198500F02430A3F0A3742DF09001ECE0FD75F088
:101995000A84243090012CF0ED75F00A84E5F024DA
:0319A50030A3F07C
:0119A800221C
:101E4E00E49001EBF020062E900156E0FF64026054
:101E5E0004EFB4030C9001E9E0FEA3E0FFD20D8085
:101E6E0005C20DE4FFFE1219427B017A0179297D2C
:061E7E00047F0B12165751
:011E8400223B
:0E201500E49001C2F0A3F09001E9F0A3F022E4
:101C9A00C2B7438901758C4C758AD0D2A9D28C758A
:101CAA009850438920758DFD758BFDD28E121C517B
:101CBA00759D03E4F5BD75BC8075B810D2ACD288A9
:101CCA00D2A8D2AF12206A7F1490013474FFF0A315
:061CDA00DFFCC201D2A7ED
:011CE00022E1
:101E85009001BEE0FD75F064842430900130F0EDE2
:101E950075F06484E5F075F00A842430A3F09001B0
:101EA500BEE075F00A84E5F02430900132F0E4A339
:021EB500F02219
:101EB700900153E0FD75F0648424309001E5F0ED66
:101EC70075F06484E5F075F00A842430A3F090017E
:101ED70053E075F00A84E5F024309001E7F0E4A3BD
:021EE700F022E7
:101FAC00D208438901758CFFE4F58AD2A9D28C2220
:0B203B00C208758C4C758AD0D28C2234
:0720710030080312203B229E
:091A0800E4F0900148E0FFC20D7A
:101A11009001EBEFF0120006300A0D7BFF7A177987
:101A21003F7D01E4FF1215CC7BFF7A1779447D01DC
:101A31007F031215CC9001EBE075F003A4244AF565
:101A410082E43401F583E0FBA3E0FAA3E0F97D022F
:101A51007F021215CC300D097B1A7D027F01121411
:021A6100AD22B4
:0A205000900148E0FFD20D021A11C2
:10186100EF14603114605F240270659001557401BA
:10187100F09001C0121A08121E857B017A0179309D
:101881007D037F031215CC7B1A7D037F021214ADF9
:101891009001C080289001557404F0900108121A3B
:1018A10008121EB77B017A0179E57D037F031215CA
:1018B100CC7B1A7D037F021214AD900108E0240352
:1018C100FF7D03022062E4900155F0B20A1220501C
:0118D10022F4
:101DA30020B5367F0A121F8320B52E30B5FD2006DD
:101DB30016D20612205AD208121FACE4900155F035
:101DC300900148F0022050E4900155F0122071C2B6
:0A1DD30006120006D20D121F6B224B
:100FDC0078EB7C017D017BFF7A1779537E007F05CE
:100FEC001207CA78F07C017D017BFF7A1779587E55
:100FFC00007F041207CA3006030210C530077BC2FB
:10100C0007900127E0FAA3E0FB7C037DE8FFAE022A
:10101C0012085AEF24309001EBF07C037DE8AF030B
:10102C00AE0212085A7E007F64CFCDCFCECCCE124A
:10103C00085AEF2430A3F0900127A3E07C007D64D4
:10104C00FFAE0212085A7E007F0ACFCDCFCECCCE97
:10105C0012085AEF24309001EDF07C007D0AAF03AA
:10106C00AE0212085AED2430A3F0E4A3F07B017A0F
:10107C000179EB7D037F0C12165730033CC20390B1
:10108C00010AE0FD75F0648424309001F0F0ED75F8
:10109C00F06484ADF0ED75F00A842430A3F0ED75A6
:1010AC00F00A84E5F02430A3F0E4A3F07B017A018C
:0910BC0079F07D027F0D12165738
:0110C5002208
:101B1200200652900156E0146012146014146016EC
:101B220014601824047017121FF88012121FDA8032
:101B32000D121FCB8008121FBC8003121FE97D0407
:101B4200E4FF1212E6900156E075F003A42488F532
:101B520082E43401F583E0FBA3E0FAA3E0F97D041B
:061B62007F011215CC22E8
:10138000E4FFFE121F539001BEEFF0BFFF02E4F036
:101390007F027E00121F53900153EFF0BFFF02E463
:1013A000F07F047E00121F539001B9EFF0D3940137
:1013B0004002E4F0E49001EBF0E49001ECF09001E5
:1013C000ECE0FDC3940850449001EBE075F008A4F4
:1013D0002408FFE435F0FE7C00EF2DFFEC3EFE120A
:1013E0001F539001ECE0FE9001EBE075F009A4249E
:1013F00099F582E43401F583E5822EF582E43583A4
:10140000F583EFF09001ECE004F080B29001EBE0A6
:0814100004F0E0C3940340A1C5
:0114180022B1
:101E1600C20DEF4488F5BC200D08E5BCA2E4920D86
:101E260080F5EDAFBDB40A14EF75F004A4FFE5BE6E
:101E360054037C002FFBEC35F0FA80047A00AB07E4
:071E460075BC00AF03AE0202
:011E4D002272
:101ABB007D0AE4FF121E16900127EEF0A3EFF090C3
:101ACB00012FE0FD04F0ED75F00A84E5F025E0242C
:101ADB0034F582E43401F583EEF0A3EFF0D2077F07
:101AEB0064121F837D087F01121E1690010AEFF00E
:101AFB00D203900153E0FEEFC39E5004C2A78002B5
:071B0B00D2A77F64021F83D3
:100B3E00E49001EBF0FFF9A3F0A3F0A3F0A3F0FB18
:100B4E00FAFEEE25E02434F582E43401F583E0FC70
:100B5E00A3E0FDBCFF07BDFF04E4020CE1ED4C7009
:100B6E00089001EBE004F08031D3ED9464EC6480E6
:100B7E00948040059001ED800ED3ED940FEC6480CF
:100B8E00948040089001ECE004F08001090F900180
:100B9E00EFE02DF09001EEE03CF00EEE640A70A254
:100BAE00EF7004FEFF800FEFFD7C009001EEE0FE83
:100BBE00A3E0FF12085AAA06AB079001EBE0D3940C
:100BCE00075008EB9405EA94005019900187E0C392
:100BDE0094FA5003E004F0E4900197F0A3F0900132
:100BEE00BAF0A3F09001ECE0D394045008EB940516
:100BFE00EA9400403FE4900187F0C3900198E0949E
:100C0E00FA900197E064809480500CA3E004F07099
:100C1E0006900197E004F0C39001BBE094FA9001B6
:100C2E00BAE064809480500CA3E004F0700690014A
:100C3E00BAE004F09001EDE0D394075009C3EB94B1
:100C4E0064EA94004028E4900187F0900197F0A3A5
:100C5E00F0C39001BBE094FA9001BAE064809480F6
:100C6E00500CA3E004F070069001BAE004F090017D
:100C7E0087E0D394034011900156E09001BFF090AD
:100C8E0001567401F0022015D3900198E09414904F
:100C9E000197E0648094804016E49001BAF0A3F0CE
:100CAE00900156E09001BFF09001567403F022D3EC
:100CBE009001BBE094039001BAE064809480400FF1
:100CCE00900156E09001BFF09001567402F0229010
:070CDE0001BFE0900156F098
:010CE50022EC
:101CE100EF1209491D13081D0A0C1D07161D0D18B9
:101CF1001D161C1D1C421D224A1D1F521D195A1D55
:101D0100105E00001D247F00227F01227F02227FBE
:101D110003227F04227F05227F06227F07227F087C
:041D2100227F0922F2
:101F1B00300216C202D20612205A121FACE49001F4
:0F1F2B0055F0900148F0122050E49001C1F022CF
:030003000218D20E
:0D18D200C0E0C083C082C0D075D000C00748
:1018DF002006129001C1E004F0E0C3943C4049E4BB
:1018EF00F0D2028043300039900116E0FFC3943FDD
:1018FF00500BEFC394214005900107E4F0900107CE
:10190F00E024C4F582E43401F583EFF0900116E48E
:10191F00F0900107E004F0E0B4210DD204E4F08070
:08192F0007900116E4F0D2005C
:0B193700D007D0D0D082D083D0E032A7
:100026002008030203969001B6E0120949018007F1
:1000360003180802790903180C00DE1503181603C5
:10004600181803181C00A040031842006D44022B28
:1000560045022B46022B4703184A03185203185A27
:1000660003185E00000396900155E07002806F90C1
:100076000155E0FF64016004EFB402059001C08001
:1000860014900155E0FF64046008EF640560030204
:100096000396900108E024028033900155E0700336
:1000A600020186900155E0FF64016004EFB4020787
:1000B6009001C0E0048016900155E0FF64046008DA
:1000C600EF64056003020396900108E00475F003EF
:1000D60084AFF0EFF002038E900155E070099001B5
:1000E60048E0240202018B900155E0FF640160059F
:1000F600EF6402703A9001C0E0FF2430F582E434E8
:1001060001F583E024D975F00A84E5F02430FE7405
:10011600302FF582E43401F583EEF07B017A017924
:10012600307D037F031215CC9001C0E002038E9050
:100136000155E0FF64046008EF640560030203965E
:10014600900108E0FF24E5F582E43401F583E0241C
:10015600D975F00A84E5F02430FE74E52FF582E4C3
:100166003401F583EEF07B017A0179E57D037F03A7
:100176001215CC900108E002038E900155E0701232
:10018600900148E00475F00384AFF0EFF0D20D0261
:100196001A11900155E0FF64016005EF6402703AA0
:1001A6009001C0E0FF2430F582E43401F583E024B9
:1001B600D175F00A84E5F02430FE74302FF582E420
:1001C6003401F583EEF07B017A0179307D037F03FC
:1001D6001215CC9001C0E002038E900155E0FF6439
:1001E600046008EF64056003020396900108E0FFCF
:1001F60024E5F582E43401F583E024D175F00A8420
:10020600E5F02430FE74E52FF582E43401F583EE43
:10021600F07B017A0179E57D037F031215CC90010D
:1002260008E002038E900155E0FFB402047401F069
:1002360022EFB401028019900155E0B4030280391F
:10024600900155E0FFB405047404F022EFB40408ED
:10025600E4900155F0022050900155E0B40602806A
:1002660018E4900155F0122071C206120006D20D54
:10027600021F6B900155E07008900148E0FF0218DC
:1002860061900155E0FF64016005EF6402703990EA
:100296000131E024D075F00AA4FF900130E024D0AB
:1002A60075F064A42FFF900132E024D02F9001BE98
:1002B600F01214197BFF7A1779497D047F02121513
:1002C600CC9001557403F022900155E0FF64046060
:1002D60008EF640560030203969001E6E024D075FA
:1002E600F00AA4FF9001E5E024D075F064A42FFF86
:1002F6009001E7E024D02F900153F01214197BFFF0
:100306007A1779497D047F021215CC90015574063F
:10031600F022900155E0FF64016005EF6402702E43
:100326009001B6E0FF121CE1EF2430FF9001C0E01F
:100336002430F582E43401F583EFF07B017A01790C
:10034600307D037F031215CC9001C0E0803A900106
:1003560055E0FF64046005EF640570349001B6E073
:10036600FF121CE1EF2430FF900108E024E5F5823E
:10037600E43401F583EFF07B017A0179E57D037FB3
:10038600031215CC900108E02403FF7D03122062BE
:010396002244
:101D25007E01E4FD7C0174C42EF582E43401F58363
:101D3500E0D394074004EF4480FFECC394085004BB
:101D4500EFC313FF0E0CECB409DC74B42DF582E47B
:0F1D55003401F583EFF0E4FF0DEDB404C7D20BBA
:011D6400225C
:101F9800300810300405121D25C204300B0512004C
:041FA80026C20B2220
:03000B000217E7F2
:1017E700C0E0C083C082C0D075D00830080E758CA9
:1017F700FF758A00900116E004F08055758C4C75D2
:101807008AD0900156E0FF64026004EFB40342906F
:1018170001C3E004F070069001C2E004F0C3900138
:10182700C3E094B09001C2E094044025E4F0A3F033
:101837009001EAE004F070069001E9E004F0C3903B
:1018470001EAE094A09001E9E094054004E4F0A3E4
:0A185700F0D0D0D082D083D0E03270
:101EE900121380121C9AD20D121F6B9001157401E6
:101EF900F090010BF0121ABB12176C300A03120F83
:101F0900DC120B3E121B12121E4E121F1B121F98BF
:021F190080D96D
:03000000021540A6
:0C154000787FE4F6D8FD75812102158744
:1006FA00E709F608DFFA8046E709F208DFFA803EE2
:10070A0088828C83E709F0A3DFFA8032E309F608CE
:10071A00DFFA8078E309F208DFFA807088828C8336
:10072A00E309F0A3DFFA806489828A83E0A3F608EA
:10073A00DFFA805889828A83E0A3F208DFFA804CC4
:10074A0080D280FA80C680D4806980F2803380109B
:10075A0080A680EA809A80A880DA80E280CA803304
:10076A0089828A83ECFAE493A3C8C582C8CCC5837C
:10077A00CCF0A3C8C582C8CCC583CCDFE9DEE7804C
:10078A000D89828A83E493A3F608DFF9ECFAA9F0CB
:10079A00EDFB2289828A83ECFAE0A3C8C582C8CC21
:1007AA00C583CCF0A3C8C582C8CCC583CCDFEADE3A
:1007BA00E880DB89828A83E493A3F208DFF980CC9C
:1007CA0088F0EF60010E4E60C388F0ED2402B40495
:1007DA000050B9F582EB2402B4040050AF2323453C
:0607EA00822390074A7310
:1007F000BB010689828A83E0225002E722BBFE0207
:09080000E32289828A83E4932239
:10080900BB010CE58229F582E5833AF583E02250A4
:1008190006E92582F8E622BBFE06E92582F8E222EE
:0D082900E58229F582E5833AF583E4932208
:10083600BB010689828A83F0225002F722BBFE01A1
:02084600F3229B
:10084800EF8DF0A4A8F0CF8CF0A428CE8DF0A42EC4
:02085800FE227E
:10085A00BC000BBE0029EF8DF084FFADF022E4CC82
:10086A00F875F008EF2FFFEE33FEEC33FCEE9DEC4B
:10087A00984005FCEE9DFE0FD5F0E9E4CEFD22ED91
:10088A00F8F5F0EE8420D21CFEADF075F008EF2FDB
:10089A00FFED33FD4007985006D5F0F222C398FDCC
:0508AA000FD5F0EA2269
:1008AF00C5F0F8A3E028F0C5F0F8E58215827002D4
:0608BF001583E038F02271
:1008C500A3F8E0C5F025F0F0E582158270021583E6
:0608D500E0C838F0E82243
:1008DB00E88FF0A4CC8BF0A42CFCE98EF0A42CFCBC
:1008EB008AF0EDA42CFCEA8EF0A4CDA8F08BF0A43A
:1008FB002DCC3825F0FDE98FF0A42CCD35F0FCEB99
:10090B008EF0A4FEA9F0EB8FF0A4CFC5F02ECD395D
:0F091B00FEE43CFCEAA42DCE35F0FDE43CFC22CA
:10092A00E8600FECC313FCED13FDEE13FEEF13FFAB
:03093A00D8F122CF
:0C093D00ECF0A3EDF0A3EEF0A3EFF0222D
:10094900D083D082F8E4937012740193700DA3A33D
:1009590093F8740193F5828883E473740293686051
:06096900EFA3A3A380DF51
:10154C00021EE9E493A3F8E493A34003F68001F2AE
:10155C0008DFF48029E493A3F85407240CC8C333A0
:10156C00C4540F4420C8834004F456800146F6DF6F
:10157C00E4800B010204081020408090096FE47E87
:10158C00019360BCA3FF543F30E509541FFEE49364
:10159C00A360010ECF54C025E060A840B8E493A32B
:1015AC00FAE493A3F8E493A3C8C582C8CAC583CA56
:1015BC00F0A3C8C582C8CAC583CADFE9DEE780BE0E
:010B3D0000B7
:00000001FF
