:100E9200B5D8D6B7C9E8D6C300B5C6BCDCC9E8D652
:100EA200C300BAECCDE2C9E8D6C300B2C9BCAFBC3C
:100EB200E4B8F400CFC2BEAEA3BA00B3E4B5E7A370
:100EC200BA00B3E4C2FAA3BA00B5C6BCDC00BAECFD
:100ED200CDE200C9E8D6C300C9E8D6C3CDEAB1CF96
:100EE20021000000000000000000000000000000DF
:100EF20000000000000000000000000000000000F0
:100F020000000000000000000000303132333435B0
:0A0F12003637383941424344454662
:10043F00014200013B01015000013F000127000173
:10044F002800014500014CFF014B00014300027AD7
:10045F000000024E0000C108C105C106C101C10C58
:10046F00C10BC111C10F46019700000000000060D1
:10047F00C600650000000000000000000000000042
:10048F00000000000000000000000000000000005D
:10049F00000000000000000000000000000000004D
:1004AF00000000000000000000000000000000003D
:1004BF00000000000000000000000000000000002D
:1004CF00000000000000000000000000000000001D
:1004DF00000000000000000000000000000000000D
:1004EF0000000000000000000000000000000000FD
:1004FF0000000000000000000000000000000000ED
:10050F0000000000000000000000000000000000DC
:10051F0000000000000000000000000000000000CC
:10052F0000000000000000000000000000000000BC
:10053F00000000000000000000013A000141004CE3
:10054F00018BFF0E92FF0E9BFF0EA4FF0EAD61906D
:10055F000217000000000000000000000000000073
:10056F00000000000000000000000000000000007C
:10057F00000000000000000000000000000000006C
:10058F00000000000000000000000000000000005C
:10059F00000000000000000000000000000000004C
:1005AF00000000000000000000000000000000003C
:1005BF00000000000000000000000000000000002C
:1005CF00000000000000000000000000000000001C
:1005DF00000000000000000000000000000000000C
:1005EF0000000000000000000000000000000000FC
:1005FF0000000000000000000000000000000000EC
:10060F0000000000000000000000000000000000DB
:10061F0000000000000000000000000000000000CB
:10062F0000000000000000000000000000000000BB
:10063F0000000000000000000000000000000000AB
:10064F00000000000000000000000000000000009B
:10065F00000000000000000000000000000000008B
:10066F00000000000000000000000000000000007B
:10067F00000000000000000000000000000000006B
:10068F00000000000000000000000000000000005B
:10069F00000000000000000000000000000000004B
:1006AF00000000000000000000000000000000003B
:1006BF00000000000000000000000000000000002B
:1006CF00000000000000000000000000000000001B
:1006DF00000000000000000000000000000000000B
:1006EF0000000139050124140153004401A000004A
:1006FF0000004401AE000000004401A4000000000F
:10070F00014400015400013E00014D00014000C1B1
:04071F000901580074
:0518310012170A7F32CE
:03183600DFFE22B0
:10000E00AE07AF061EEF600C7FF51218367FF512A5
:05001E00183680EE22FF
:10168B00EF1475F01484FFF54C139294EFC31313FE
:10169B009295EF1313543F139296EF131313541F9A
:0316AB0013929700
:0116AE002219
:10002600D2B78F9BE59A30E1FB539AFD8D9BE59AFB
:0900360030E1FB539AFDC2B72230
:1016AF00B2B3D2B7EFC4540F4DF59BE59A30E1FBBF
:1016BF00539AFDEF540F4DF59BE59A30E1FB539A8A
:0416CF00FDC2B7227F
:0816F1001216F9900198E0FFC8
:1016F900B2B3D2B78F9BE59A30E1FB539AFDC2B7DB
:0117090022BD
:03003F000216F9AD
:10130B00E5566403604EE53BD39524502FC2B3E5FD
:10131B003C8524F0A4253BF53DC28CE4F5AFAF3DF5
:10132B0012168BAD3D7F8012002675AF0120110682
:10133B00758C4C758AD0E4F551D28C22053CE53C7A
:10134B00B55303E4F53CD20FE4F556753B01D2B32C
:05135B00D2B4D28C2287
:05000600053B02130B95
:0300430002118225
:10118200C0E0C0F0C083C082C0D075D000C005C02E
:011192000755
:10119300E59A30E03E539AFEAF9BE5566401703307
:1011A300C2B4EF54F064506013E54BC3940A500784
:1011B300054B12130B801C754B008014754300EF15
:1011C300540FFF7400253DF582E43400F583EFF0FE
:0D11D300120006E59A30E105539AFDC2B7FF
:0F11E000D007D005D0D0D082D083D0F0D0E0326D
:1016D3009001B2E552F07F01EFD39557500F74B2EA
:0D16E3002FF582E43401F583E4F00F80EB75
:0116F00022D7
:0D17C600E59954E0FFBF8003D38001C322EA
:0D17D300E59954E0FFBFA003D38001C322BD
:0D17E000E59954E0FFBFC003D38001C32290
:1013AD0020040DD2B67599803099FDC299C2B6222E
:1013BD00C204D2B69001B2E0F5993099FDC299C23E
:1013CD00B67F01EFD39557501DB290D2B674B22FA0
:1013DD00F582E43401F583E04450F5993099FDC26E
:0A13ED0099C2B60F80DDD204D29041
:0113F70022D3
:09182800D2B78556507556032213
:0C17FA00855056E556B4010312130B2273
:100B5200E4FF0F2437F582E43401F583E0540FC437
:100B620054F0FD0F74372401F582E43401F583E07B
:100B7200540F2DFDE4FCE4FEAB070F74372BF58216
:100B8200E43401F583E0540FC454F0FBEC75F00833
:100B9200A42473F582E43401F583E5822EF582E420
:100BA2003583F583EBF0AB070F74372BF582E43412
:100BB20001F583E0540FFBEC75F008A42473F58271
:100BC200E43401F583E5822EF582E43583F583E092
:100BD2002BF00EBE08A20CBC039C121828AF051203
:100BE200168B7FC0120026E4FCE4FEEC75F008A42C
:100BF2002473F582E43401F583E5822EF582E4352F
:100C020083F583E0FF7D601216AF0EBE08DD0CBCDB
:050C120003D70217FAF0
:100F1C00E4FFFE121792AD52E4FFFE12177CAD57A0
:100F2C007F027E0012177CAD3A7F047E0012177C84
:100F3C00AD467F067E0012177CAD457F087E001201
:100F4C00177CE4F510E510C3953A5046E4F511E52D
:100F5C001075F020A42400FFE5F03401FE7C00EFB6
:100F6C002511FFEC3EFEE51075F021A42465F582F9
:100F7C00E43400F583E5822511F582E43583F583AD
:100F8C00E0FD12177C0511E511C3942040C105103A
:020F9C0080B320
:010F9E002230
:07183900855650755604228C
:0C180600855056E556B4010312130B2266
:1013F800E4FDFCF510F511C28CF5AFC2AC7F6512A7
:10140800168B7FF012003F7F011216F97F03121628
:10141800F97F051216F974172DF58274023CF583CD
:10142800E0FF1216F90DBD00010CBC01E9BD90E604
:09143800D2B3D28C75AF01D2AC25
:011441002288
:100C17007F0285413A0F74172402F582E43402F506
:100C270083E0540FC454F0FE0F74172403F582E4D5
:100C37003402F583E0540F2EFEE4FDEDC3953A50E0
:100C470063E4FCAB070F74172BF582E43402F583DA
:100C5700E0540FC454F0FBED75F021A42465F58230
:100C6700E43400F583E5822CF582E43583F583EBE4
:100C7700F0AB070F74172BF582E43402F583E054C9
:100C87000FFBED75F021A42465F582E43400F583AC
:100C9700E5822CF582E43583F583E02BF00CBC204C
:100CA700A20D80978E46201005D213121442120F00
:0A0CB7001C1218391213F802180677
:030023000208A828
:1008A800C0E0C0F0C083C082C0D075D000C003C013
:1008B80004C005C006C0072098030209E6C29812C2
:1008C80017C650067555050209EB1217D3501BE5DC
:1008D80099541FB55214755508C28CC2AC1213AD89
:1008E800755500D28CD2AC0209EB1217E05012E514
:1008F80099541FB5520B755509B2A7753F000209E7
:10090800EBE555B4050EE599B401067555060209DF
:10091800EB0209AFE555B4060EE599B40306755523
:10092800070209EB0209AFE555B40716E599B405C6
:100938000F755504757A00757B007541000209EB47
:100948008065E55564047051B291057BE57BAE7A0C
:100958007002057A142417F58274023EF583E5992E
:10096800F0E57B6402457A700D900217E0C45400EC
:10097800FFA3E02FF541E54175F020A42402FFE430
:1009880035F0FEEF25E0FFEE33FEC3E57B9FE57A09
:100998009E4050D291D206804AE55564097044E5DC
:1009A8009954F0646060057555008037AF3F053F86
:1009B80074372FF582E43401F583E599F0E53FC3F8
:1009C8009432401FB2A7C28C75AF00C2AC120B5252
:1009D800755500D2B3D28C75AF01D2AC8005309971
:1009E80002C299D007D006D005D004D003D0D0D009
:0809F80082D083D0F0D0E03280
:1017A600C2A0D2A1D2A27580FFE58020E7FBC2A22B
:0117B6002210
:10170A001217A6C2A0C2A1D2A28F807F05121836D4
:07171A00C2A27F0502183690
:101721001217A6D2A0C2A1D2A28F807F05121836AD
:07173100C2A27F0502183679
:1011EF0075F00A84E5F02430FFE55425E02433F54B
:1011FF0082E43401F583EFF07A0179327B017D03CC
:02120F007F035B
:10121100AE07ED24FE600F146011146013240370F7
:1012210016EE2480800DEE24908008EE2488800341
:10123100EE2498FF12170A12081AFFD394004011E6
:10124100121721740129F9E43AFA7F321218368013
:02125100E62293
:041547007B1A7F028A
:10154B00AE07AC03ED24FE600F146011146013247E
:10155B00037016EE2480800DEE24908008EE248814
:10156B008003EE2498FF12170AAF041217217F3263
:03157B000218361D
:10166300AE07ED24FE600F146011146013240370A1
:1016730016EE2480800DEE24908008EE24888003EB
:08168300EE2498FF12170A2261
:0A181E007F0112170A7F0F02000E6F
:10163900E55275F0648485F052E55275F00A842408
:1016490030F510E55275F00A84E5F02430F511E41F
:0A165900F512FB7A0079100212115D
:0712B000E0FF7B0175140350
:0612B7008B118A1289135D
:1012BD00E4FEEEC395145013AB11AA12A9138E823E
:1012CD0075830074301208600E80E7EF601F75F0B3
:1012DD000A84E5F02430AB11AA12A9131E8E827573
:1012ED008300120860EF75F00A84FF80DEAB11AA4F
:0D12FD0012A913851482758300E4120860A5
:01130A0022C0
:10125300200C597BFF7A0E79B67D01E4FF1212113F
:101263007A0E79BD0DE4FF1212117A0E79C40DE4E2
:10127300FF1212119001987A0179A01212B07D0128
:101283007F041212119001997A0179AE1212B00DF6
:101293007F0412121190019AE0FF7B017A0179A475
:0D12A3007514031212B70D7F0412121122F0
:080A00008B108A1189128D137D
:100A0800E4F515F516F517F518F519F51A78A77C14
:100A1800037D017BFF7A0E79E4FE7F281207F4E458
:100A2800F514E514C395134003020B2CE518706404
:100A3800AB10AA11A912851482F583120833FF306E
:100A4800E752E519AE1630E0290516E51575F00AE6
:100A5800A424A7F582E43403F583E5822EF582E425
:100A68003583F5837420F00517051AE4F519151474
:100A7800805E0516E51575F00AA424A7F582E4340E
:100A880003F583E5822EF582E43583F583EFF0756F
:100A98001801803CE51870020519AB10AA11A912BB
:100AA800851482758300120833FFAE160516E51506
:100AB80075F00AA424A7F582E43403F583E5822EB1
:100AC800F582E43583F583EFF00517E4F518051A88
:100AD800E51AB5131CE51575F00AA424A7F582E4F8
:100AE8003403F583E5822516F582E43583F583E43E
:100AF800F0E517B40422E51575F00AA424A7F582D9
:100B0800E43403F583E5822516F582E43583F5831D
:100B1800E4F00515F516F517E515C3940450050519
:100B280014020A2AE4F514E51475F00AA424A7F9B6
:100B3800740335F0FA7B01E51404FDE4FF12121189
:090B48000514E514C3940440DE19
:010B51002281
:10144200200C4412181EE53AD394004028301305AC
:10145200E4F525800B0525E525853AF08485F02500
:10146200E52575F021A42465F9740035F0FA7B01B5
:101472007D20120A007BFF7A0E79CB7D047F051254
:0814820012117F071216392236
:10160C00E55275F0648485F0529001327420F0E557
:10161C005275F00A842430A3F0A37420F0E55275BF
:0D162C00F00A84E5F02430A3F0E4A3F022DE
:10150F0090012B7420F0E55775F064842430A3F01C
:10151F00A37420F0E55775F06484E5F075F00A8444
:10152F002430A3F0A37420F0E55775F00A84E5F09A
:08153F002430A3F0E4A3F02224
:1017660090019D7420F0E54575F00A84E5F024307B
:06177600A3F0E4A3F02241
:10173800D211D288D2A8C28C858C27858A28758C2C
:07174800FFE4F58AD28C22B8
:0F17B700C211C2A8C28C758C4C758AD0D28C22FC
:071840003011031217B7225B
:04136000C213AF40C5
:10136400AC0712181E30110D7BFF7A0E79D07D0167
:10137400E4FF1212117BFF7A0E79D57D017F0312EF
:101384001211EC75F003A4248BF582E43401F58387
:10139400E0FBA3E0FAA3E0F90D7F0212121130136F
:0913A400077B1A7F0112154B2290
:07184700D213AF400213644D
:10109800EF146020146037146047240370687544A7
:1010A80001E4F55412136012160C121207121547B8
:1010B800E5548047754404E4F53E12136012150F99
:1010C8007A01792B12120B121547E53E802DE4F5B3
:1010D80044B21130110512173880031217B70218DD
:1010E80047754407E4F54D1213601217667B017AC1
:1010F80001799D12120D121547E54D2403FF1216B2
:07110800637F0F12170A229A
:1015AF0020B52B7F0A12000E20B52330B5FD200C7D
:1015BF000DD20C121738E4F544F540021847E4F544
:0F15CF0044121840C20C12181EC21312144222EA
:10148A00EF12088214BC0814B30C14B01614B61860
:10149A0014BF1C14C54214CB4A14C85214C25A149D
:1014AA00B95E000014CD7F00227F01227F02227FD5
:1014BA0003227F04227F05227F06227F07227F08DC
:0414CA00227F092252
:030003000214CE16
:0914CE00C0E0C0D075D000C000E0
:1014D700300029E526C3943F500AE526C3942140EE
:1014E7000375230074592523F8A6267526000523BE
:1014F700E523B4210CD20A7523008005752600D296
:0115070000E3
:07150800D000D0D0D0E0328A
:1000460020110302043EE54912088201D90703B4D0
:100056000802F90903B40C011A1503B41603B418FF
:1000660003B41C00C34003B442008B44029E450205
:100076009E46029E4703B44A03B45203B45A03B4DD
:100086005E0000043EE544700302011EE54464017F
:10009600603DE544B402028036E54464046005E54B
:1000A60044B40506E53E2402803CE5446407600945
:1000B600E5446408600302043EE54D8046E544706D
:1000C600030201DDE54464016005E544B40209E587
:1000D60054045401F5548034E54464046005E54451
:1000E600B4050EE53E0475F0038485F03EE53E80DA
:1000F6001BE54464076009E5446408600302043EA6
:10010600E54D0475F0018485F04DE54D2403FF7D32
:1001160003020436E5447007E54024030201E0E5E6
:100126004464016006E5446402701BE55425E0243E
:1001360033F582E43401F583E024D91211EFE55456
:100146002403FF020436E54464046006E5446405BE
:100156007039E53E25E0242CF582E43401F583E090
:1001660024D975F00A84E5F02430FFE53E25E02425
:100176002CF582E43401F583EFF07B017A01792BCB
:1001860012120DE53E2403FF020436E544640760BF
:1001960009E5446408600302043EE54D25E0249E1B
:1001A600F582E43401F583E024D975F00A84E5F09C
:1001B6002430FFE54D25E0249EF582E43401F583E5
:1001C600EFF07B017A01799D12120DE54D2403FFB4
:1001D600020436E544700DE540045403F540D2139D
:1001E600FF021364E54464016006E5446402701B83
:1001F600E55425E02433F582E43401F583E024D187
:100206001211EFE5542403FF020436E5446404604A
:1002160006E54464057039E53E25E0242CF582E4C4
:100226003401F583E024D175F00A84E5F02430FF2B
:10023600E53E25E0242CF582E43401F583EFF07BDE
:10024600017A01792B12120DE53E2403FF020436D2
:10025600E54464076009E5446408600302043EE57A
:100266004D25E0249EF582E43401F583E024D17522
:10027600F00A84E5F02430FFE54D25E0249EF58262
:10028600E43401F583EFF07B017A01799D12120DBA
:10029600E54D2403FF020436E544B4020475440127
:1002A60022E544B40102802CE544B403028048E50B
:1002B60044B4050475440422E544B404028015E5FB
:1002C60044B406028031E544B4080475440722E5C7
:1002D60044B4070BE4F5447F0C12170A021847E5ED
:1002E60044B409028011E4F544121840C20CC2134A
:1002F600021442E5447005AF40021098E5446401DB
:100306006006E54464027031900133E024D075F054
:100316000AA4FF900135E024D02FF5529001B2F0E7
:10032600120F1C7F0C12170A7BFF7A0E79DA7D04F6
:100336007F0212121175440322E54464046006E547
:10034600446405703990012EE024D075F00AA4FFAC
:1003560090012CE024D075F064A42FFF900130E0CA
:1003660024D02FF557120F1C7F0C12170A7BFF7A29
:100376000E79DA7D047F0212121175440622E544D5
:1003860064076009E5446408600302043E90019E28
:10039600E024D0F545120F1C7F0C12170A7BFF7A5A
:1003A6000E79DA7D047F0212121175440922E544A2
:1003B60064016006E54464027010AF4912148AEFC6
:1003C6001211F5E5542403FF8066E54464046006D3
:1003D600E54464057028AF4912148AEF2430FFE51E
:1003E6003E25E0242CF582E43401F583EFF07B0111
:1003F6007A01792B12120DE53E2403FF8032E54483
:1004060064076006E5446408702EAF4912148AEF4B
:100416002430FFE54D25E0249EF582E43401F58382
:10042600EFF07B017A01799D12120DE54D2403FF51
:090436001216637F0F12170A224F
:10157E007E01E4FD7C0174592EF8E6D394074003F6
:10158E00430780ECC394085004EFC313FF0E0CBC4A
:10159E0009E474472DF8A607E4FF0DBD04D6D21258
:0115AE00221A
:03000B00020D667D
:100D6600C0E0C0F0C083C082C0D075D00830110A80
:100D7600758CFF758A000526807B758C4C758AD02C
:100D860020081C0542E54675F014A4FFC3E5429F02
:100D9600E5F06480F87480984005754200D208E555
:100DA60056B401290551E551654570490543E543AA
:100DB600D3940440137400253DF582E43400F58392
:100DC6007405F0120006802D12130B8028E556706C
:100DD60024054FE54F7002054EE53975F002A4FF74
:100DE600C3E54F9FE54E95F0400B754E00754F00DD
:100DF600D205753B01D0D0D082D083D0F0D0E0327E
:10101D00C2B6D2B7438901758C4C758AD0D2A9D28C
:10102D008C759850438920758DFD758BFDD28E532F
:10103D008EF7759A50759CDC438E04438E1075AFF8
:10104D00017F2812000ED2A37F0112000EC2A47FD1
:10105D000112000ED2A47F0A12000E7F3012183139
:10106D007F3012170A7F141218367F0C1218317F39
:10107D000112170A7F0F12000E7F0612183175B775
:0B108D001075B810D2ACD2AFC2032225
:0C181200E5578524F084F553E4F53C22F2
:100CC100E4FFFE12174F8F52E552B4FF03E4F552D1
:100CD1007F027E0012174F8F57E557B4FF037557F8
:100CE100647F047E0012174F8F3AE53AB4FF03E4A4
:100CF100F53A7F067E0012174F8F46E546B4FF0393
:100D010075460A7F087E0012174F8F45E545B4FFEF
:100D110003754501E4F510E510C3953A5046E4F535
:100D210011E51075F020A42400FFE5F03401FE7CEC
:100D310000EF2511FFEC3EFE12174FE51075F02173
:100D4100A42465F582E43400F583E5822511F5825A
:100D5100E43583F583EFF00511E511C3942040C11B
:040D6100051080B346
:010D6500226B
:100F9F007F0174972FF582E43401F583E0FE74A886
:100FAF002FF582E43401F583EEF00FBF04E4E490F3
:100FBF00019CF090019BF090019AF0900199F090B4
:100FCF000198F0900197F07F01EFD3955750287457
:100FDF00002FF582E43400F583E0FE74B22FF58222
:100FEF00E43401F583EEF074972EF582E43401F5C5
:100FFF0083E004F00F80D2900197EFF0E0FF9001B3
:0D100F00A8E0B50706B50703C20922D20903
:01101C0022B1
:1015DE0030092A75560AC28CE4F5AF7F7912168B44
:1015EE007F8012003FAF521216F1A3E0FF1216F1E8
:0E15FE007FFF12003F75AF01D28CE4F556223C
:10110F00D21012101D120CC1D21312144212181247
:10111F001216D375C13F30100312181ED204D2021B
:10112F00D20ED20D30050CC205C20E755601121328
:10113F000BD20E300F08C20F120F9F1215DE3006A2
:10114F0008C206E4F555120C1720100C30080CC21B
:10115F0008C213121442800312125375C13F300A92
:10116F000512157EC20A301205120046C212121560
:03117F00AF80A995
:0D17ED00E4F5C7F5C5F5C675C380F5C42247
:10174F0075C78375C5018FC48EC375C65A75C6A577
:06175F0000AFC21217EDFD
:011765002261
:10177C0075C78375C5028FC48EC38DC275C65A7565
:06178C00C6A5000217EDE6
:1017920075C78375C5038FC48EC375C65A75C6A532
:0417A200000217ED3D
:03000000020E06E7
:0C0E0600787FE4F6D8FD75817B020E4D6C
:10072400E709F608DFFA8046E709F208DFFA803EB7
:1007340088828C83E709F0A3DFFA8032E309F608A4
:10074400DFFA8078E309F208DFFA807088828C830C
:10075400E309F0A3DFFA806489828A83E0A3F608C0
:10076400DFFA805889828A83E0A3F208DFFA804C9A
:1007740080D280FA80C680D4806980F28033801071
:1007840080A680EA809A80A880DA80E280CA8033DA
:1007940089828A83ECFAE493A3C8C582C8CCC58352
:1007A400CCF0A3C8C582C8CCC583CCDFE9DEE78022
:1007B4000D89828A83E493A3F608DFF9ECFAA9F0A1
:1007C400EDFB2289828A83ECFAE0A3C8C582C8CCF7
:1007D400C583CCF0A3C8C582C8CCC583CCDFEADE10
:1007E400E880DB89828A83E493A3F208DFF980CC72
:1007F40088F0EF60010E4E60C388F0ED2402B4046B
:100804000050B9F582EB2402B4040050AF23234511
:06081400822390077473BB
:10081A00BB010689828A83E0225002E722BBFE02DC
:09082A00E32289828A83E493220F
:10083300BB010CE58229F582E5833AF583E022507A
:1008430006E92582F8E622BBFE06E92582F8E222C4
:0D085300E58229F582E5833AF583E49322DE
:10086000F8BB010DE58229F582E5833AF583E8F0CE
:10087000225006E92582C8F622BBFE05E92582C87A
:02088000F22262
:10088200D083D082F8E4937012740193700DA3A305
:1008920093F8740193F5828883E473740293686019
:0608A200EFA3A3A380DF19
:100E120002110FE493A3F8E493A34003F68001F2D6
:100E220008DFF48029E493A3F85407240CC8C333E1
:100E3200C4540F4420C8834004F456800146F6DFB0
:100E4200E4800B010204081020408090043FE47EFD
:100E5200019360BCA3FF543F30E509541FFEE493A5
:100E6200A360010ECF54C025E060A840B8E493A36C
:100E7200FAE493A3F8E493A3C8C582C8CAC583CA97
:100E8200F0A3C8C582C8CAC583CADFE9DEE780BE4F
:0107230000D5
:00000001FF
