:100391000000001824424242424242422418000016
:1003A100000000107010101010101010107C0000D0
:1003B1000000003C4242420404081020427E00003A
:1003C1000000003C4242041804020242443800008A
:1003D100000000040C14242444447E04041E000084
:1003E1000000007E40404058640202424438000050
:1003F1000000001C2440405864424242241800007E
:100401000000007E44440808101010101010000075
:100411000000003C4242422418244242423C000077
:100421000000001824424242261A02022438000029
:10002600620000041000100011FE1010541054104D
:100036005810901010101810241022104010405024
:1000460080200000080008007F7C09440944114410
:10005600157C620001007FFC038005400930310EEB
:10006600C1040100000000000000000000000000C4
:10007600000000000000000000000000000000007A
:10008600000000000000000000000000000000006A
:10009600000000000000000000000000000000005A
:1000A600000000000000FF80227E22443E442244DD
:1000B60022443E282228229027103A28C24602844B
:1000C60002000200010001003FFC010001000100E6
:1000D600FFFE0100110011F8110011002900450072
:1000E60083FE000000000000000000000000000089
:1000F600000000000000300030000000300030003A
:1001060000000000000000000000000000000000E9
:1001160000000000000000000000000000000000D9
:1001260000000000020001007FFC020007400C20D6
:1001360010103FF80490048004800880088410841E
:10014600207C40000100010001003FF82108210841
:100156003FF82108210821083FF821080102010281
:1001660000FE00000000000000000000000000008B
:1001760000000000000030003000000030003000B9
:100186000000000000000000000000000000000069
:100196000000000000000000000000000000000059
:1001A60000000000020001007FFC020007400C2056
:1001B60010103FF80490048004800880088410849E
:1001C600207C4000411021102FFE0110800057FEB8
:1001D600512017FC2524252425B4C64C4484440408
:1001E6004414440800000000000000000000000065
:1001F6000000000000003000300000003000300039
:1002060000000000000000000000000000000000E8
:1002160000000000000000000000000000000000D8
:1002260000000000013A02012600012120C184C11C
:10023600801027000102030405060708090A0B0CB3
:100246000D0E0F44000000000000012200022400F1
:0102560000A7
:10067A007E08EFC4131313540113B392A5C2A7D271
:07068A00A7EF25E0FFDEEB06
:010691002246
:030023000205AB28
:1005AB00C0E0C083C082C0D075D000C00730983E79
:1005BB00C298E599B480087537017523008034E53E
:1005CB00376401702EE523C39404400FE599B4FF03
:1005DB0005753702801D7537008018AF230523740E
:1005EB00002FF582E43400F583E599F0800530990E
:0E05FB0002C299D007D0D0D082D083D0E03297
:03000B0002000EE2
:0C000E00758CFC758A66200202D202325A
:1004BD00300079300276E4F53975F020E539A42560
:1004CD0038F582E435F0F583E5822404F582E58381
:1004DD003400F583E0FF12067A75F020E539A42586
:1004ED0038F582E435F0F583E5822405F582E58360
:1004FD003400F583E0FF12067A0539E539C394100F
:10050D0040B7C2A6D2A674272522F8E6FFE5A0546F
:10051D00F04FF5A0052205380538E522B41003E4A7
:0D052D00F522E538B42003E4F538C20222BF
:10063600C2B6C2B7438901758CFF758AD2D2A9D2D8
:100646008C759850438920758DFD758BFDD28E75FE
:0B065600B810D2ACD2AAD28AD2AF22D8
:10053A00E075F00A84E5F075F010A42491F97403CB
:09054A0035F0FA7BFF7D017E0013
:0C0553008E098F0A8D0B8B0C8A0D890E0F
:10055F00E4F50FAB0CAA0DA90E850F82758300125F
:10056F000609FDE50AAE097805C333CE33CED8F9B7
:10057F00FBAA06E50F75F002A42BFFE5F03AFEE5A6
:10058F000B7A002FFFEA3EFE74042FF58274003EB3
:0B059F00F583EDF0050FE50FB410B878
:0105AA00222E
:10025800900000E075F00A8475F010A42491F974F8
:100268000335F0FA7BFFE4FD7F02FE120553900090
:10027800007F0212053A900001E075F0648475F081
:1002880010A42491F9740335F0FA7BFF7D017F06F1
:100298007E00120553900001E075F00A8475F00A9B
:1002A80084E5F075F010A42491F9740335F0FA7B15
:1002B800FFE4FD7F07FE1205539000017F0712053A
:1002C8003A900002E075F0648475F010A42491F966
:1002D800740335F0FA7BFF7D017F0A7E0012055317
:1002E800900002E075F00A8475F00A84E5F075F074
:1002F80010A42491F9740335F0FA7BFFE4FD7F0B19
:10030800FE120553900002E075F00A84E5F075F0DE
:1003180010A42491F9740335F0FA7BFF7D017F0B5B
:100328007E00120553900003E075F0648475F010A8
:10033800A42491F9740335F0FA7BFF7D017F0E7ECA
:1003480000120553900003E075F00A8475F00A84E2
:10035800E5F075F010A42491F9740335F0FA7BFFE9
:10036800E4FD7F0FFE120553900003E075F00A8448
:10037800E5F075F010A42491F9740335F0FA7BFFC9
:090388007D017F0F7E0002055388
:0B06A9007FF57E001206B47FF57E0096
:0B06B400EF1FAC0670011E4C70F62218
:10069200AB07AA06EB1BAE0270011A4E60081206E7
:0706A200A91206A980EE2257
:0100030022DA
:10066100E4F59575960F1206361204BDE537B4020E
:09067100F8120258E4F53780F09C
:03000000020431C6
:0C043100787FE4F6D8FD75813A0204786B
:10060900BB010CE58229F582E5833AF583E02250A6
:1006190006E92582F8E622BBFE06E92582F8E222F0
:0D062900E58229F582E5833AF583E493220A
:10043D00020661E493A3F8E493A34003F68001F26E
:10044D0008DFF48029E493A3F85407240CC8C333C0
:10045D00C4540F4420C8834004F456800146F6DF8F
:10046D00E4800B0102040810204080900026E47EF9
:10047D00019360BCA3FF543F30E509541FFEE49384
:10048D00A360010ECF54C025E060A840B8E493A34B
:10049D00FAE493A3F8E493A3C8C582C8CAC583CA76
:1004AD00F0A3C8C582C8CAC583CADFE9DEE780BE2E
:0102570000A6
:00000001FF
